:100000000C945D000C9485000C9485000C94850084
:100010000C9485000C9485000C9485000C9485004C
:100020000C9485000C9485000C9485000C9485003C
:100030000C9485000C9485000C9485000C9485002C
:100040000C949E020C9485000C9485000C94850001
:100050000C9485000C9485000C9485000C9485000C
:100060000C9485000C94850000000008000201003B
:100070000003040700000000000000000000000072
:10008000250028002B0000000000240027002A0083
:10009000040404040404040402020202020203032E
:1000A0000303030301020408102040800102040836
:1000B0001020010204081020DC0311241FBECFEF22
:1000C000D8E0DEBFCDBF11E0A0E0B1E0E0E8FBE0AA
:1000D00002C005900D92AA31B107D9F721E0AAE13B
:1000E000B1E001C01D92AB33B207E1F710E0CDE5FE
:1000F000D0E004C02197FE010E94B305CC35D107A2
:10010000C9F70E94E8020C94BE050C94000090E030
:10011000FC01EC55FF4F2491FC01E057FF4F849107
:10012000882399F090E0880F991FFC01EA57FF4F50
:10013000A591B491FC01E458FF4F859194918FB73C
:10014000F894EC91E22BEC938FBF089590E0FC01C2
:10015000E859FF4F2491FC01EC55FF4F3491FC010D
:10016000E057FF4FE491EE2309F43CC0222339F11C
:10017000233091F038F42130A9F0223001F584B514
:100180008F7D12C0273091F02830A1F02430B9F4CF
:10019000809180008F7D03C0809180008F77809355
:1001A00080000DC084B58F7784BD09C08091B000F8
:1001B0008F7703C08091B0008F7D8093B000F0E016
:1001C000EE0FFF1FE458FF4FA591B4919FB7F8942D
:1001D000611104C08C913095382302C0EC913E2B04
:1001E0003C939FBF08953FB7F89480911F01909171
:1001F0002001A0912101B091220126B5A89B05C044
:100200002F3F19F00196A11DB11D3FBFBA2FA92F95
:10021000982F8827820F911DA11DB11DBC01CD0112
:1002200042E0660F771F881F991F4A95D1F70895FE
:10023000CF92DF92EF92FF920F931F93CF93DF93B2
:100240006C017A018B01C0E0D0E0CE15DF0581F0B2
:10025000D8016D918D01D601ED91FC910190F08155
:10026000E02DC6010995892B11F02196EECF7E0174
:10027000C701DF91CF911F910F91FF90EF90DF9019
:10028000CF900895CF93DF93EC0160E08E810E94C0
:10029000A60061E08E810E94A60060E08E810E942F
:1002A000A6008BE891E00197F1F7DF91CF910895D7
:1002B000CF92DF92EF92FF920F931F93CF93DF9332
:1002C0006C017C0187E0E80EF11CC0E0D0E0062F55
:1002D00010E0B8010C2E02C0759567950A94E2F7FC
:1002E0006170F70181917F010E94A6002196C430C0
:1002F000D10579F7C601DF91CF911F910F91FF9042
:10030000EF90DF90CF900C944201CF92DF92EF926A
:10031000FF920F931F93CF93DF93EC01F62E642F80
:100320008C810E94A6008D818F3F19F060E00E94B1
:10033000A6008F850F2D10E084FF25C06E0187E099
:10034000C80ED11CE12CF12CB8010E2C02C0759501
:1003500067950A94E2F76170F60181916F010E943E
:10036000A600FFEFEF1AFF0A88E0E816F10461F734
:10037000CE01DF91CF911F910F91FF90EF90DF9011
:10038000CF900C944201B80184E0759567958A95E9
:10039000E1F7CE010E9458016F2DCE01DF91CF9180
:1003A0001F910F91FF90EF90DF90CF900C94580128
:1003B00040E0682F83E291E00C948501CF93DF93B6
:1003C000823028F0909132019860909332018093AE
:1003D00036011092370180E48093380180E18093E8
:1003E000390180E580933A01809127010E948700BE
:1003F000809128018F3F11F00E9487008091290190
:100400000E948700C3E2D1E09E01235231408091D7
:10041000320184FD03C084E090E002C088E090E0F7
:1004200021962817390724F48E810E948700ECCF8B
:100430008BE39DE00197F1F760E0809127010E9436
:10044000A60060E0809129010E94A6008091280109
:100450008F3F19F060E00E94A6008091320184FD78
:1004600020C063E083E291E00E945801CBE4D6E42F
:10047000CE010197F1F763E083E291E00E94580119
:100480002197F1F763E083E291E00E94580183E550
:1004900092E00197F1F762E083E291E00E94580157
:1004A00015C080620E94D8018BE496E40197F1F7B1
:1004B0008091320180620E94D80183E592E0019729
:1004C000F1F78091320180620E94D801809132015F
:1004D00080620E94D80184E0809333018CE00E9406
:1004E000D80181E00E94D8018BE39FE10197F1F7E9
:1004F00082E08093340186E0DF91CF910C94D801A3
:1005000041E00E94850181E090E00895089580E037
:1005100090E00895009769F0FC0101900020E9F750
:100520003197AF01481B590BBC0183E291E00C9459
:10053000180180E090E008950E94B9051F920F9283
:100540000FB60F9211242F933F938F939F93AF93E6
:10055000BF9380911B0190911C01A0911D01B0914E
:100560001E0130911A0123E0230F2D3720F401964C
:10057000A11DB11D05C026E8230F0296A11DB11DC6
:1005800020931A0180931B0190931C01A0931D01DD
:10059000B0931E0180911F0190912001A091210133
:1005A000B09122010196A11DB11D80931F0190936E
:1005B0002001A0932101B0932201BF91AF919F919F
:1005C0008F913F912F910F900FBE0F901F90189514
:1005D000CF93DF93CDB7DEB7A1970FB6F894DEBF08
:1005E0000FBECDBF789484B5826084BD84B5816030
:1005F00084BD85B5826085BD85B5816085BD8091EE
:100600006E00816080936E00109281008091810065
:10061000826080938100809181008160809381005D
:10062000809180008160809380008091B10084601F
:100630008093B1008091B00081608093B000809180
:100640007A00846080937A0080917A00826080933F
:100650007A0080917A00816080937A0080917A009C
:10066000806880937A001092C10082E00E94DE01CF
:100670002AE0422E512C612C712C81E00E94D8017D
:100680008BE39FE10197F1F7E1E080913601811161
:10069000E0E0E195F0E0ED5DFE4F848980680E9426
:1006A000D8018CE091E00E948A02E0913601E230AC
:1006B00010F4E15001C0E1E0F0E0ED5DFE4F84890F
:1006C00080680E94D80119A224E328A382E38F8FB7
:1006D00091E39E8FCE014E960E948A0241E06EE227
:1006E00083E291E00E94850193E0F92E60E077E4D7
:1006F00081EA9EE3FA94FF2081F120E030E040E2BD
:1007000051E40E9424054B015C010E9467049B0197
:1007100040E050E019A28E010F5D1F4F1B016A01DE
:10072000CA01B901A30192010E949105605DF8011F
:1007300062938F01211531054105510589F7CF01DC
:100740000E948A02B101C6010E9496049B01AC017D
:10075000C501B4010E94FA03CDCF0E94F3006B01E2
:100760007C0184EF882E99249394A12CB12C0E94B3
:10077000F300DC01CB018C199D09AE09BF09883E4D
:100780009340A105B10598F3F1E08F1A9108A108F3
:10079000B10828EEC20E23E0D21EE11CF11C811428
:1007A0009104A104B10419F780E090E0892B09F4C9
:1007B00064CF0E94000061CFE3E2F1E01382128275
:1007C00084E091E09183808382E084838FEF85834E
:1007D00083E0868384E0878385E0808786E0818765
:1007E00087E082871386148615861686178681E031
:1007F0000C94DE015058BB27AA270E9412040C94C7
:10080000EA040E94DC0438F00E94E30420F039F48A
:100810009F3F19F426F40C94D9040EF4E095E7FBFD
:100820000C94D304E92F0E94FB0458F3BA17620713
:1008300073078407950720F079F4A6F50C941D053D
:100840000EF4E0950B2EBA2FA02D0B01B9019001EB
:100850000C01CA01A0011124FF27591B99F0593F2F
:1008600050F4503E68F11A16F040A22F232F342F77
:100870004427585FF3CF469537952795A795F040C5
:100880005395C9F77EF41F16BA0B620B730B840BDA
:10089000BAF09150A1F0FF0FBB1F661F771F881F92
:1008A000C2F70EC0BA0F621F731F841F48F48795EA
:1008B00077956795B795F7959E3F08F0B0CF9395DC
:1008C000880F08F09927EE0F9795879508950E9455
:1008D000030588F09F5798F0B92F9927B751B0F0CA
:1008E000E1F0660F771F881F991F1AF0BA95C9F7B4
:1008F00014C0B13091F00E941D05B1E008950C9430
:100900001D05672F782F8827B85F39F0B93FCCF3E2
:10091000869577956795B395D9F73EF49095809530
:10092000709561957F4F8F4F9F4F0895E89409C050
:1009300097FB3EF490958095709561957F4F8F4F12
:100940009F4F9923A9F0F92F96E9BB279395F69528
:10095000879577956795B795F111F8CFFAF4BB0FA6
:1009600011F460FF1BC06F5F7F4F8F4F9F4F16C00A
:10097000882311F096E911C0772321F09EE8872F94
:10098000762F05C0662371F096E8862F70E060E050
:100990002AF09A95660F771F881FDAF7880F9695C9
:1009A000879597F9089597F99F6780E870E060E070
:1009B00008959FEF80EC089500240A9416161706F8
:1009C00018060906089500240A9412161306140640
:1009D00005060895092E0394000C11F4882352F0A3
:1009E000BB0F40F4BF2B11F460FF04C06F5F7F4F5B
:1009F0008F4F9F4F089557FD9058440F551F59F042
:100A00005F3F71F04795880F97FB991F61F09F3FFB
:100A100079F087950895121613061406551FF2CF24
:100A20004695F1DF08C0161617061806991FF1CF74
:100A300086957105610508940895E894BB2766279B
:100A40007727CB0197F908950E9437050C94EA04A3
:100A50000E94DC0438F00E94E30420F0952311F09A
:100A60000C94D3040C94D90411240C941E050E94F8
:100A7000FB0470F3959FC1F3950F50E0551F629FE3
:100A8000F001729FBB27F00DB11D639FAA27F00DE7
:100A9000B11DAA1F649F6627B00DA11D661F829F0E
:100AA0002227B00DA11D621F739FB00DA11D621FF3
:100AB000839FA00D611D221F749F3327A00D611D10
:100AC000231F849F600D211D822F762F6A2F1124F2
:100AD0009F5750409AF0F1F088234AF0EE0FFF1F25
:100AE000BB1F661F771F881F91505040A9F79E3F7C
:100AF000510580F00C94D3040C941E055F3FE4F381
:100B0000983ED4F3869577956795B795F795E795D1
:100B10009F5FC1F7FE2B880F911D9695879597F9DA
:100B20000895A1E21A2EAA1BBB1BFD010DC0AA1F2E
:100B3000BB1FEE1FFF1FA217B307E407F50720F046
:100B4000A21BB30BE40BF50B661F771F881F991FC1
:100B50001A9469F760957095809590959B01AC010A
:100B6000BD01CF010895EE0FFF1F0590F491E02D18
:100B7000099481E090E0F8940C94BE05F894FFCFBE
:100B8000000000008002180187028602426173653E
:0A0B900062616E642028487A290093
:00000001FF
