:100000000C9463000C948B000C948B000C94AD0347
:100010000C94AD030C94AD030C948B000C948B00EA
:100020000C948B000C948B000C948B000C948B0024
:100030000C948B000C948B000C948B000C948B0014
:100040000C9406050C948B000C947B030C945503C4
:100050000C948B000C948B000C948B000C948B00F4
:100060000C948B000C948B0000000008000201002F
:100070000003040700000000000000000000000072
:1000800023002600290000000000240027002A0089
:1000900000000000250028002B00040404040404D0
:1000A0000404020202020202030303030303010227
:1000B00004081020408001020408102001020408F6
:1000C00010209C08330811241FBECFEFD8E0DEBFFC
:1000D000CDBF23E0AEEEB2E001C01D92AB3FB20750
:1000E000E1F712E0A0E0B1E0ECE1F8E102C0059038
:1000F0000D92AE3EB107D9F710E0C2E6D0E004C0E1
:100100002197FE010E94FF09C136D107C9F70E945D
:1001100050050C94010C0C940000CF92DF92EF92EA
:10012000FF920F931F93CF93DF936C017A018B01A2
:10013000C0E0D0E0CE15DF0581F0D8016D918D01D2
:10014000D601ED91FC910190F081E02DC601099559
:10015000892B11F02196EECF7E01C701DF91CF915F
:100160001F910F91FF90EF90DF90CF900895FC01C9
:10017000538D448D252F30E0842F90E0821B930B0C
:10018000541710F0CF96089501970895FC01918DB2
:10019000828D981761F0828DDF01A80FB11D5D96E9
:1001A0008C91928D9F5F9F73928F90E008958FEF57
:1001B0009FEF0895FC01918D828D981731F0828D0B
:1001C000E80FF11D858D90E008958FEF9FEF089562
:1001D000FC01918D228D892F90E0805C9F4F821BC6
:1001E00091098F739927089582E393E00E94E800B4
:1001F00021E0892B09F420E0822F0895FC01848DF1
:10020000DF01A80FB11DA35ABF4F2C91848D90E040
:1002100001968F739927848FA689B7892C93A0891B
:10022000B1898C91837080648C93938D848D9813A5
:1002300006C00288F389E02D80818F7D8083089538
:10024000EF92FF920F931F93CF93DF93EC0181E026
:10025000888F9B8D8C8D981305C0E889F9898081E2
:1002600085FD26C0F62E0B8D10E00F5F1F4F0F731C
:100270001127E02E8C8DE8120CC00FB607FCFACFC8
:10028000E889F989808185FFF5CFCE010E94FE00C3
:10029000F1CF8B8DFE01E80FF11DE35AFF4FF08285
:1002A0009FB7F8940B8FEA89FB89808180620AC02E
:1002B0009FB7F894EE89FF896083E889F989808186
:1002C0008370806480839FBF81E090E0DF91CF9155
:1002D0001F910F91FF90EF900895CF93DF93EC0162
:1002E000888D8823C9F0EA89FB89808185FD05C056
:1002F000A889B9898C9186FD0FC00FB607FCF5CF90
:10030000808185FFF2CFA889B9898C9185FFEDCFD7
:10031000CE010E94FE00E7CFDF91CF91089580E0EB
:1003200090E0892B29F00E94F40081110C940000C8
:10033000089520913003309131032817390771F463
:1003400090912E0380912F03981741F0E0912E0396
:10035000F0E0E251FD4F808190E008958FEF9FEF34
:10036000089508951F93CF93DF93DC015C968D91E0
:100370009C915D97009739F421E030E013963C930F
:100380002E9312973BC05196ED91FC915297509647
:100390002C915097322F30951FB75E964C915E97F7
:1003A000742F727041FD6095F8944081772311F0AD
:1003B000422B01C043234083EC012197F1F748E031
:1003C000508160FF02C0522B01C053235083EC01C7
:1003D0002197F1F76695415099F78081772319F0BD
:1003E0008323808302C0282B20831FBF5C968D91BE
:1003F0009C915D970197F1F781E090E0DF91CF91BB
:100400001F91089520913003309131032817390747
:1004100071F480912F0320912E0390E0805C9F4F18
:10042000821B910960E470E00E94B509089580E0A4
:1004300090E0089520913003309131032817390757
:10044000B9F490912E0380912F03981789F0E091D1
:100450002E03F0E0E251FD4F808120912E0330E029
:100460002F5F3F4F2F73332720932E0390E0089583
:100470008FEF9FEF0895089580E090E008950E9427
:10048000EC0B0F931F93CF93DF93EC01888199813D
:10049000009729F02A813B812617370788F48B01C2
:1004A0006F5F7F4F0E94260B009761F099838883CE
:1004B0001B830A832C813D81232B11F4FC011082C4
:1004C00081E001C080E0DF91CF911F910F910895ED
:1004D000EF92FF920F931F93CF93DF93EC0119825A
:1004E00018821B821A821D821C828617970741F18F
:1004F000FB01008111810115110511F1E480F580E6
:10050000B7010E9441022881398181110DC0211556
:10051000310519F0C9010E949D0A198218821D82B5
:100520001C821B821A820CC0FD82EC82B801C901B8
:10053000DF91CF911F910F91FF90EF900C94FA0BE8
:10054000DF91CF911F910F91FF90EF900895EF925F
:10055000FF920F931F93CF93DF93EC0119821882C0
:100560001B821A821D821C826115710549F18B0163
:10057000FB0101900020E9F731977F01E61AF70AA5
:10058000B7010E9441022881398181110DC02115D6
:10059000310519F0C9010E949D0A198218821D8235
:1005A0001C821B821A820CC0FD82EC82B801C90138
:1005B000DF91CF911F910F91FF90EF900C94FA0B68
:1005C000DF91CF911F910F91FF90EF900895DB0184
:1005D00014964D915C9115976D917C91DC01ED9194
:1005E000FC910280F381E02D09946115710579F089
:1005F000FB0101900020E9F73197AF01461B570B33
:10060000DC01ED91FC910280F381E02D099480E002
:1006100090E008958F929F92AF92BF92EF92FF92D7
:100620000F931F93CF93DF93CDB7DEB7A1970FB68C
:10063000F894DEBF0FBECDBF7C01FA01CB0119A239
:10064000223008F42AE08E010F5D1F4F822E912C7C
:10065000A12CB12CBF01A50194010E94C909F90187
:10066000CA01015011096A3014F4605D01C0695C6F
:10067000D8016C93232B242B252B61F7B801C701DC
:100680000E94F502A1960FB6F894DEBF0FBECDBF53
:10069000DF91CF911F910F91FF90EF90BF90AF909E
:1006A0009F908F9008950C94F5021F920F920FB6B1
:1006B0000F9211242F933F934F935F936F937F93E8
:1006C0008F939F93AF93BF93EF93FF9382E393E056
:1006D0000E94FE00FF91EF91BF91AF919F918F918A
:1006E0007F916F915F914F913F912F910F900FBE2E
:1006F0000F901F9018951F920F920FB60F92112412
:100700002F938F939F93EF93FF93E0914203F09188
:1007100043038081E0914803F091490382FD12C0B8
:10072000908180914B038F5F8F7320914C038217D0
:1007300051F0E0914B03F0E0EE5CFC4F958F80931D
:100740004B0301C08081FF91EF919F918F912F9179
:100750000F900FBE0F901F9018951F920F920FB61B
:100760000F9211242F933F934F935F936F937F9337
:100770008F939F93AF93BF93EF93FF93E0913003D9
:10078000F0913103309709F451C0968DA685B78555
:10079000858591FF04C09C91892329F447C09C91D1
:1007A000892309F043C0A389B4899C9185898095E8
:1007B00089238C93868997890197F1F7608D718DD4
:1007C000A685B785558538E020E0CB010197F1F784
:1007D000822F90E095958795282F4C91452309F01D
:1007E0002068315091F7868D81FD209580912F03EF
:1007F00090E001968F73992730912E03381749F0B6
:10080000A0912F03B0E0A251BD4F2C9380932F03F2
:1008100003C0868D8160868F828D938D0197F1F75D
:10082000A389B4899C918589892B8C93FF91EF9141
:10083000BF91AF919F918F917F916F915F914F91F8
:100840003F912F910F900FBE0F901F9018953FB7BB
:10085000F8948091F3039091F403A091F503B09183
:10086000F60326B5A89B05C02F3F19F00196A11DE0
:10087000B11D3FBFBA2FA92F982F8827820F911D36
:10088000A11DB11DBC01CD0142E0660F771F881F7D
:10089000991F4A95D1F708958FEC93E00E940202C8
:1008A0001816190654F48FEC93E00E941A02682F70
:1008B00082E393E00E942001EFCF0895CF93DF936E
:1008C000BC0182E393E00E94E702EC016DEB72E071
:1008D00082E393E00E94F5028C0F9D1FDF91CF9180
:1008E0000895FC01808191810C949D0ACF93DF9340
:1008F000BC0182E393E00E94F502EC016DEB72E033
:1009000082E393E00E94F5028C0F9D1FDF91CF914F
:1009100008958F929F92AF92BF92CF92DF92EF9203
:10092000FF926B017C010E9427044B015C01C11402
:10093000D104E104F104F1F00E942704DC01CB01B1
:1009400088199909AA09BB09883E9340A105B105F8
:1009500070F321E0C21AD108E108F10888EE880E90
:1009600083E0981EA11CB11CC114D104E104F10460
:1009700019F7DDCFFF90EF90DF90CF90BF90AF9051
:100980009F908F900895CF9382E393E00E946D0132
:1009900064EA72E082E393E00E945303C5E060ECF6
:1009A00072E08FEC93E00E94530364E670E080E015
:1009B00090E00E948904C15091F70E944C040E946B
:1009C0004C0464E670E080E090E00E948904CF91DE
:1009D0000C944C0482E393E00E946D0163EC72E09E
:1009E00082E393E00E94530365EE72E08FEC93E0A4
:1009F0000E9453030E944C040E944C0468EE73E072
:100A000080E090E00E9489040C944C041F920F92A5
:100A10000FB60F9211242F933F938F939F93AF9311
:100A2000BF938091EF039091F003A091F103B091F7
:100A3000F2033091EE0323E0230F2D3720F40196CB
:100A4000A11DB11D05C026E8230F0296A11DB11DF1
:100A50002093EE038093EF039093F003A093F103B0
:100A6000B093F2038091F3039091F403A091F50306
:100A7000B091F6030196A11DB11D8093F3039093ED
:100A8000F403A093F503B093F603BF91AF919F9148
:100A90008F913F912F910F900FBE0F901F9018953F
:100AA000CF93DF93CDB7DEB76E970FB6F894DEBF66
:100AB0000FBECDBF789484B5826084BD84B581605B
:100AC00084BD85B5826085BD85B5816085BD809119
:100AD0006E00816080936E00109281008091810091
:100AE0008260809381008091810081608093810089
:100AF000809180008160809380008091B10084604B
:100B00008093B1008091B00081608093B0008091AB
:100B10007A00846080937A0080917A00826080936A
:100B20007A0080917A00816080937A0080917A00C7
:100B3000806880937A001092C100E0914203F091A6
:100B4000430382E08083E0913E03F0913F031082F3
:100B5000E0914003F091410380E1808310924A03C9
:100B6000E0914603F091470386E08083E0914403DF
:100B7000F0914503808180618083E0914403F0918E
:100B80004503808188608083E0914403F0914503B0
:100B9000808180688083E0914403F09145038081E7
:100BA0008F7D80836AE271E082E393E00E945303C9
:100BB00085E391E00E94760466E771E082E393E0CA
:100BC0000E94530381E891E00E94760483E391E060
:100BD0000E9476041092EA031092E9031092E8034F
:100BE0001092E7031092E6031092E5038DE991E07D
:100BF0009093EC038093EB039091DB03963108F024
:100C000058C02DEB30E03093E6032093E5032BE949
:100C100031E03093E8032093E7032CE231E0309396
:100C2000EA032093E90340916800983058F031E0DE
:100C30009E3008F430E021E0822F01C0880F3A9501
:100C4000EAF701C084E0842B80936800983038F084
:100C50009E3040F0963148F020E030E008C02DE6AC
:100C600030E005C02BE630E002C02CE630E03093E7
:100C7000E3032093E203983030F481E001C0880F51
:100C80009A95EAF70EC0292F30E09E3018F42850CC
:100C9000310902C02E50310981E001C0880F2A9528
:100CA000EAF78093E4038091EB039091EC030197C2
:100CB000F1F78091E9039091EA03892B49F1E091E2
:100CC0003003F091310383E0EF3CF80709F13097EE
:100CD00039F0A389B4899C918589809589238C9367
:100CE0008091ED038E7F8093ED0310922F0310927D
:100CF0002E038FEC93E09093310380933003E091C7
:100D0000E203F091E30390818091E403892B8083D7
:100D10006DE871E082E393E00E9453032AE040E82B
:100D200055E260E070E082E393E00E940A036DEB1D
:100D300072E082E393E00E94F5020E94C3040E94E5
:100D4000EA040E94C30462EA71E0CE0101960E94A7
:100D5000A70282E393E00E946D016AEA71E082E3F8
:100D600093E00E945303CE0101960E945E0460EC62
:100D700071E08FEC93E00E945303BE016F5F7F4FE1
:100D80008FEC93E00E94E7020E944C040E944C0406
:100D900064E670E080E090E00E9489040E944C04C8
:100DA000CE0101960E94710482E393E00E946D01DE
:100DB00068EC71E082E393E00E94530320E149E391
:100DC00050E360E070E082E393E00E940A036DEB81
:100DD00072E082E393E00E94F5026EED71E08FEC29
:100DE00093E00E94530320E149E350E360E070E0A8
:100DF0008FEC93E00E940A030E944C040E944C0472
:100E000064E670E080E090E00E9489040E944C0457
:100E100082E393E00E946D0168EE71E082E393E06B
:100E20000E94530320E140EA5BE560E070E082E36A
:100E300093E00E940A036DEB72E082E393E00E946C
:100E4000F5026EEF71E08FEC93E00E94530320E116
:100E500040EA5BE560E070E08FEC93E00E940A03FB
:100E60000E944C040E944C0464E670E080E090E034
:100E70000E9489040E944C0468E072E0CE0107964B
:100E80000E94A70261E172E0CE010D960E94A702C6
:100E90006AE172E0CE0143960E94A70263E272E02B
:100EA000CE0149960E94A702BE01675E7F4FCE0128
:100EB00001960E94680282E393E00E946D016CE259
:100EC00072E082E393E00E945303CE0101960E94F8
:100ED0005E0462E472E08FEC93E00E945303BE0173
:100EE0006F5F7F4F8FEC93E00E94E7020E944C04FB
:100EF0000E944C0464E670E080E090E00E94890467
:100F00000E944C04CE0101960E947104BE016D5EE8
:100F10007F4FCE0101960E94680282E393E00E9417
:100F20006D016AE472E082E393E00E945303CE0114
:100F300001960E945E0460E672E08FEC93E00E94EE
:100F40005303BE016F5F7F4F8FEC93E00E94E70277
:100F50000E944C040E944C0464E670E080E090E043
:100F60000E9489040E944C04CE0101960E947104E3
:100F7000BE01635F7F4FCE0101960E94680282E34B
:100F800093E00E946D0168E672E082E393E00E94C4
:100F90005303CE0101960E945E046EE772E08FEC6F
:100FA00093E00E945303BE016F5F7F4F8FEC93E08D
:100FB0000E94E7020E944C040E944C0464E670E028
:100FC00080E090E00E9489040E944C04CE010196CA
:100FD0000E947104BE01695F7F4FCE0101960E949D
:100FE000680282E393E00E946D0166E872E082E3AA
:100FF00093E00E945303CE0101960E945E046CE9C7
:1010000072E08FEC93E00E945303BE016F5F7F4F4D
:101010008FEC93E00E94E7020E944C040E944C0473
:1010200064E670E080E090E00E9489040E944C0435
:10103000CE0101960E947104CE0149960E9471046E
:10104000CE0143960E947104CE010D960E94710458
:10105000CE0107960E9471040E94EA040E944C048B
:101060000E948F01FBCF8CE191E09093D00380939D
:10107000CF0380913003909131038F5C934071F4E2
:10108000E091E203F091E30390818091E403809585
:10109000892380831092310310923003089590E0E9
:1010A000FC01E859FF4F2491FC01E255FF4F3491B8
:1010B000FC01E656FF4FE491EE2309F43CC02223E5
:1010C00039F1233091F038F42130A9F0223001F5C4
:1010D00084B58F7D12C0273091F02830A1F02430E4
:1010E000B9F4809180008F7D03C0809180008F775C
:1010F000809380000DC084B58F7784BD09C0809136
:10110000B0008F7703C08091B0008F7D8093B000D6
:10111000F0E0EE0FFF1FE057FF4FA591B4919FB78E
:10112000F894611104C08C913095382302C0EC9181
:101130003E2B3C939FBF0895CF93DF9310923503CE
:101140001092340388EE93E0A0E0B0E08093360381
:1011500090933703A0933803B09339032AE031E02A
:10116000309333032093320325EC30E030933F0378
:1011700020933E0324EC30E030934103209340035E
:1011800020EC30E0309343032093420321EC30E025
:10119000309345032093440322EC30E0309347031F
:1011A0002093460326EC30E0309349032093480314
:1011B00010924B0310924C0310924D0310924E0369
:1011C0001092D2031092D1038093D3039093D4034F
:1011D000A093D503B093D6038CE191E09093D00314
:1011E0008093CF031092E6031092E5031092E80378
:1011F0001092E7031092EA031092E9031092EC03B5
:101200001092EB036091ED036E7F6D7F6093ED03B1
:101210006695617081E0682789E00E944F08E7EBDE
:10122000F0E02491E3EAF0E08491882399F090E0E3
:10123000880F991FFC01EA57FF4FA591B491FC015B
:10124000E057FF4F859194918FB7F894EC91E22B82
:10125000EC938FBFE7EBF0E0E491E093DF03E3EA88
:10126000F0E0E491F0E0EE0FFF1FE057FF4F8591B3
:1012700094919093E1038093E003E6EBF0E02491F6
:10128000E2EAF0E084918823C1F090E0880F991F92
:10129000FC01EA57FF4FC591D491FC01E057FF4F85
:1012A000A591B4919FB7F8948881E22FE0958E23A1
:1012B00088838C91E823EC939FBF8091ED0381FD9F
:1012C00004C061E088E00E944F0888E08093DB035F
:1012D000E6EBF0E0E491E093DC03E2EAF0E0E49195
:1012E000F0E0EE0FFF1FE458FF4F8591949190932B
:1012F000DE038093DD03DF91CF9108952F923F921B
:101300004F925F926F927F928F929F92AF92BF9215
:10131000CF92DF92EF92FF920F931F93CF93DF93C1
:10132000CDB7DEB7CA1BDB0B0FB6F894DEBF0FBE1E
:10133000CDBF09942A88398848885F846E847D846B
:101340008C849B84AA84B984C884DF80EE80FD806D
:101350000C811B81AA81B981CE0FD11D0FB6F894E3
:10136000DEBF0FBECDBFED01089597FB072E16F42B
:10137000009407D077FD09D00E94EB0907FC05D047
:101380003EF4909581959F4F0895709561957F4F9C
:101390000895A1E21A2EAA1BBB1BFD010DC0AA1FB6
:1013A000BB1FEE1FFF1FA217B307E407F50720F0CE
:1013B000A21BB30BE40BF50B661F771F881F991F49
:1013C0001A9469F760957095809590959B01AC0192
:1013D000BD01CF010895AA1BBB1B51E107C0AA1F85
:1013E000BB1FA617B70710F0A61BB70B881F991FC6
:1013F0005A95A9F780959095BC01CD010895EE0FFF
:10140000FF1F0590F491E02D09940F931F93CF9344
:10141000DF938230910510F482E090E0E091F903CF
:10142000F091FA0320E030E0A0E0B0E0309719F14D
:10143000408151810281138148175907C8F08417F0
:10144000950769F4109731F012960C931297139642
:101450001C9327C00093F9031093FA0322C02115AF
:10146000310519F04217530718F49A01BD01EF0135
:10147000DF01F801DBCF21153105F9F0281B390B0D
:101480002430310580F48A819B816115710521F03A
:10149000FB019383828304C09093FA038093F90342
:1014A000FE01329644C0FE01E20FF31F8193919337
:1014B00022503109398328833AC02091F7033091B3
:1014C000F803232B41F42091020130910301309362
:1014D000F8032093F70320910001309101012115B9
:1014E000310541F42DB73EB74091040150910501FB
:1014F000241B350BE091F703F091F803E217F30793
:10150000A0F42E1B3F0B2817390778F0AC014E5F73
:101510005F4F2417350748F04E0F5F1F5093F803B5
:101520004093F7038193919302C0E0E0F0E0CF0194
:10153000DF91CF911F910F910895CF93DF93009783
:1015400009F481C0FC01329713821282A091F90341
:10155000B091FA03109781F420813181820F931F9B
:101560002091F7033091F8032817390751F5F093CC
:10157000F803E093F70367C0ED0120E030E0CE17F9
:10158000DF0740F44A815B819E0141155105F1F06E
:10159000EA01F5CFD383C28340815181840F951F27
:1015A000C817D90759F488819981840F951F02962D
:1015B000918380838A819B81938382832115310566
:1015C00029F4F093FA03E093F9033DC0E901FB83AA
:1015D000EA8349915991C40FD51FEC17FD0761F4B7
:1015E00080819181840F951F0296E90199838883F8
:1015F000828193819B838A83E0E0F0E012968D9153
:101600009C911397009719F0FD01DC01F7CF8D91A4
:101610009C9111979D012E5F3F4F820F931F209148
:10162000F7033091F8032817390769F4309729F444
:101630001092FA031092F90302C013821282B0933F
:10164000F803A093F703DF91CF910895A0E0B0E0F5
:10165000ECE2FBE00C948209EC01009721F4CB0151
:101660000E94050AB4C0FC01E60FF71F9C0122503E
:101670003109E217F30708F4A8C0D9010D911C91B4
:10168000119706171707B0F00530110508F49BC035
:10169000C80104978617970708F495C002501109EE
:1016A000061B170B019311936D937C93CF010E943E
:1016B0009D0A89C05B01A01AB10A4C01800E911EDF
:1016C000A091F903B091FA03612C712CE12CF12C5B
:1016D000109709F446C08D919C911197A815B905F2
:1016E000B1F56C0142E0C40ED11CCA14DB0478F1E0
:1016F0004C018A189B08640142E0C40ED11C12966A
:10170000BC9012971396AC91B5E0CB16D10440F083
:10171000B282A38391828082D9016D937C9309C0A8
:101720000E5F1F4F800F911FF90191838083EB2D76
:10173000FA2FE114F10431F0D7011396FC93EE93E4
:10174000129741C0F093FA03E093F9033CC0681686
:10175000790608F43C017D0112960D90BC91A02DF4
:10176000B7CF8091F7039091F80388169906E1F4BA
:1017700066167706C8F480910001909101010097E8
:1017800041F48DB79EB74091040150910501841B2F
:10179000950BE817F907C8F4F093F803E093F70303
:1017A000F901718360830FC0CB010E94050A7C019F
:1017B000009759F0A801BE010E94F10BCE010E94D2
:1017C0009D0AC70104C0CE0102C080E090E0CDB701
:1017D000DEB7EEE00C949E0981E090E0F8940C9462
:1017E000010CFB01DC0102C001900D924150504000
:1017F000D8F70895FB01DC0101900D920020E1F77C
:10180000089510E0C2E6D0E004C0FE010E94FF0986
:0C1810002196C336D107C9F7F894FFCF2A
:10181C000000FB0380000000000020018D00B700D9
:10182C006D01E800C600DA0000000000B2018D0076
:10183C003C02B10102021A029901536B6574636890
:10184C003A202020002F686F6D652F68616E6469E7
:10185C006B6F2F41726475696E6F2D457870657270
:10186C00696D656E742F4A44592D30385F5365721B
:10187C0069616C2F4A44592D30385F536572696128
:10188C006C2E696E6F0055706C6F616465643A20E4
:10189C00004A616E203132203230313900425473AB
:1018AC00657269616C207374617274656420617413
:1018BC00200068616E64696B6F000D0A3E207365D1
:1018CC006E64696E6720636F6D6D616E64203A2083
:1018DC0041542B4E414D45000D0A3E2073656E64FC
:1018EC00696E6720636F6D6D616E64203A204154A0
:1018FC002B4D41524A3078000D0A3E2073656E64C0
:10190C00696E6720636F6D6D616E64203A2041547F
:10191C002B4D494E4F3078003041314232433344E5
:10192C0000303141423233434400313233343536A6
:10193C003738003734323738424441000D0A3E20E4
:10194C0073656E64696E6720636F6D6D616E642084
:10195C003A2041542B49424530000D0A3E20736514
:10196C006E64696E6720636F6D6D616E64203A20E2
:10197C0041542B49424531000D0A3E2073656E647B
:10198C00696E6720636F6D6D616E64203A204154FF
:10199C002B49424532000D0A3E2073656E64696E18
:1019AC006720636F6D6D616E64203A2041542B4942
:1019BC00424533000D0A3E2073656E64696E6720E4
:1019CC00636F6D6D616E64203A204154200D0A00E6
:1019DC004154000D0A3E2073656E64696E67206386
:1019EC006F6D6D616E64203A2041542B5245534506
:0E19FC0054200D0A0041542B5245534554000F
:107E0000112484B714BE81FFF0D085E080938100F7
:107E100082E08093C00088E18093C10086E0809377
:107E2000C20080E18093C4008EE0C9D0259A86E02C
:107E300020E33CEF91E0309385002093840096BBD3
:107E4000B09BFECF1D9AA8958150A9F7CC24DD24C4
:107E500088248394B5E0AB2EA1E19A2EF3E0BF2EE7
:107E6000A2D0813461F49FD0082FAFD0023811F036
:107E7000013811F484E001C083E08DD089C08234E0
:107E800011F484E103C0853419F485E0A6D080C0E4
:107E9000853579F488D0E82EFF2485D0082F10E0AE
:107EA000102F00270E291F29000F111F8ED06801E7
:107EB0006FC0863521F484E090D080E0DECF843638
:107EC00009F040C070D06FD0082F6DD080E0C81688
:107ED00080E7D80618F4F601B7BEE895C0E0D1E017
:107EE00062D089930C17E1F7F0E0CF16F0E7DF06D8
:107EF00018F0F601B7BEE89568D007B600FCFDCFD4
:107F0000A601A0E0B1E02C9130E011968C91119780
:107F100090E0982F8827822B932B1296FA010C0160
:107F200087BEE89511244E5F5F4FF1E0A038BF0790
:107F300051F7F601A7BEE89507B600FCFDCF97BE46
:107F4000E89526C08437B1F42ED02DD0F82E2BD052
:107F50003CD0F601EF2C8F010F5F1F4F84911BD097
:107F6000EA94F801C1F70894C11CD11CFA94CF0C13
:107F7000D11C0EC0853739F428D08EE10CD085E9AC
:107F80000AD08FE07ACF813511F488E018D01DD067
:107F900080E101D065CF982F8091C00085FFFCCF94
:107FA0009093C60008958091C00087FFFCCF809118
:107FB000C00084FD01C0A8958091C6000895E0E648
:107FC000F0E098E1908380830895EDDF803219F02E
:107FD00088E0F5DFFFCF84E1DECF1F93182FE3DFCA
:107FE0001150E9F7F2DF1F91089580E0E8DFEE27F6
:047FF000FF270994CA
:027FFE00040479
:0400000300007E007B
:00000001FF
