:100000000C9463000C948B000C948B000C943C05B6
:100010000C943C050C943C050C948B000C948B00C8
:100020000C948B000C948B000C948B000C948B0024
:100030000C948B000C948B000C948B000C948B0014
:100040000C949A040C948B000C940A050C94E40410
:100050000C948B000C948B000C948B000C948B00F4
:100060000C948B000C948B0000000008000201002F
:100070000003040700000000000000000000000072
:1000800023002600290000000000240027002A0089
:1000900000000000250028002B00040404040404D0
:1000A0000404020202020202030303030303010227
:1000B00004081020408001020408102001020408F6
:1000C000102003061D0A11241FBECFEFD8E0DEBFAB
:1000D000CDBF24E0A4E8B3E001C01D92A139B2076E
:1000E000E1F713E0A0E0B1E0E2E9F9E102C0059038
:1000F0000D92A438B107D9F710E0C2E6D0E004C0F1
:100100002197FE010E94BA0AC136D107C9F70E94A1
:10011000E5060C94BC0C0C9400003FB7F894809159
:10012000CD039091CE03A091CF03B091D00326B51B
:10013000A89B05C02F3F19F00196A11DB11D3FBF1F
:10014000BA2FA92F982F8827820F911DA11DB11DAD
:10015000BC01CD0142E0660F771F881F991F4A95A9
:10016000D1F708958F929F92AF92BF92CF92DF9274
:10017000EF92FF926B017C010E948D004B015C01AC
:10018000C114D104E104F104F1F00E948D00DC01FE
:10019000CB0188199909AA09BB09883E9340A1059A
:1001A000B10570F321E0C21AD108E108F10888EE28
:1001B000880E83E0981EA11CB11CC114D104E10477
:1001C000F10419F7DDCFFF90EF90DF90CF90BF9053
:1001D000AF909F908F900895DB0114964D915C91A4
:1001E00015976D917C91DC01ED91FC910280F3817A
:1001F000E02D0994CF92DF92EF92FF920F931F931D
:10020000CF93DF936C017A018B01C0E0D0E0CE1573
:10021000DF0581F0D8016D918D01D601ED91FC9142
:100220000190F081E02DC6010995892B11F02196EE
:10023000EECF7E01C701DF91CF911F910F91FF900B
:10024000EF90DF90CF900895FC01538D448D252FC2
:1002500030E0842F90E0821B930B541710F0CF9660
:10026000089501970895FC01918D828D981761F092
:10027000828DDF01A80FB11D5D968C91928D9F5FDD
:100280009F73928F90E008958FEF9FEF0895FC0188
:10029000918D828D981731F0828DE80FF11D858D3B
:1002A00090E008958FEF9FEF0895FC01918D228DCE
:1002B000892F90E0805C9F4F821B91098F73992753
:1002C000089581ED93E00E94550121E0892B09F406
:1002D00020E0822F0895FC01848DDF01A80FB11D5D
:1002E000A35ABF4F2C91848D90E001968F7399276C
:1002F000848FA689B7892C93A089B1898C9183704A
:1003000080648C93938D848D981306C00288F38942
:10031000E02D80818F7D80830895EF92FF920F936F
:100320001F93CF93DF93EC0181E0888F9B8D8C8DA1
:10033000981305C0E889F989808185FD26C0F62ECD
:100340000B8D10E00F5F1F4F0F731127E02E8C8D68
:10035000E8120CC00FB607FCFACFE889F989808152
:1003600085FFF5CFCE010E946B01F1CF8B8DFE0191
:10037000E80FF11DE35AFF4FF0829FB7F8940B8FFF
:10038000EA89FB89808180620AC09FB7F894EE8970
:10039000FF896083E889F989808183708064808324
:1003A0009FBF81E090E0DF91CF911F910F91FF906F
:1003B000EF900895CF93DF93EC01888D8823C9F0E7
:1003C000EA89FB89808185FD05C0A889B9898C915E
:1003D00086FD0FC00FB607FCF5CF808185FFF2CFF9
:1003E000A889B9898C9185FFEDCFCE010E946B0160
:1003F000E7CFDF91CF91089580E090E0892B29F03D
:100400000E94610181110C94000008952091C6039F
:100410003091C7032817390771F49091C403809174
:10042000C503981741F0E091C403F0E0EC57FC4F8E
:10043000808190E008958FEF9FEF089508951F93B6
:10044000CF93DF93DC015C968D919C915D97009733
:1004500039F421E030E013963C932E9312973BC081
:100460005196ED91FC91529750962C915097322FC6
:1004700030951FB75E964C915E97742F727041FD58
:100480006095F8944081772311F0422B01C04323FB
:100490004083EC012197F1F748E0508160FF02C0F2
:1004A000522B01C053235083EC012197F1F766953D
:1004B000415099F78081772319F08323808302C00C
:1004C000282B20831FBF5C968D919C915D9701978F
:1004D000F1F781E090E0DF91CF911F910895209195
:1004E000C6033091C7032817390771F48091C503FB
:1004F0002091C40390E0805C9F4F821B910960E4CF
:1005000070E00E94700A089580E090E008952091C4
:10051000C6033091C70328173907B9F49091C40373
:100520008091C503981789F0E091C403F0E0EC577F
:10053000FC4F80812091C40330E02F5F3F4F2F7329
:1005400033272093C40390E008958FEF9FEF089521
:100550008EE694E00E946F021816190654F48EE697
:1005600094E00E948702682F81ED93E00E948D0144
:10057000EFCF0895CF93DF93EC010E94A8020E9471
:10058000A802BE01DD0F880B990B0E94B200DF911B
:10059000CF910C94A802089580E090E00895FC01AA
:1005A000808191810C94580B0E94A70C0F931F938C
:1005B000CF93DF93EC0188819981009729F02A81FC
:1005C0003B812617370788F48B016F5F7F4F0E94AE
:1005D000E10B009761F0998388831B830A832C8148
:1005E0003D81232B11F4FC01108281E001C080E0E9
:1005F000DF91CF911F910F910895EF92FF920F938A
:100600001F93CF93DF93EC01198218821B821A8209
:100610001D821C828617970741F1FB010081118121
:100620000115110511F1E480F580B7010E94D60291
:100630002881398181110DC02115310519F0C901B9
:100640000E94580B198218821D821C821B821A82FA
:100650000CC0FD82EC82B801C901DF91CF911F91DE
:100660000F91FF90EF900C94B50CDF91CF911F91FB
:100670000F91FF90EF900895EF92FF920F931F93C9
:10068000CF93DF93EC01198218821B821A821D829C
:100690001C826115710549F18B01FB01019000205D
:1006A000E9F731977F01E61AF70AB7010E94D602EF
:1006B0002881398181110DC02115310519F0C90139
:1006C0000E94580B198218821D821C821B821A827A
:1006D0000CC0FD82EC82B801C901DF91CF911F915E
:1006E0000F91FF90EF900C94B50CDF91CF911F917B
:1006F0000F91FF90EF9008956115710579F0FB015E
:1007000001900020E9F73197AF01461B570BDC0140
:10071000ED91FC910280F381E02D099480E090E05E
:100720000895CF93DF93BC0181ED93E00E94EC002C
:10073000EC0163E471E081ED93E00E947C038C0F97
:100740009D1FDF91CF910895CF93DF93BC0181ED81
:1007500093E00E947C03EC0163E471E081ED93E09F
:100760000E947C038C0F9D1FDF91CF9108958F9283
:100770009F92AF92BF92EF92FF920F931F93CF93EE
:10078000DF93CDB7DEB7A1970FB6F894DEBF0FBEEB
:10079000CDBF7C01FA01CB0119A2223008F42AE076
:1007A0008E010F5D1F4F822E912CA12CB12CBF0109
:1007B000A50194010E94840AF901CA01015011099E
:1007C0006A3014F4605D01C0695CD8016C93232B1E
:1007D000242B252B61F7B801C7010E947C03A19649
:1007E0000FB6F894DEBF0FBECDBFDF91CF911F9142
:1007F0000F91FF90EF90BF90AF909F908F900895D2
:10080000CF92DF92EF92FF920F931F93CF93DF93DC
:100810004115510579F4DC01ED91FC910190F081D5
:10082000E02DDF91CF911F910F91FF90EF90DF901E
:10083000CF9009946B01770FEE08FF084A305105FD
:1008400019F5F7FE1FC0EC01E881F9810190F081F4
:10085000E02D6DE209958C0144275527BA014C190A
:100860005D096E097F092AE0CE010E94B703800F5F
:10087000911FDF91CF911F910F91FF90EF90DF902B
:10088000CF9008952AE001C0242FB701A601DF917F
:10089000CF911F910F91FF90EF90DF90CF900C942C
:1008A000B703CF93DF93AB01BC0181ED93E00E94CE
:1008B0000004EC0163E471E081ED93E00E947C03AD
:1008C0008C0F9D1FDF91CF9108950C947C03CF93E3
:1008D00081ED93E00E94DA016AE271E081ED93E03C
:1008E0000E946504C5E066E471E08EE694E00E9433
:1008F000650464E670E080E090E00E94B200C150C0
:1009000091F784E690E0CF910C94BA0281ED93E0E8
:100910000E94DA0169E471E081ED93E00E946504D0
:100920006BE671E08EE694E00E94650488EE93E049
:100930000C94BA021F920F920FB60F9211242F93AC
:100940003F938F939F93AF93BF938091C9039091EF
:10095000CA03A091CB03B091CC033091C80323E02C
:10096000230F2D3720F40196A11DB11D05C026E8E7
:10097000230F0296A11DB11D2093C8038093C903C4
:100980009093CA03A093CB03B093CC038091CD0383
:100990009091CE03A091CF03B091D0030196A11DF9
:1009A000B11D8093CD039093CE03A093CF03B0935A
:1009B000D003BF91AF919F918F913F912F910F9055
:1009C0000FBE0F901F9018951F920F920FB60F92A7
:1009D00011242F933F934F935F936F937F938F9344
:1009E0009F93AF93BF93EF93FF9381ED93E00E94AA
:1009F0006B01FF91EF91BF91AF919F918F917F918B
:100A00006F915F914F913F912F910F900FBE0F907B
:100A10001F9018951F920F920FB60F9211242F93CB
:100A20008F939F93EF93FF93E091E103F091E203A3
:100A30008081E091E703F091E80382FD12C090818C
:100A40008091EA038F5F8F732091EB03821751F03F
:100A5000E091EA03F0E0EF52FC4F958F8093EA03B8
:100A600001C08081FF91EF919F918F912F910F9005
:100A70000FBE0F901F9018951F920F920FB60F92F6
:100A800011242F933F934F935F936F937F938F9393
:100A90009F93AF93BF93EF93FF93E091C603F091C1
:100AA000C703309709F451C0968DA685B785858513
:100AB00091FF04C09C91892329F447C09C9189230C
:100AC00009F043C0A389B4899C91858980958923C5
:100AD0008C93868997890197F1F7608D718DA68532
:100AE000B785558538E020E0CB010197F1F7822FDB
:100AF00090E095958795282F4C91452309F0206823
:100B0000315091F7868D81FD20958091C50390E04D
:100B100001968F7399273091C403381749F0A0913B
:100B2000C503B0E0AC57BC4F2C938093C50303C002
:100B3000868D8160868F828D938D0197F1F7A389D1
:100B4000B4899C918589892B8C93FF91EF91BF91FA
:100B5000AF919F918F917F916F915F914F913F9155
:100B60002F910F900FBE0F901F90189590E0FC01F1
:100B7000E859FF4F2491FC01E255FF4F3491FC01ED
:100B8000E656FF4FE491EE2309F43CC0222339F1ED
:100B9000233091F038F42130A9F0223001F584B5EA
:100BA0008F7D12C0273091F02830A1F02430B9F4A5
:100BB000809180008F7D03C0809180008F7780932B
:100BC00080000DC084B58F7784BD09C08091B000CE
:100BD0008F7703C08091B0008F7D8093B000F0E0EC
:100BE000EE0FFF1FE057FF4FA591B4919FB7F89408
:100BF000611104C08C913095382302C0EC913E2BDA
:100C00003C939FBF0895CF93DF931092D40310922B
:100C1000D30388EE93E0A0E0B0E08093D5039093F7
:100C2000D603A093D703B093D8032AE031E03093E2
:100C3000D2032093D10325EC30E03093DE032093E0
:100C4000DD0324EC30E03093E0032093DF0320EC5D
:100C500030E03093E2032093E10321EC30E0309365
:100C6000E4032093E30322EC30E03093E603209387
:100C7000E50326EC30E03093E8032093E70310927D
:100C8000EA031092EB031092EC031092ED03109222
:100C90007104109270048093720490937304A09373
:100CA0007404B09375048CE191E090936F04809389
:100CB0006E0410928504109284041092870410929E
:100CC0008604109289041092880410928B0410926A
:100CD0008A0460918C046E7F6D7F60938C046695AE
:100CE000617081E0682789E00E94B605E7EBF0E0DB
:100CF0002491E3EAF0E08491882399F090E0880F52
:100D0000991FFC01EA57FF4FA591B491FC01E057F0
:100D1000FF4F859194918FB7F894EC91E22BEC936F
:100D20008FBFE7EBF0E0E491E0937E04E3EAF0E0CC
:100D3000E491F0E0EE0FFF1FE057FF4F8591949193
:100D40009093800480937F04E6EBF0E02491E2EA44
:100D5000F0E084918823C1F090E0880F991FFC0196
:100D6000EA57FF4FC591D491FC01E057FF4FA59181
:100D7000B4919FB7F8948881E22FE0958E23888301
:100D80008C91E823EC939FBF80918C0481FD04C07B
:100D900061E088E00E94B60588E080937A04E6EB83
:100DA000F0E0E491E0937B04E2EAF0E0E491F0E02B
:100DB000EE0FFF1FE458FF4F8591949190937D04AF
:100DC00080937C04DF91CF910895CF93DF93CDB7CB
:100DD000DEB76E970FB6F894DEBF0FBECDBF789426
:100DE00084B5826084BD84B5816084BD85B5826030
:100DF00085BD85B5816085BD80916E0081608093E1
:100E00006E00109281008091810082608093810049
:100E10008091810081608093810080918000816059
:100E2000809380008091B10084608093B1008091B4
:100E3000B00081608093B00080917A0084608093DC
:100E40007A0080917A00826080937A0080917A00A3
:100E5000816080937A0080917A00806880937A0024
:100E60001092C100E091E103F091E20382E08083FF
:100E7000E091DD03F091DE031082E091DF03F09159
:100E8000E00380E180831092E903E091E503F091B3
:100E9000E60386E08083E091E303F091E403808140
:100EA00080618083E091E303F091E40380818860B6
:100EB0008083E091E303F091E40380818068808384
:100EC000E091E303F091E40380818F7D808364E708
:100ED00071E081ED93E00E9465048FE791E00E944C
:100EE000A40360EC71E081ED93E00E9465048BEC5B
:100EF00091E00E94A4038DE791E00E94A403109268
:100F0000890410928804109287041092860410922B
:100F10008504109284048DE991E090938B04809372
:100F20008A0490917A04963108F058C02DEB30E095
:100F300030938504209384042BE931E030938704B7
:100F4000209386042CE231E03093890420938804B6
:100F500040916800983058F031E09E3008F430E05D
:100F600021E0822F01C0880F3A95EAF701C084E0A2
:100F7000842B80936800983038F09E3040F0963192
:100F800048F020E030E008C02DE630E005C02BE658
:100F900030E002C02CE630E03093820420938104DC
:100FA000983030F481E001C0880F9A95EAF70EC0BE
:100FB000292F30E09E3018F42850310902C02E50FD
:100FC000310981E001C0880F2A95EAF780938304F4
:100FD00080918A0490918B040197F1F780918804A5
:100FE00090918904892B49F1E091C603F091C703E0
:100FF00084E0EE36F80709F1309739F0A389B48917
:101000009C918589809589238C9380918C048E7F17
:1010100080938C041092C5031092C4038EE694E072
:101020009093C7038093C603E0918104F0918204FA
:10103000908180918304892B808367ED71E081ED3D
:1010400093E00E9465046AE070E080E895E20E9407
:1010500051040E9467040E9486040E9467046CEE9B
:1010600071E0CE0101960E943C0381ED93E00E9465
:10107000DA0164EF71E081ED93E00E946504CE0136
:1010800001960E9491036AE072E08EE694E00E946D
:101090006504BE016F5F7F4F8EE694E00E94EC0016
:1010A00084E690E00E94BA02CE0101960E94CF022F
:1010B00081ED93E00E94DA0162E172E081ED93E05C
:1010C0000E94650460E170E089E390E30E945104AE
:1010D00068E272E08EE694E00E94650440E150E030
:1010E00069E370E38EE694E00E94000484E690E0F9
:1010F0000E94BA0281ED93E00E94DA0162E372E09D
:1011000081ED93E00E94650460E170E080EA9BE578
:101110000E94510468E472E08EE694E00E94650447
:1011200040E150E060EA7BE58EE694E00E94000436
:1011300084E690E00E94BA0262E572E0CE01079672
:101140000E943C036BE572E0CE010D960E943C03C9
:1011500064E672E0CE0143960E943C036DE672E0C5
:10116000CE0149960E943C03BE01675E7F4FCE01CF
:1011700001960E94FD0281ED93E00E94DA0166E78C
:1011800072E081ED93E00E946504CE0101960E9419
:1011900091036CE872E08EE694E00E946504BE0163
:1011A0006F5F7F4F8EE694E00E94EC0084E690E053
:1011B0000E94BA02CE0101960E94CF02BE016D5E6E
:1011C0007F4FCE0101960E94FD0281ED93E00E94C7
:1011D000DA0164E972E081ED93E00E946504CE01DA
:1011E00001960E9491036AEA72E08EE694E00E9402
:1011F0006504BE016F5F7F4F8EE694E00E94EC00B5
:1012000084E690E00E94BA02CE0101960E94CF02CD
:10121000BE01635F7F4FCE0101960E94FD0281ED0A
:1012200093E00E94DA0162EB72E081ED93E00E94AC
:101230006504CE0101960E94910368EC72E08EE68F
:1012400094E00E946504BE016F5F7F4F8EE694E0DC
:101250000E94EC0084E690E00E94BA02CE01019662
:101260000E94CF02BE01695F7F4FCE0101960E94AE
:10127000FD0281ED93E00E94DA0160ED72E081ED04
:1012800093E00E946504CE0101960E94910366EEF0
:1012900072E08EE694E00E946504BE016F5F7F4FAE
:1012A0008EE694E00E94EC0084E690E00E94BA0290
:1012B000CE0101960E94CF02CE0149960E94CF0234
:1012C000CE0143960E94CF02CE010D960E94CF021E
:1012D000CE0107960E94CF0281ED93E00E94DA01D1
:1012E0006EEE72E081ED93E00E9465046AE070E0CA
:1012F00083E090E00E94510464E073E08EE694E0A5
:101300000E9465044AE050E063E070E08EE694E0FD
:101310000E94000484E690E00E94BA0281ED93E00E
:101320000E94DA016CE073E081ED93E00E946504B5
:101330006AE070E085E090E00E94510462E273E0B0
:101340008EE694E00E9465044AE050E065E070E0BB
:101350008EE694E00E94000484E690E00E94BA02C7
:1013600081ED93E00E94DA016AE273E081ED93E09F
:101370000E9465046AE070E082E090E00E945104FF
:1013800060E473E08EE694E00E9465044AE050E079
:1013900062E070E08EE694E00E94000484E690E053
:1013A0000E94BA0281ED93E00E94DA0168E473E0E2
:1013B00081ED93E00E9465046AE070E081E090E0D6
:1013C0000E9451046EE573E08EE694E00E9465048D
:1013D0004AE050E061E070E08EE694E00E94000494
:1013E00084E690E00E94BA0281ED93E00E94DA0167
:1013F00066E673E081ED93E00E9465046AE070E0C8
:1014000081E090E00E9451046CE773E08EE694E086
:101410000E9465044AE050E061E070E08EE694E0EE
:101420000E94000484E690E00E94BA020E948604B2
:101430000E94A8020E94FC01FBCF8CE191E09093F6
:101440006F0480936E048091C6039091C7038E56FB
:10145000944071F4E0918104F09182049081809134
:1014600083048095892380831092C7031092C6035A
:1014700008952F923F924F925F926F927F928F9238
:101480009F92AF92BF92CF92DF92EF92FF920F9313
:101490001F93CF93DF93CDB7DEB7CA1BDB0B0FB61D
:1014A000F894DEBF0FBECDBF09942A8839884888DA
:1014B0005F846E847D848C849B84AA84B984C88470
:1014C000DF80EE80FD800C811B81AA81B981CE0F67
:1014D000D11D0FB6F894DEBF0FBECDBFED0108954C
:1014E00097FB072E16F4009407D077FD09D00E94D1
:1014F000A60A07FC05D03EF4909581959F4F08956C
:10150000709561957F4F0895A1E21A2EAA1BBB1B0F
:10151000FD010DC0AA1FBB1FEE1FFF1FA217B307BF
:10152000E407F50720F0A21BB30BE40BF50B661FD5
:10153000771F881F991F1A9469F760957095809599
:1015400090959B01AC01BD01CF010895AA1BBB1B67
:1015500051E107C0AA1FBB1FA617B70710F0A61BB3
:10156000B70B881F991F5A95A9F780959095BC01D4
:10157000CD010895EE0FFF1F0590F491E02D099421
:101580000F931F93CF93DF938230910510F482E085
:1015900090E0E0918F04F091900420E030E0A0E032
:1015A000B0E0309719F140815181028113814817D1
:1015B0005907C8F08417950769F4109731F012960F
:1015C0000C93129713961C9327C000938F041093CB
:1015D000900422C02115310519F04217530718F461
:1015E0009A01BD01EF01DF01F801DBCF21153105C3
:1015F000F9F0281B390B2430310580F48A819B8156
:101600006115710521F0FB019383828304C09093DF
:10161000900480938F04FE01329644C0FE01E20FD5
:10162000F31F8193919322503109398328833AC063
:1016300020918D0430918E04232B41F420910201DE
:101640003091030130938E0420938D04209100018A
:10165000309101012115310541F42DB73EB740917C
:10166000040150910501241B350BE0918D04F0918C
:101670008E04E217F307A0F42E1B3F0B281739073F
:1016800078F0AC014E5F5F4F2417350748F04E0FDE
:101690005F1F50938E0440938D048193919302C0F9
:1016A000E0E0F0E0CF01DF91CF911F910F9108951D
:1016B000CF93DF93009709F481C0FC013297138226
:1016C0001282A0918F04B0919004109781F4208130
:1016D0003181820F931F20918D0430918E04281741
:1016E000390751F5F0938E04E0938D0467C0ED0146
:1016F00020E030E0CE17DF0740F44A815B819E0195
:1017000041155105F1F0EA01F5CFD383C283408141
:101710005181840F951FC817D90759F48881998181
:10172000840F951F0296918380838A819B81938386
:1017300082832115310529F4F0939004E0938F04FE
:101740003DC0E901FB83EA8349915991C40FD51F3C
:10175000EC17FD0761F480819181840F951F02963B
:10176000E90199838883828193819B838A83E0E066
:10177000F0E012968D919C911397009719F0FD015E
:10178000DC01F7CF8D919C9111979D012E5F3F4F0A
:10179000820F931F20918D0430918E0428173907F2
:1017A00069F4309729F41092900410928F0402C0CB
:1017B00013821282B0938E04A0938D04DF91CF9197
:1017C0000895A0E0B0E0E7EEFBE00C943D0AEC01E8
:1017D000009721F4CB010E94C00AB4C0FC01E60FBF
:1017E000F71F9C0122503109E217F30708F4A8C043
:1017F000D9010D911C91119706171707B0F005300C
:10180000110508F49BC0C80104978617970708F4D0
:1018100095C002501109061B170B019311936D938C
:101820007C93CF010E94580B89C05B01A01AB10ABA
:101830004C01800E911EA0918F04B0919004612CF8
:10184000712CE12CF12C109709F446C08D919C91DC
:101850001197A815B905B1F56C0142E0C40ED11C71
:10186000CA14DB0478F14C018A189B08640142E039
:10187000C40ED11C1296BC9012971396AC91B5E091
:10188000CB16D10440F0B282A38391828082D90129
:101890006D937C9309C00E5F1F4F800F911FF9015C
:1018A00091838083EB2DFA2FE114F10431F0D701FD
:1018B0001396FC93EE93129741C0F0939004E0933B
:1018C0008F043CC06816790608F43C017D0112962D
:1018D0000D90BC91A02DB7CF80918D0490918E0476
:1018E00088169906E1F466167706C8F4809100011F
:1018F00090910101009741F48DB79EB7409104018A
:1019000050910501841B950BE817F907C8F4F09373
:101910008E04E0938D04F901718360830FC0CB01C5
:101920000E94C00A7C01009759F0A801BE010E94E4
:10193000AC0CCE010E94580BC70104C0CE0102C0FE
:1019400080E090E0CDB7DEB7EEE00C94590A81E07C
:1019500090E0F8940C94BC0CFB01DC0102C00190F7
:101960000D9241505040D8F70895FB01DC010190E1
:101970000D920020E1F7089510E0C2E6D0E004C027
:10198000FE010E94BA0A2196C336D107C9F7F8941E
:02199000FFCF87
:10199200000091048000000000008D01FA00240183
:1019A200DA01550133014701000000001F02FA006D
:1019B200CC021E026F02870206020D0A3E207365E8
:1019C2006E64696E6720636F6D6D616E64203A208C
:1019D2004154200D0A004154000D0A3E2073656EE9
:1019E20064696E6720636F6D6D616E64203A204199
:1019F200542B5245534554200D0A0041542B524555
:101A020053455400536B657463683A202020002FBD
:101A1200686F6D652F68616E64696B6F2F417264C8
:101A220075696E6F2D4578706572696D656E742F7C
:101A32004A44592D30385F53657269616C2F4A44AC
:101A4200592D30385F53657269616C2E696E6F0073
:101A520055706C6F616465643A20004A616E203192
:101A620032203230313900425473657269616C2020
:101A720073746172746564206174200068616E64BD
:101A8200696B6F000D0A3E2073656E64696E672094
:101A9200636F6D6D616E64203A2041542B4E414D4F
:101AA20045000D0A3E2073656E64696E6720636FA0
:101AB2006D6D616E64203A2041542B4D41524A3083
:101AC20078000D0A3E2073656E64696E6720636F4D
:101AD2006D6D616E64203A2041542B4D494E4F305A
:101AE2007800304131423243334400303141423296
:101AF20033434400313233343536373800373432E9
:101B02003738424441000D0A3E2073656E64696EA7
:101B12006720636F6D6D616E64203A2041542B49DA
:101B2200424530000D0A3E2073656E64696E67207F
:101B3200636F6D6D616E64203A2041542B494245BA
:101B420031000D0A3E2073656E64696E6720636F13
:101B52006D6D616E64203A2041542B49424532003A
:101B62000D0A3E2073656E64696E6720636F6D6D4A
:101B7200616E64203A2041542B49424533000D0ADC
:101B82003E2073656E64696E6720636F6D6D616E72
:101B920064203A2041542B41445459000D0A3E20FE
:101BA20073656E64696E6720636F6D6D616E64202C
:101BB2003A2041542B41445649000D0A3E20736598
:101BC2006E64696E6720636F6D6D616E64203A208A
:101BD20041542B504F5745000D0A3E2073656E64E9
:101BE200696E6720636F6D6D616E64203A204154A7
:101BF2002B5057524D000D0A3E2073656E64696E7C
:101C02006720636F6D6D616E64203A2041542B49E9
:041C12004245410006
:107E0000112484B714BE81FFF0D085E080938100F7
:107E100082E08093C00088E18093C10086E0809377
:107E2000C20080E18093C4008EE0C9D0259A86E02C
:107E300020E33CEF91E0309385002093840096BBD3
:107E4000B09BFECF1D9AA8958150A9F7CC24DD24C4
:107E500088248394B5E0AB2EA1E19A2EF3E0BF2EE7
:107E6000A2D0813461F49FD0082FAFD0023811F036
:107E7000013811F484E001C083E08DD089C08234E0
:107E800011F484E103C0853419F485E0A6D080C0E4
:107E9000853579F488D0E82EFF2485D0082F10E0AE
:107EA000102F00270E291F29000F111F8ED06801E7
:107EB0006FC0863521F484E090D080E0DECF843638
:107EC00009F040C070D06FD0082F6DD080E0C81688
:107ED00080E7D80618F4F601B7BEE895C0E0D1E017
:107EE00062D089930C17E1F7F0E0CF16F0E7DF06D8
:107EF00018F0F601B7BEE89568D007B600FCFDCFD4
:107F0000A601A0E0B1E02C9130E011968C91119780
:107F100090E0982F8827822B932B1296FA010C0160
:107F200087BEE89511244E5F5F4FF1E0A038BF0790
:107F300051F7F601A7BEE89507B600FCFDCF97BE46
:107F4000E89526C08437B1F42ED02DD0F82E2BD052
:107F50003CD0F601EF2C8F010F5F1F4F84911BD097
:107F6000EA94F801C1F70894C11CD11CFA94CF0C13
:107F7000D11C0EC0853739F428D08EE10CD085E9AC
:107F80000AD08FE07ACF813511F488E018D01DD067
:107F900080E101D065CF982F8091C00085FFFCCF94
:107FA0009093C60008958091C00087FFFCCF809118
:107FB000C00084FD01C0A8958091C6000895E0E648
:107FC000F0E098E1908380830895EDDF803219F02E
:107FD00088E0F5DFFFCF84E1DECF1F93182FE3DFCA
:107FE0001150E9F7F2DF1F91089580E0E8DFEE27F6
:047FF000FF270994CA
:027FFE00040479
:0400000300007E007B
:00000001FF
