:100000000C9463000C948B000C948B000C94AE0346
:100010000C94AE030C94AE030C948B000C948B00E8
:100020000C948B000C948B000C948B000C948B0024
:100030000C948B000C948B000C948B000C948B0014
:100040000C94A8020C948B000C947C030C94560323
:100050000C948B000C948B000C948B000C948B00F4
:100060000C948B000C948B0000000008000201002F
:100070000003040700000000000000000000000072
:1000800023002600290000000000240027002A0089
:1000900000000000250028002B00040404040404D0
:1000A0000404020202020202030303030303010227
:1000B00004081020408001020408102001020408F6
:1000C0001020A90A400A11241FBECFEFD8E0DEBFDE
:1000D000CDBF14E0A0E0B1E0E2E6F3E202C005909B
:1000E0000D92A837B107D9F725E0A8E7B4E001C021
:1000F0001D92A938B207E1F710E0C2E6D0E004C0D3
:100100002197FE010E94EF0CC136D107C9F70E946A
:100110001A070C94A4110C940000CF92DF92EF9276
:10012000FF920F931F93CF93DF936C017A018B01A2
:10013000C0E0D0E0CE15DF0581F0D8016D918D01D2
:10014000D601ED91FC910190F081E02DC601099559
:10015000892B11F02196EECF7E01C701DF91CF915F
:100160001F910F91FF90EF90DF90CF900895FC01C9
:10017000538D448D252F30E0842F90E0821B930B0C
:10018000541710F0CF96089501970895FC01918DB2
:10019000828D981761F0828DDF01A80FB11D5D96E9
:1001A0008C91928D9F5F9F73928F90E008958FEF57
:1001B0009FEF0895FC01918D828D981731F0828D0B
:1001C000E80FF11D858D90E008958FEF9FEF089562
:1001D000FC01918D228D892F90E0805C9F4F821BC6
:1001E00091098F739927089589EC94E00E94E800A3
:1001F00021E0892B09F420E0822F0895FC01848DF1
:10020000DF01A80FB11DA35ABF4F2C91848D90E040
:1002100001968F739927848FA689B7892C93A0891B
:10022000B1898C91837080648C93938D848D9813A5
:1002300006C00288F389E02D80818F7D8083089538
:10024000EF92FF920F931F93CF93DF93EC0181E026
:10025000888F9B8D8C8D981305C0E889F9898081E2
:1002600085FD26C0F62E0B8D10E00F5F1F4F0F731C
:100270001127E02E8C8DE8120CC00FB607FCFACFC8
:10028000E889F989808185FFF5CFCE010E94FE00C3
:10029000F1CF8B8DFE01E80FF11DE35AFF4FF08285
:1002A0009FB7F8940B8FEA89FB89808180620AC02E
:1002B0009FB7F894EE89FF896083E889F989808186
:1002C0008370806480839FBF81E090E0DF91CF9155
:1002D0001F910F91FF90EF900895CF93DF93EC0162
:1002E000888D8823C9F0EA89FB89808185FD05C056
:1002F000A889B9898C9186FD0FC00FB607FCF5CF90
:10030000808185FFF2CFA889B9898C9185FFEDCFD7
:10031000CE010E94FE00E7CFDF91CF91089580E0EB
:1003200090E0892B29F00E94F40081110C940000C8
:1003300008952091BA043091BB042817390771F44D
:100340009091B8048091B904981741F0E091B804F5
:10035000F0E0E858FB4F808190E008958FEF9FEF29
:10036000089508951F93CF93DF93DC015C968D91E0
:100370009C915D97009739F421E030E013963C930F
:100380002E9312973BC05196ED91FC915297509647
:100390002C915097322F30951FB75E964C915E97F7
:1003A000742F727041FD6095F8944081772311F0AD
:1003B000422B01C043234083EC012197F1F748E031
:1003C000508160FF02C0522B01C053235083EC01C7
:1003D0002197F1F76695415099F78081772319F0BD
:1003E0008323808302C0282B20831FBF5C968D91BE
:1003F0009C915D970197F1F781E090E0DF91CF91BB
:100400001F9108952091BA043091BB042817390731
:1004100071F48091B9042091B80490E0805C9F4F02
:10042000821B910960E470E00E94C70C089580E08F
:1004300090E008952091BA043091BB042817390741
:10044000B9F49091B8048091B904981789F0E091BB
:10045000B804F0E0E858FB4F80812091B80430E008
:100460002F5F3F4F2F7333272093B80490E00895F8
:100470008FEF9FEF0895089580E090E008950E9427
:10048000DC0E0F931F93CF93DF93EC01888199814A
:10049000009729F02A813B812617370788F48B01C2
:1004A0006F5F7F4F0E94160E009761F099838883DB
:1004B0001B830A832C813D81232B11F4FC011082C4
:1004C00081E001C080E0DF91CF911F910F910895ED
:1004D000EF92FF920F931F93CF93DF93EC0119825A
:1004E00018821B821A821D821C826115710549F1D6
:1004F0008B01FB0101900020E9F731977F01E61A9B
:10050000F70AB7010E9441022881398181110DC08B
:100510002115310519F0C9010E948D0D198218822B
:100520001D821C821B821A820CC0FD82EC82B801E3
:10053000C901DF91CF911F910F91FF90EF900C9423
:10054000EA0EDF91CF911F910F91FF90EF900895E8
:100550001F920F920FB60F9211242F933F938F93F8
:100560009F93AF93BF938091C1049091C204A091D7
:10057000C304B091C4043091C00423E0230F2D378D
:1005800020F40196A11DB11D05C026E8230F029697
:10059000A11DB11D2093C0048093C1049093C20497
:1005A000A093C304B093C4048091C5049091C60481
:1005B000A091C704B091C8040196A11DB11D8093FC
:1005C000C5049093C604A093C704B093C804BF9118
:1005D000AF919F918F913F912F910F900FBE0F90F0
:1005E0001F901895EF92FF920F931F93CF93DF9375
:1005F000EC01198218821B821A821D821C828617C6
:10060000970741F1FB01008111810115110511F1DD
:10061000E480F580B7010E9441022881398181116F
:100620000DC02115310519F0C9010E948D0D1982E7
:1006300018821D821C821B821A820CC0FD82EC82F1
:10064000B801C901DF91CF911F910F91FF90EF90F9
:100650000C94EA0EDF91CF911F910F91FF90EF90D4
:100660000895DB0114964D915C9115976D917C91E5
:10067000DC01ED91FC910280F381E02D099461157C
:10068000710579F0FB0101900020E9F73197AF0186
:10069000461B570BDC01ED91FC910280F381E02DAC
:1006A000099480E090E008950C943F031F920F920C
:1006B0000FB60F9211242F933F934F935F936F9335
:1006C0007F938F939F93AF93BF93EF93FF9389ECA7
:1006D00094E00E94FE00FF91EF91BF91AF919F9136
:1006E0008F917F916F915F914F913F912F910F90DB
:1006F0000FBE0F901F9018951F920F920FB60F927A
:1007000011242F938F939F93EF93FF93E091D9043C
:10071000F091DA048081E091DF04F091E00482FD41
:1007200012C090818091E2048F5F8F732091E30467
:10073000821751F0E091E204F0E0E753FB4F958F10
:100740008093E20401C08081FF91EF919F918F918E
:100750002F910F900FBE0F901F9018951F920F9220
:100760000FB60F9211242F933F934F935F936F9384
:100770007F938F939F93AF93BF93EF93FF93E091FA
:10078000BA04F091BB04309709F451C0968DA68548
:10079000B785858591FF04C09C91892329F447C0C2
:1007A0009C91892309F043C0A389B4899C918589D0
:1007B000809589238C93868997890197F1F7608DBD
:1007C000718DA685B785558538E020E0CB0101976E
:1007D000F1F7822F90E095958795282F4C9145232E
:1007E00009F02068315091F7868D81FD2095809128
:1007F000B90490E001968F7399273091B8043817A7
:1008000049F0A091B904B0E0A858BB4F2C93809355
:10081000B90403C0868D8160868F828D938D019788
:10082000F1F7A389B4899C918589892B8C93FF91D9
:10083000EF91BF91AF919F918F917F916F915F9158
:100840004F913F912F910F900FBE0F901F901895D1
:100850003FB7F8948091C5049091C604A091C70455
:10086000B091C80426B5A89B05C02F3F19F001968A
:10087000A11DB11D3FBFBA2FA92F982F8827820F26
:10088000911DA11DB11DBC01CD0142E0660F771F76
:10089000881F991F4A95D1F708958F929F92AF9222
:1008A000BF92CF92DF92EF92FF926B017C010E9488
:1008B00028044B015C01C114D104E104F104F1F0FE
:1008C0000E942804DC01CB0188199909AA09BB09F7
:1008D000883E9340A105B10570F321E0C21AD1080A
:1008E000E108F10888EE880E83E0981EA11CB11C77
:1008F000C114D104E104F10419F7DDCFFF90EF90AA
:10090000DF90CF90BF90AF909F908F90089586E634
:1009100095E00E9402021816190654F486E695E046
:100920000E941A02682F89EC94E00E942001EFCF08
:100930000895CF93DF93EC010E9487040E948704FF
:10094000BE01DD0F880B990B0E944D04DF91CF9102
:100950000C94870489EC94E00E946D0165E573E0D6
:1009600089EC94E00E94540361E773E086E695E029
:100970000E94540364E670E080E090E00E944D0421
:1009800061E773E086E695E00E94540364E670E058
:1009900080E090E00E944D0484E690E00C9499047D
:1009A00089EC94E00E946D0164E773E089EC94E0C7
:1009B0000E94540366E973E086E695E00E945403C2
:1009C00088EE93E00C949904CF93DF93BC0189ECFB
:1009D00094E00E943103EC016CE172E089EC94E058
:1009E0000E943F038C0F9D1FDF91CF910895CF93FD
:1009F000DF93BC0189EC94E00E943F03EC016CE1C1
:100A000072E089EC94E00E943F038C0F9D1FDF9100
:100A1000CF9108950F931F93CF93DF93CDB7DEB798
:100A200060970FB6F894DEBF0FBECDBF9F938F9334
:100A30008FE993E09F938F938E010F5F1F4F1F935A
:100A40000F930E94F10E89EC94E00E946D0166EA1A
:100A500073E089EC94E00E945403C8010E94F704FB
:100A60006CEB73E086E695E00E945403B80186E6DD
:100A700095E00E94540384E690E00E9499040F9050
:100A80000F900F900F900F900F9060960FB6F89404
:100A9000DEBF0FBECDBFDF91CF911F910F910895A3
:100AA0000F931F93CF93DF93CDB7DEB760970FB649
:100AB000F894DEBF0FBECDBF9F938F938FE993E075
:100AC0009F938F938E010F5F1F4F1F930F930E9471
:100AD000F10E89EC94E00E946D0164EC73E089EC06
:100AE00094E00E945403C8010E94F7046AED73E089
:100AF00086E695E00E945403B80186E695E00E94E0
:100B0000540384E690E00E9499040F900F900F9098
:100B10000F900F900F9060960FB6F894DEBF0FBE47
:100B2000CDBFDF91CF911F910F910895FC0180817E
:100B300091810C948D0DCF92DF92EF92FF920F93E3
:100B40001F93CF93DF9300D000D000D0CDB7DEB796
:100B50006B017A018901BC01CE0101960E94F2026B
:100B600089EC94E00E946D0162EE73E089EC94E000
:100B70000E945403CE0101960E94E40468EF73E0E2
:100B800086E695E00E945403BE016F5F7F4F86E6C4
:100B900095E00E94310384E690E00E949904CE0122
:100BA00001960E949605B601CE0101960E94F202BE
:100BB00089EC94E00E946D0160E074E089EC94E0BF
:100BC0000E945403CE0101960E94E40466E174E0A1
:100BD00086E695E00E945403BE016F5F7F4F86E674
:100BE00095E00E94310384E690E00E949904CE01D2
:100BF00001960E949605B701CE0101960E94F2026D
:100C000089EC94E00E946D016EE174E089EC94E05F
:100C10000E945403CE0101960E94E40464E374E050
:100C200086E695E00E945403BE016F5F7F4F86E623
:100C300095E00E94310384E690E00E949904CE0181
:100C400001960E949605B801CE0101960E94F2021B
:100C500089EC94E00E946D016CE374E089EC94E00F
:100C60000E945403CE0101960E94E40462E574E000
:100C700086E695E00E945403BE016F5F7F4F86E6D3
:100C800095E00E94310384E690E00E949904CE0131
:100C900001960E94960526960FB6F894DEBF0FBE09
:100CA000CDBFDF91CF911F910F91FF90EF90DF901B
:100CB000CF9008954F925F926F927F928F929F9202
:100CC000AF92BF92CF92DF92EF92FF920F931F935A
:100CD000CF93DF93CDB7DEB7A1970FB6F894DEBF01
:100CE0000FBECDBF8C016B01770FEE08FF08F7FE3A
:100CF0002FC0DC01ED91FC910190F081E02D6DE2BF
:100D000009955C0122273327A9012C193D094E09B9
:100D10005F0919A2FE01B1967F019AE0492E512C7C
:100D2000612C712CCA01B901A30192010E94960C99
:100D3000605DD7016E937D01211531054105510597
:100D400089F7BD01C8010E943F038A0D9B1D1EC08B
:100D5000A701960119A2FE01B1967F018AE0882EB3
:100D6000912CA12CB12CCA01B901A50194010E94BA
:100D7000960C605DD7016E937D012115310541050B
:100D8000510589F7BD01C8010E943F03A1960FB626
:100D9000F894DEBF0FBECDBFDF91CF911F910F91B1
:100DA000FF90EF90DF90CF90BF90AF909F908F908B
:100DB0007F906F905F904F900895CF93DF93BC0129
:100DC00089EC94E00E945A06EC016CE172E089EC37
:100DD00094E00E943F038C0F9D1FDF91CF910895F7
:100DE00089EC94E00E946D016AE574E089EC94E07E
:100DF0000E94540381E090E00E94DD0660E774E009
:100E000086E695E00E94540361E070E086E695E096
:100E10000E945A0684E690E00C9499042FB7F89447
:100E20006091C1047091C2048091C3049091C40484
:100E30002FBF0895CF93DF93CDB7DEB7CE54D1093E
:100E40000FB6F894DEBF0FBECDBF789484B5826034
:100E500084BD84B5816084BD85B5826085BD85B55E
:100E6000816085BD80916E00816080936E001092DC
:100E70008100809181008260809381008091810057
:100E800081608093810080918000816080938000E8
:100E90008091B10084608093B1008091B000816046
:100EA0008093B00080917A00846080937A00809172
:100EB0007A00826080937A0080917A0081608093CA
:100EC0007A0080917A00806880937A001092C10045
:100ED000E091D904F091DA0482E08083E091D504B6
:100EE000F091D6041082E091D704F091D80480E10B
:100EF00080831092E104E091DD04F091DE0486E04D
:100F00008083E091DB04F091DC0480818061808348
:100F1000E091DB04F091DC04808188608083E091C3
:100F2000DB04F091DC04808180688083E091DB0445
:100F3000F091DC0480818F7D808364E671E089EC30
:100F400094E00E9454038FE691E00E94F70460EB66
:100F500071E089EC94E00E9454038BEB91E00E94D5
:100F6000F7048DE691E00E94F7041092810510923B
:100F7000800510927F0510927E0510927D051092DB
:100F80007C058DE991E09093830580938205909193
:100F90007205963108F058C02DEB30E030937D0596
:100FA00020937C052BE931E030937F0520937E056B
:100FB0002CE231E030938105209380054091680058
:100FC000983058F031E09E3008F430E021E0822F74
:100FD00001C0880F3A95EAF701C084E0842B809322
:100FE0006800983038F09E3040F0963148F020E0AC
:100FF00030E008C02DE630E005C02BE630E002C04E
:101000002CE630E030937A0520937905983030F45F
:1010100081E001C0880F9A95EAF70EC0292F30E0D1
:101020009E3018F42850310902C02E50310981E059
:1010300001C0880F2A95EAF780937B05809182058D
:10104000909183050197F1F780918005909181053A
:10105000892B49F1E091BA04F091BB0425E0E63612
:10106000F20709F1309739F0A389B4899C918589F9
:10107000809589238C93809184058E7F809384054D
:101080001092B9041092B80486E695E09093BB04E0
:101090008093BA04E0917905F0917A05908180916E
:1010A0007B05892B808367EC71E089EC94E00E94DA
:1010B000540380E895E20E94DD068CE192E00E94F4
:1010C000F7048CED91E00E94F7040E94AA040E94AC
:1010D000D0040E94AA046FE172E0CE0101960E9442
:1010E000680289EC94E00E946D0167E272E089EC8D
:1010F00094E00E945403CE0101960E94E4046DE343
:1011000072E086E695E00E945403BE016F5F7F4F58
:1011100086E695E00E94310384E690E00E949904FF
:10112000CE0101960E94960582E694E00E940A058F
:1011300080E19DE00E94500565E472E0CE010196D9
:101140000E9468026EE472E0CE01C7960E946802B7
:1011500067E572E0CE01CD960E94680260E672E01B
:10116000CE018D5B9F4F0E9468029E012F5F3F4F13
:10117000AE01495C5F4FBE01635C7F4FCE018D5B6A
:101180009F4F0E949B05CE018D5B9F4F0E9496054D
:10119000CE01CD960E949605CE01C7960E94960577
:1011A000CE0101960E94960589EC94E00E946D01A3
:1011B00069E672E089EC94E00E94540383E090E0D9
:1011C0000E94DD066FE772E086E695E00E94540318
:1011D00063E070E086E695E00E945A0684E690E0BF
:1011E0000E94990489EC94E00E946D0167E872E026
:1011F00089EC94E00E94540385E090E00E94DD06B3
:101200006DE972E086E695E00E94540365E070E0C7
:1012100086E695E00E945A0684E690E00E949904D2
:1012200089EC94E00E946D0165EA72E089EC94E03B
:101230000E94540382E090E00E94DD066BEB72E0B6
:1012400086E695E00E94540362E070E086E695E051
:101250000E945A0684E690E00E94990489EC94E08A
:101260000E946D0163EC72E089EC94E00E945403EB
:1012700081E090E00E94DD0669ED72E086E695E08F
:101280000E94540361E070E086E695E00E945A06F1
:1012900084E690E00E9499040E94F0060E94D00427
:1012A0000E940E076093BC047093BD048093BE043B
:1012B0009093BF048CE192E00E94F70481EE92E0EB
:1012C0000E94F7048EEF882E99249A94A12CB12CB9
:1012D00096E0C92ED12CE12CF12C19E00E94870454
:1012E0000E940E074090BC045090BD046090BE0464
:1012F0007090BF04DC01CB0184199509A609B709D8
:1013000081319742A105B10508F4B5C086E3EAE052
:10131000F1E0DE01119601900D928A95E1F78CE1E2
:1013200092E00E94F70483E193E00E94F7040E9498
:10133000AA040E94D0040E94AA040E94D60BA50110
:1013400094010E942D0CCB010E940A050E94D60B2D
:10135000A50194010E942D0CCB010E9450050E9412
:10136000D60BA70196010E942D0C169F9001179F86
:10137000300D112461E070E06C0F7D1F620F731F50
:10138000CE01875B9F4F0E9468020E94D60BA70187
:1013900096010E942D0C169F9001179F300D11246D
:1013A00061E070E06C0F7D1F620F731FCE018D5BDB
:1013B0009F4F0E9468020E94D60BA70196010E94CF
:1013C0002D0C169F9001179F300D112461E070E0E5
:1013D0006C0F7D1F620F731FCE01CD960E946802B5
:1013E0000E94D60BA70196010E942D0C169F90011A
:1013F000179F300D112461E070E06C0F7D1F620FAC
:10140000731FCE01C7960E9468029E01275B3F4F63
:10141000AE014D5B5F4FBE01635C7F4FCE01C7964F
:101420000E949B05CE01C7960E949605CE01CD96DF
:101430000E949605CE018D5B9F4F0E949605CE01BE
:10144000875B9F4F0E9496050E94F0060E94D00481
:101450008CE192E00E94F70481EE92E00E94F70492
:101460000E940E076093BC047093BD048093BE0479
:101470009093BF0402C00E940E070E948F012ECFDE
:1014800086E591E090936705809366058091BA04A4
:101490009091BB048656954071F4E0917905F091E6
:1014A0007A05908180917B058095892380831092B5
:1014B000BB041092BA04089590E0FC01E859FF4F74
:1014C0002491FC01E255FF4F3491FC01E656FF4F99
:1014D000E491EE2309F43CC0222339F1233091F04A
:1014E00038F42130A9F0223001F584B58F7D12C087
:1014F000273091F02830A1F02430B9F48091800099
:101500008F7D03C0809180008F77809380000DC015
:1015100084B58F7784BD09C08091B0008F7703C0F8
:101520008091B0008F7D8093B000F0E0EE0FFF1F40
:10153000E057FF4FA591B4919FB7F894611104C093
:101540008C913095382302C0EC913E2B3C939FBF89
:101550000895CF93DF931092CC041092CB0488EEC1
:1015600093E0A0E0B0E08093CD049093CE04A093EC
:10157000CF04B093D00424E431E03093CA04209324
:10158000C90425EC30E03093D6042093D50424EC34
:1015900030E03093D8042093D70420EC30E030932F
:1015A000DA042093D90421EC30E03093DC0420935A
:1015B000DB0422EC30E03093DE042093DD0426ECE3
:1015C00030E03093E0042093DF041092E2041092A4
:1015D000E3041092E4041092E5041092690510925D
:1015E000680580936A0590936B05A0936C05B09392
:1015F0006D0586E591E090936705809366051092EE
:101600007D0510927C0510927F0510927E05109248
:1016100081051092800510928305109282056091D9
:1016200084056E7F6D7F609384056695617081E0AF
:10163000682789E00E945C0AE7EBF0E02491E3EA86
:10164000F0E08491882399F090E0880F991FFC01C5
:10165000EA57FF4FA591B491FC01E057FF4F8591E8
:1016600094918FB7F894EC91E22BEC938FBFE7EB5A
:10167000F0E0E491E0937605E3EAF0E0E491F0E055
:10168000EE0FFF1FE057FF4F8591949190937805DF
:1016900080937705E6EBF0E02491E2EAF0E08491B4
:1016A0008823C1F090E0880F991FFC01EA57FF4F93
:1016B000C591D491FC01E057FF4FA591B4919FB71C
:1016C000F8948881E22FE0958E2388838C91E8231B
:1016D000EC939FBF8091840581FD04C061E088E0A8
:1016E0000E945C0A88E080937205E6EBF0E0E491EA
:1016F000E0937305E2EAF0E0E491F0E0EE0FFF1F03
:10170000E458FF4F859194919093750580937405EB
:10171000DF91CF9108958F929F92AF92BF92CF9217
:10172000DF92EF92FF92CF93DF93EC016881798192
:101730008A819B81611571058105910521F464E21F
:1017400079ED8BE597E02DE133EF41E050E00E9429
:101750002D0C49015A019B01AC01A7EAB1E40E949A
:101760004C0C6B017C01ACEEB4EFA50194010E941E
:101770005A0CDC01CB018C0D9D1DAE1DBF1DB7FFAA
:1017800003C00197A109B04888839983AA83BB83CA
:10179000BC01CD019F77DF91CF91FF90EF90DF905B
:1017A000CF90BF90AF909F908F9008958F929F920F
:1017B000AF92BF92CF92DF92EF92FF9260910001C1
:1017C00070910101809102019091030161157105F1
:1017D0008105910521F464E279ED8BE597E02DE137
:1017E00033EF41E050E00E942D0C49015A019B016A
:1017F000AC01A7EAB1E40E944C0C6B017C01ACEE99
:10180000B4EFA50194010E945A0CDC01CB018C0DB0
:101810009D1DAE1DBF1DB7FF03C00197A109B048B4
:101820008093000190930101A0930201B093030102
:10183000BC01CD019F77FF90EF90DF90CF90BF90DC
:10184000AF909F908F900895609300017093010175
:1018500080930201909303010895052E97FB1EF4D7
:1018600000940E94440C57FD07D00E94960C07FC80
:1018700003D04EF40C94440C50954095309521952E
:101880003F4F4F4F5F4F08959095809570956195AC
:101890007F4F8F4F9F4F08950E94B80CA59F900DCA
:1018A000B49F900DA49F800D911D11240895B7FF42
:1018B0000C944C0C0E944C0C821B930B08952F929D
:1018C0003F924F925F926F927F928F929F92AF92D0
:1018D000BF92CF92DF92EF92FF920F931F93CF931D
:1018E000DF93CDB7DEB7CA1BDB0B0FB6F894DEBFB4
:1018F0000FBECDBF09942A88398848885F846E84DA
:101900007D848C849B84AA84B984C884DF80EE8023
:10191000FD800C811B81AA81B981CE0FD11D0FB62C
:10192000F894DEBF0FBECDBFED010895A1E21A2EDF
:10193000AA1BBB1BFD010DC0AA1FBB1FEE1FFF1F73
:10194000A217B307E407F50720F0A21BB30BE40BC3
:10195000F50B661F771F881F991F1A9469F760950A
:101960007095809590959B01AC01BD01CF010895C4
:10197000A29FB001B39FC001A39F700D811D1124D0
:10198000911DB29F700D811D1124911D089597FB2B
:10199000072E16F4009407D077FD09D00E94DB0CC7
:1019A00007FC05D03EF4909581959F4F0895709562
:1019B00061957F4F0895AA1BBB1B51E107C0AA1F69
:1019C000BB1FA617B70710F0A61BB70B881F991FE0
:1019D0005A95A9F780959095BC01CD010895EE0F19
:1019E000FF1F0590F491E02D09940F931F93CF935F
:1019F000DF938230910510F482E090E0E09187055A
:101A0000F091880520E030E0A0E0B0E0309719F1D7
:101A1000408151810281138148175907C8F084170A
:101A2000950769F4109731F012960C93129713965C
:101A30001C9327C0009387051093880522C02115A9
:101A4000310519F04217530718F49A01BD01EF014F
:101A5000DF01F801DBCF21153105F9F0281B390B27
:101A60002430310580F48A819B816115710521F054
:101A7000FB019383828304C090938805809387053C
:101A8000FE01329644C0FE01E20FF31F8193919351
:101A900022503109398328833AC02091850530913D
:101AA0008605232B41F420910601309107013093E4
:101AB00086052093850520910401309105012115AB
:101AC000310541F42DB73EB740910801509109010D
:101AD000241B350BE0918505F0918605E217F3078D
:101AE000A0F42E1B3F0B2817390778F0AC014E5F8E
:101AF0005F4F2417350748F04E0F5F1F5093860540
:101B0000409385058193919302C0E0E0F0E0CF011E
:101B1000DF91CF911F910F910895CF93DF9300979D
:101B200009F481C0FC01329713821282A0918705CB
:101B3000B0918805109781F420813181820F931F25
:101B400020918505309186052817390751F5F093C6
:101B50008605E093850567C0ED0120E030E0CE17F3
:101B6000DF0740F44A815B819E0141155105F1F088
:101B7000EA01F5CFD383C28340815181840F951F41
:101B8000C817D90759F488819981840F951F029647
:101B9000918380838A819B81938382832115310580
:101BA00029F4F0938805E09387053DC0E901FB83A4
:101BB000EA8349915991C40FD51FEC17FD0761F4D1
:101BC00080819181840F951F0296E9019983888312
:101BD000828193819B838A83E0E0F0E012968D916D
:101BE0009C911397009719F0FD01DC01F7CF8D91BF
:101BF0009C9111979D012E5F3F4F820F931F209163
:101C00008505309186052817390769F4309729F43E
:101C1000109288051092870502C013821282B09339
:101C20008605A0938505DF91CF910895A0E0B0E0EF
:101C3000ECE1FEE00C94630CEC01009721F4CB0185
:101C40000E94F50CB4C0FC01E60FF71F9C01225066
:101C50003109E217F30708F4A8C0D9010D911C91CE
:101C6000119706171707B0F00530110508F49BC04F
:101C7000C80104978617970708F495C00250110908
:101C8000061B170B019311936D937C93CF010E9458
:101C90008D0D89C05B01A01AB10A4C01800E911E06
:101CA000A0918705B0918805612C712CE12CF12C55
:101CB000109709F446C08D919C911197A815B9050C
:101CC000B1F56C0142E0C40ED11CCA14DB0478F1FA
:101CD0004C018A189B08640142E0C40ED11C129684
:101CE000BC9012971396AC91B5E0CB16D10440F09E
:101CF000B282A38391828082D9016D937C9309C0C3
:101D00000E5F1F4F800F911FF90191838083EB2D90
:101D1000FA2FE114F10431F0D7011396FC93EE93FE
:101D2000129741C0F0938805E09387053CC0681680
:101D3000790608F43C017D0112960D90BC91A02D0E
:101D4000B7CF809185059091860588169906E1F4B4
:101D500066167706C8F480910401909105010097FA
:101D600041F48DB79EB74091080150910901841B41
:101D7000950BE817F907C8F4F0938605E0938505FD
:101D8000F901718360830FC0CB010E94F50C7C01C7
:101D9000009759F0A801BE010E94E10ECE010E94F9
:101DA0008D0DC70104C0CE0102C080E090E0CDB728
:101DB000DEB7EEE00C947F0C81E090E0F8940C9498
:101DC000A411FB01DC0102C001900D924150504072
:101DD000D8F70895FB01DC0101900D920020E1F796
:101DE0000895AEE0B0E0E7EFFEE00C946D0C0D89D5
:101DF0001E8986E08C831A8309838FEF9FE79E8379
:101E00008D83AE01475E5F4F6F89788DCE0101965D
:101E10000E94130FEF81F885E00FF11F10822E96BC
:101E2000E4E00C94890CABE0B0E0E9E1FFE00C9455
:101E30005F0C6C017B018A01FC0117821682838191
:101E400081FFCCC1CE0101963C01F6019381F701DF
:101E500093FD859193FF81917F01882309F4BAC195
:101E6000853239F493FD859193FF81917F0185320D
:101E700029F4B60190E00E940A11E7CF912C212CA1
:101E8000312CFFE1F315D8F08B3279F038F4803241
:101E900079F08332A1F4232D20611DC08D3261F0D1
:101EA000803369F4232D216016C0832D8260382E83
:101EB000E32DE4603E2E2AC0F32DF8601DC037FCF0
:101EC0002DC020ED280F2A3040F08E32B9F436FCB8
:101ED00081C1232D2064322E19C036FE06C08AE04F
:101EE000989E200D1124922E11C0EAE02E9E200D06
:101EF0001124222EF32DF0623F2E08C08C3621F4DF
:101F0000832D8068382E02C0883641F4F70193FD96
:101F1000859193FF81917F018111B3CF982F9F7D90
:101F20009554933028F40C5F1F4F9FE399830DC0A5
:101F3000833631F0833771F0833509F059C021C001
:101F4000F801808189830E5F1F4F88248394912C30
:101F5000530113C02801F2E04F0E511CF801A0807C
:101F6000B18036FE03C0692D70E002C06FEF7FEFD5
:101F7000C5010E94FF104C018201F32DFF773F2E17
:101F800016C0280122E0420E511CF801A080B18049
:101F900036FE03C0692D70E002C06FEF7FEFC50110
:101FA0000E94F4104C01F32DF0683F2E820133FCA7
:101FB0001BC0822D90E088169906B0F4B60180E22D
:101FC00090E00E940A112A94F4CFF50137FC859124
:101FD00037FE81915F01B60190E00E940A11211045
:101FE0002A9421E0821A91088114910471F7E8C0C3
:101FF000843611F0893641F5F80137FE07C060815B
:102000007181828193810C5F1F4F08C06081718153
:10201000072E000C880B990B0E5F1F4FF32DFF76D8
:102020003F2E97FF09C090958095709561957F4FE1
:102030008F4F9F4FF0683F2E2AE030E0A3010E94AF
:102040004611882E861845C0853731F4232D2F7E02
:10205000B22E2AE030E025C0932D997FB92E8F361D
:10206000C1F018F4883579F0B5C0803719F0883799
:1020700021F0B0C0E92FE061BE2EB4FE0DC0FB2DF3
:10208000F460BF2E09C034FE0AC0292F2660B22E8C
:1020900006C028E030E005C020E130E002C020E1C9
:1020A00032E0F801B7FE07C06081718182819381BF
:1020B0000C5F1F4F06C06081718180E090E00E5F71
:1020C0001F4FA3010E944611882E8618FB2DFF7713
:1020D0003F2E36FE0DC0232D2E7FA22E891458F4DC
:1020E00034FE0BC032FC09C0832D8E7EA82E05C0A5
:1020F000B82CA32C03C0B82C01C0B92CA4FE0FC06F
:10210000FE01E80DF11D8081803321F49A2D997E26
:10211000A92E09C0A2FE06C0B394B39404C08A2DB0
:10212000867809F0B394A3FC11C0A0FE06C0B214D7
:1021300088F4280C922C9B180EC0B21460F4B601DF
:1021400080E290E00E940A11B394F7CFB21418F421
:102150002B1802C0982C212CA4FE10C0B60180E3DD
:1021600090E00E940A11A2FE17C0A1FC03C088E7FC
:1021700090E002C088E590E0B6010CC08A2D867818
:1021800059F0A1FE02C08BE201C080E2A7FC8DE203
:10219000B60190E00E940A11891438F4B60180E378
:1021A00090E00E940A119A94F7CF8A94F301E80D07
:1021B000F11D8081B60190E00E940A118110F5CFD7
:1021C000222009F442CEB60180E290E00E940A117A
:1021D0002A94F6CFF6018681978102C08FEF9FEF98
:1021E0002B96E2E10C947B0CFC0105906150704051
:1021F0000110D8F7809590958E0F9F1F0895FC01D0
:102200006150704001900110D8F7809590958E0F25
:102210009F1F08950F931F93CF93DF93FB0123819B
:1022200021FD03C08FEF9FEF2CC022FF16C0468117
:102230005781248135814217530744F4A081B1812D
:102240009D012F5F3F4F318320838C9326813781FF
:102250002F5F3F4F3783268314C08B01EC01FB01B6
:102260000084F185E02D0995892BE1F6D8011696B9
:102270008D919C911797019617969C938E93169724
:10228000CE01DF91CF911F910F910895FA01AA27F6
:10229000283051F1203181F1E8946F936E7F6E5FA9
:1022A0007F4F8F4F9F4FAF4FB1E03ED0B4E03CD057
:1022B000670F781F891F9A1FA11D680F791F8A1F3A
:1022C000911DA11D6A0F711D811D911DA11D20D0A1
:1022D00009F468943F912AE0269F11243019305D5B
:1022E0003193DEF6CF010895462F4770405D41934C
:1022F000B3E00FD0C9F7F6CF462F4F70405D4A3399
:1023000018F0495D31FD4052419302D0A9F7EACF60
:10231000B4E0A6959795879577956795BA95C9F78F
:1023200000976105710508959B01AC010A2E069482
:102330005795479537952795BA95C9F7620F731F3B
:10234000841F951FA01D089510E0C2E6D0E004C0D0
:10235000FE010E94EF0C2196C336D107C9F7F8940D
:02236000FFCFAD
:102362000100000000008905800031323334353627
:102372003738003336343532393733003044344558
:10238200324237410034384445324143320031371A
:102392004536334441320030334638303231410021
:1023A2000000000020018D00B7006D01E800C600AA
:1023B200DA0000000000B2018D003C02B10102020D
:1023C2001A029901536B657463683A202020002F2A
:1023D200686F6D652F68616E64696B6F2F417264FF
:1023E20075696E6F2D4578706572696D656E742FB3
:1023F2004A44592D30385F53657269616C2F4A44E3
:10240200592D30385F53657269616C2E696E6F00A9
:1024120055706C6F616465643A20004A616E2031C8
:1024220033203230313900425473657269616C2055
:102432007374617274656420617420000D0A2E2E1B
:102442002E2E2E2E2E2E2E2E2E2E2E2E2E2E2E2EAA
:1024520020496E697469616C697A696E672070617E
:1024620072616D6574657273202E2E2E2E2E2E2EA5
:102472002E2E2E2E2E2E2E2E2E2E2E200D0A0068C1
:10248200616E64696B6F000D0A3E2073656E64694C
:102492006E6720636F6D6D616E64203A2041542B2C
:1024A2004E414D45003041314232433344003031D8
:1024B2004142323343440031323334353637380007
:1024C2003734323738424441000D0A3E2073656E7C
:1024D20064696E6720636F6D6D616E64203A20419E
:1024E200542B41445459000D0A3E2073656E6469B1
:1024F2006E6720636F6D6D616E64203A2041542BCC
:1025020041445649000D0A3E2073656E64696E6748
:1025120020636F6D6D616E64203A2041542B504FE1
:102522005745000D0A3E2073656E64696E6720632D
:102532006F6D6D616E64203A2041542B5057524D9D
:10254200000D0A2E2E2E2E2E2E2E2E2E2E2E2E2E1C
:102552002E2E2E2E2E205374616E6279202E2E2E58
:102562002E2E2E2E2E2E2E2E2E2E2E2E2E2E2E2097
:102572000D0A000D0A2E2E2E2E2E2E2E2E2E2E2E31
:102582002E2E2E2E2E2E2E2052616E646F6D697AA3
:10259200696E6720706172616D6574657273202E59
:1025A2002E2E2E2E2E2E2E2E2E2E2E2E2E2E2E2E49
:1025B2002E200D0A000D0A3E2073656E64696E6757
:1025C20020636F6D6D616E64203A204154200D0AC4
:1025D200004154000D0A3E2073656E64696E6720E7
:1025E200636F6D6D616E64203A2041542B524553E6
:1025F2004554200D0A0041542B5245534554003096
:102602007825303458000D0A3E2073656E64696E79
:102612006720636F6D6D616E64203A2041542B4DCB
:1026220041524A000D0A3E2073656E64696E67204E
:10263200636F6D6D616E64203A2041542B4D494E9B
:102642004F000D0A3E2073656E64696E6720636FEA
:102652006D6D616E64203A2041542B494245300031
:102662000D0A3E2073656E64696E6720636F6D6D3F
:10267200616E64203A2041542B49424531000D0AD3
:102682003E2073656E64696E6720636F6D6D616E67
:1026920064203A2041542B49424532000D0A3E2023
:1026A20073656E64696E6720636F6D6D616E642021
:1026B2003A2041542B49424533000D0A3E207365AE
:1026C2006E64696E6720636F6D6D616E64203A207F
:0826D20041542B49424541002F
:00000001FF
