:100000000C9453000C947B000C947B000C947B00AC
:100010000C947B000C947B000C947B000C947B0074
:100020000C947B000C947B000C947B000C947B0064
:100030000C947B000C947B000C947B000C947B0054
:100040000C94B6020C947B000C9426030C940003D1
:100050000C947B000C947B000C947B000C947B0034
:100060000C947B000C947B0000000000250028000D
:100070002B0000000000240027002A0004040404D0
:100080000404040402020202020203030303030342
:10009000010204081020408001020408102001021F
:1000A00004081020790411241FBECFEFD8E0DEBF72
:1000B000CDBF11E0A0E0B1E0EAEAF9E002C00590AE
:1000C0000D92A237B107D9F722E0A2E7B1E001C053
:1000D0001D92A831B207E1F710E0C3E5D0E004C0FB
:1000E0002197FE010E94C804C235D107C9F70E94BA
:1000F00058030C94D3040C94000090E0FC01E057EA
:10010000FF4F2491FC01E458FF4F8491882399F01C
:1001100090E0880F991FFC01EE58FF4FA591B49114
:10012000FC01E859FF4F859194918FB7F894EC91B9
:10013000E22BEC938FBF08953FB7F894809177013D
:1001400090917801A0917901B0917A0126B5A89B90
:1001500005C02F3F19F00196A11DB11D3FBFBA2F59
:10016000A92F982F8827820F911DA11DB11DBC01B9
:10017000CD0142E0660F771F881F991F4A95D1F77E
:100180000895CF92DF92EF92FF920F931F93CF9338
:10019000DF936C017A018B01C0E0D0E0CE15DF0562
:1001A00081F0D8016D918D01D601ED91FC91019006
:1001B000F081E02DC6010995892B11F02196EECF33
:1001C0007E01C701DF91CF911F910F91FF90EF90BA
:1001D000DF90CF900895089580E090E00895FC01AD
:1001E000538D448D252F30E0842F90E0821B930B9C
:1001F000541710F0CF96089501970895FC01918D42
:10020000828D981761F0828DDF01A80FB11D5D9678
:100210008C91928D9F5F9F73928F90E008958FEFE6
:100220009FEF0895FC01918D828D981731F0828D9A
:10023000E80FF11D858D90E008958FEF9FEF0895F1
:10024000FC01918D228D892F90E0805C9F4F821B55
:1002500091098F73992708958BE791E00E942001FF
:1002600021E0892B09F420E0822F0895FC01848D80
:10027000DF01A80FB11DA35ABF4F2C91848D90E0D0
:1002800001968F739927848FA689B7892C93A089AB
:10029000B1898C91837080648C93938D848D981335
:1002A00006C00288F389E02D80818F7D80830895C8
:1002B000EF92FF920F931F93CF93DF93EC0181E0B6
:1002C000888F9B8D8C8D981305C0E889F989808172
:1002D00085FD26C0F62E0B8D10E00F5F1F4F0F73AC
:1002E0001127E02E8C8DE8120CC00FB607FCFACF58
:1002F000E889F989808185FFF5CFCE010E9436011A
:10030000F1CF8B8DFE01E80FF11DE35AFF4FF08214
:100310009FB7F8940B8FEA89FB89808180620AC0BD
:100320009FB7F894EE89FF896083E889F989808115
:100330008370806480839FBF81E090E0DF91CF91E4
:100340001F910F91FF90EF900895CF93DF93EC01F1
:10035000888D8823C9F0EA89FB89808185FD05C0E5
:10036000A889B9898C9186FD0FC00FB607FCF5CF1F
:10037000808185FFF2CFA889B9898C9185FFEDCF67
:10038000CE010E943601E7CFDF91CF91089580E042
:1003900090E0892B29F00E942C0181110C9400001F
:1003A0000895009769F0FC0101900020E9F731976A
:1003B000AF01481B590BBC018BE791E00C94C100C5
:1003C00080E090E00895CF93DF9360E28BE791E0C7
:1003D0000E945801EC0185E191E00E94D1018C0F4F
:1003E0009D1FDF91CF910895CF93DF930E94D1019C
:1003F000EC0185E191E00E94D1018C0F9D1FDF91FE
:10040000CF9108958F929F92AF92BF92CF92DF9239
:10041000EF92FF920F931F93CF93DF93CDB7DEB789
:10042000A1970FB6F894DEBF0FBECDBF6C01990F38
:10043000EE08FF08F7FE2BC06DE28BE791E00E940B
:1004400058018C0122273327A9012C193D094E0997
:100450005F0919A2CE0181967C019AE0892E912C28
:10046000A12CB12CCA01B901A50194010E94A604D6
:10047000605DF70162937F0121153105410551054A
:1004800089F7CF010E94D101800F911F1DC0A701E4
:10049000960119A28E010F5D1F4F8AE0C82ED12C44
:1004A000E12CF12CCA01B901A70196010E94A60412
:1004B000605DF80162938F012115310541055105F9
:1004C00089F7CF010E94D101A1960FB6F894DEBF43
:1004D0000FBECDBFDF91CF911F910F91FF90EF9095
:1004E000DF90CF90BF90AF909F908F9008950F9323
:1004F0001F93CF93DF93C0E0D0E0082F10E0C80136
:100500000C2E02C0959587950A94E2F78170992781
:100510002091000130910101A901417055273695C4
:1005200027954817590721F048E0242744E8342745
:10053000309301012093000120910201892B29F4BD
:10054000222349F080E090E004C0222321F081E0E2
:1005500090E00E9402022196C830D10581F6DF9119
:10056000CF911F910F9108950E94CE041F920F9278
:100570000FB60F9211242F933F938F939F93AF93B6
:10058000BF938091730190917401A0917501B09116
:1005900076013091720123E0230F2D3720F401966C
:1005A000A11DB11D05C026E8230F0296A11DB11D96
:1005B000209372018093730190937401A09375014D
:1005C000B09376018091770190917801A0917901A3
:1005D000B0917A010196A11DB11D8093770190938E
:1005E0007801A0937901B0937A01BF91AF919F9167
:1005F0008F913F912F910F900FBE0F901F901895E4
:100600001F920F920FB60F9211242F933F934F9387
:100610005F936F937F938F939F93AF93BF93EF936A
:10062000FF938BE791E00E943601FF91EF91BF911C
:10063000AF919F918F917F916F915F914F913F917A
:100640002F910F900FBE0F901F9018951F920F9231
:100650000FB60F9211242F938F939F93EF93FF93D5
:10066000E0918B01F0918C018081E0919101F091FA
:10067000920182FD12C09081809194018F5F8F73EF
:1006800020919501821751F0E0919401F0E0E55836
:10069000FE4F958F8093940101C08081FF91EF916F
:1006A0009F918F912F910F900FBE0F901F901895D3
:1006B000789484B5826084BD84B5816084BD85B53D
:1006C000826085BD85B5816085BD80916E00816049
:1006D00080936E00109281008091810082608093EF
:1006E00081008091810081608093810080918000F1
:1006F0008160809380008091B10084608093B1001C
:100700008091B00081608093B00080917A00846015
:1007100080937A0080917A00826080937A00809141
:100720007A00816080937A0080917A00806880935B
:100730007A001092C1008DE00E947D0082E00E944C
:100740007D00E0918B01F0918C0182E08083E0914B
:100750008701F09188011082E0918901F0918A016E
:1007600080E1808310929301E0918F01F0919001DC
:1007700086E08083E0918D01F0918E01808180611F
:100780008083E0918D01F0918E018081886080836B
:10079000E0918D01F0918E01808180688083E091ED
:1007A0008D01F0918E0180818F7D80830E949C005D
:1007B0004B015C0180EDC82E87E0D82EE12CF12C96
:1007C0000E949C00DC01CB0188199909AA09BB0988
:1007D000883E9340A105B10598F321E0C21AD108E3
:1007E000E108F10888EE880E83E0981EA11CB11C78
:1007F000C114D104E104F10419F788E191E00E94E9
:10080000F4010E94E301109202018FEF9FEF909399
:1008100001018093000182E80E94770280EA0E9431
:10082000770284EB0E94770288EA0E94770284E6CE
:100830000E94770286E60E94770280EE0E9477028D
:1008400088E90E94770286EA0E94770286EA0E947F
:10085000770288EA0E94770288EA0E9477028CE891
:100860000E94770282E70E9477028EEA0E94770256
:1008700082E90E94770288E80E9477028AE80E9453
:10088000770284E60E94770280E40E94770285E086
:100890000E94770283E00E94770280EF0E94770235
:1008A0008EE20E94770281E080930201C0910001F4
:1008B000D0910101C095D095D0930101C093000162
:1008C0008C2F0E9477028D2F0E94770288E391E09F
:1008D0000E94F40186E491E00E94F4010E94E30189
:1008E00081E691E00E94F4010E94E3010E94C701A9
:1008F000FDCFEBE7F1E01382128288EE93E0A0E0F7
:10090000B0E084839583A683B78387E091E09183E9
:10091000808385EC90E09587848784EC90E09787CE
:10092000868780EC90E0918B808B81EC90E0938BBC
:10093000828B82EC90E0958B848B86EC90E0978B99
:10094000868B118E128E138E148E0895A1E21A2EAC
:10095000AA1BBB1BFD010DC0AA1FBB1FEE1FFF1F63
:10096000A217B307E407F50720F0A21BB30BE40BB3
:10097000F50B661F771F881F991F1A9469F76095FA
:100980007095809590959B01AC01BD01CF010895B4
:10099000EE0FFF1F0590F491E02D099481E090E0A7
:0A09A000F8940C94D304F894FFCFF0
:1009AA00FFFF01000000005801C100EF00A501206F
:1009BA0001FE0012010D0A005072696E74696E67B9
:1009CA002043524331362D434349545420626974BB
:1009DA002D73747265616D00202843616C63756CB8
:1009EA00617465642900313130303131313131304F
:1009FA003131303131312028446573697265642997
:100A0A00005072696E74696E672073746F707065D6
:020A1A00640076
:00000001FF
