:100000000C9463000C948B000C948B000C94CC0328
:100010000C94CC030C94CC030C948B000C948B00AC
:100020000C948B000C948B000C948B000C948B0024
:100030000C948B000C948B000C948B000C948B0014
:100040000C942A030C948B000C949A030C94740364
:100050000C948B000C948B000C948B000C948B00F4
:100060000C948B000C948B0000000008000201002F
:100070000003040700000000000000000000000072
:1000800023002600290000000000240027002A0089
:1000900000000000250028002B00040404040404D0
:1000A0000404020202020202030303030303010227
:1000B00004081020408001020408102001020408F6
:1000C00010209304720811241FBECFEFD8E0DEBFCA
:1000D000CDBF12E0A0E0B1E0EEE7F7E102C005908D
:1000E0000D92A837B107D9F724E0A8E7B2E001C024
:1000F0001D92A136B207E1F710E0C2E6D0E004C0DD
:100100002197FE010E94B608C136D107C9F70E94A7
:1001100075050C94B20B0C940000CF92DF92EF9215
:10012000FF920F931F93CF93DF936C017A018B01A2
:10013000C0E0D0E0CE15DF0581F0D8016D918D01D2
:10014000D601ED91FC910190F081E02DC601099559
:10015000892B11F02196EECF7E01C701DF91CF915F
:100160001F910F91FF90EF90DF90CF900895FC01C9
:10017000538D448D252F30E0842F90E0821B930B0C
:10018000541710F0CF96089501970895FC01918DB2
:10019000828D981761F0828DDF01A80FB11D5D96E9
:1001A0008C91928D9F5F9F73928F90E008958FEF57
:1001B0009FEF0895FC01918D828D981731F0828D0B
:1001C000E80FF11D858D90E008958FEF9FEF089562
:1001D000FC01918D228D892F90E0805C9F4F821BC6
:1001E00091098F739927089585EA93E00E94E800AA
:1001F00021E0892B09F420E0822F0895FC01848DF1
:10020000DF01A80FB11DA35ABF4F2C91848D90E040
:1002100001968F739927848FA689B7892C93A0891B
:10022000B1898C91837080648C93938D848D9813A5
:1002300006C00288F389E02D80818F7D8083089538
:10024000EF92FF920F931F93CF93DF93EC0181E026
:10025000888F9B8D8C8D981305C0E889F9898081E2
:1002600085FD26C0F62E0B8D10E00F5F1F4F0F731C
:100270001127E02E8C8DE8120CC00FB607FCFACFC8
:10028000E889F989808185FFF5CFCE010E94FE00C3
:10029000F1CF8B8DFE01E80FF11DE35AFF4FF08285
:1002A0009FB7F8940B8FEA89FB89808180620AC02E
:1002B0009FB7F894EE89FF896083E889F989808186
:1002C0008370806480839FBF81E090E0DF91CF9155
:1002D0001F910F91FF90EF9008956EE285EA93E0F1
:1002E0000C942001CF93DF93EC01888D8823C9F013
:1002F000EA89FB89808185FD05C0A889B9898C912F
:1003000086FD0FC00FB607FCF5CF808185FFF2CFC9
:10031000A889B9898C9185FFEDCFCE010E94FE009E
:10032000E7CFDF91CF91089580E090E0892B29F00D
:100330000E94F40081110C94000008952091BA02EB
:100340003091BB022817390771F49091B80280915F
:10035000B902981741F0E091B802F0E0E858FD4F7B
:10036000808190E008958FEF9FEF089508951F9387
:10037000CF93DF93DC015C968D919C915D97009704
:1003800039F421E030E013963C932E9312973BC052
:100390005196ED91FC91529750962C915097322F97
:1003A00030951FB75E964C915E97742F727041FD29
:1003B0006095F8944081772311F0422B01C04323CC
:1003C0004083EC012197F1F748E0508160FF02C0C3
:1003D000522B01C053235083EC012197F1F766950E
:1003E000415099F78081772319F08323808302C0DD
:1003F000282B20831FBF5C968D919C915D97019760
:10040000F1F781E090E0DF91CF911F910895209165
:10041000BA023091BB022817390771F48091B902F2
:100420002091B80290E0805C9F4F821B910960E4AC
:1004300070E00E948E08089580E090E00895209179
:10044000BA023091BB0228173907B9F49091B8026B
:100450008091B902981789F0E091B802F0E0E8586D
:10046000FD4F80812091B80230E02F5F3F4F2F7306
:1004700033272093B80290E008958FEF9FEF0895FF
:10048000089580E090E00895009769F0FC010190E4
:100490000020E9F73197AF01481B590BBC0185EAF1
:1004A00093E00C948D0080E090E00895CF93DF936B
:1004B0000E944402EC0184E291E00E9444028C0F0D
:1004C0009D1FDF91CF9108950E94BC080F931F9349
:1004D000CF93DF93CDB7DEB7CC52D1400FB6F894AF
:1004E000DEBF0FBECDBF8DEB92E09F938F9387E26F
:1004F00091E09F938F938E010F5F1F4F1F930F9378
:100500000E94C80883E593E09F938F931F930F93F6
:100510008BE291E09F938F931F930F930E94C808E3
:1005200080915D03282F082E000C330B3F938F938F
:100530001F930F9386E491E09F938F931F930F93E4
:100540000E94C8088EE593E09F938F931F930F93AB
:1005500089E591E09F938F931F930F930E94C808A2
:1005600080916D03282F082E000C330B3F938F933F
:100570001F930F938FE691E09F938F931F930F9399
:100580000E94C8080FB6F894DEBF0FBECDBF8EE63E
:1005900093E09F938F931F930F9380E891E09F9335
:1005A0008F931F930F930E94C80880917D03282F7B
:1005B000082E000C330B3F938F931F930F9387E903
:1005C00091E09F938F931F930F930E94C8088EE72B
:1005D00093E09F938F931F930F9388EA91E09F93EB
:1005E0008F931F930F930E94C80888E893E09F930E
:1005F0008F931F930F9383EC91E09F938F931F939F
:100600000F930E94C8080FB6F894DEBF0FBECDBF8F
:1006100082E993E09F938F931F930F9380EE91E075
:100620009F938F931F930F930E94C808C8010E9445
:1006300056020FB6F894DEBF0FBECDBFC45DDE4FCD
:100640000FB6F894DEBF0FBECDBFDF91CF911F91E3
:100650000F9108951F920F920FB60F9211242F93AE
:100660003F938F939F93AF93BF938091A1039091FA
:10067000A203A091A303B091A4033091A00323E0AF
:10068000230F2D3720F40196A11DB11D05C026E8CA
:10069000230F0296A11DB11D2093A0038093A103F7
:1006A0009093A203A093A303B093A40380919C030F
:1006B00090919D03A0919E03B0919F030196A11D6F
:1006C000B11D80939C0390939D03A0939E03B093D0
:1006D0009F03BF91AF919F918F913F912F910F9069
:1006E0000FBE0F901F9018951F920F920FB60F928A
:1006F00011242F933F934F935F936F937F938F9327
:100700009F93AF93BF93EF93FF9385EA93E00E948B
:10071000FE00FF91EF91BF91AF919F918F917F91DB
:100720006F915F914F913F912F910F900FBE0F905E
:100730001F9018951F920F920FB60F9211242F93AE
:100740008F939F93EF93FF93E091B503F091B603DE
:100750008081E091BB03F091BC0382FD12C09081C7
:100760008091BE038F5F8F732091BF03821751F07A
:10077000E091BE03F0E0EB55FC4F958F8093BE03F4
:1007800001C08081FF91EF919F918F912F910F90E8
:100790000FBE0F901F9018951F920F920FB60F92D9
:1007A00011242F933F934F935F936F937F938F9376
:1007B0009F93AF93BF93EF93FF93E091BA02F091B1
:1007C000BB02309709F451C0968DA685B785858503
:1007D00091FF04C09C91892329F447C09C918923EF
:1007E00009F043C0A389B4899C91858980958923A8
:1007F0008C93868997890197F1F7608D718DA68515
:10080000B785558538E020E0CB010197F1F7822FBD
:1008100090E095958795282F4C91452309F0206805
:10082000315091F7868D81FD20958091B90290E03D
:1008300001968F7399273091B802381749F0A0912B
:10084000B902B0E0A858BD4F2C938093B90203C001
:10085000868D8160868F828D938D0197F1F7A389B4
:10086000B4899C918589892B8C93FF91EF91BF91DD
:10087000AF919F918F917F916F915F914F913F9138
:100880002F910F900FBE0F901F90189590E0FC01D4
:10089000E859FF4F2491FC01E255FF4F3491FC01D0
:1008A000E656FF4FE491EE2309F43CC0222339F1D0
:1008B000233091F038F42130A9F0223001F584B5CD
:1008C0008F7D12C0273091F02830A1F02430B9F488
:1008D000809180008F7D03C0809180008F7780930E
:1008E00080000DC084B58F7784BD09C08091B000B1
:1008F0008F7703C08091B0008F7D8093B000F0E0CF
:10090000EE0FFF1FE057FF4FA591B4919FB7F894EA
:10091000611104C08C913095382302C0EC913E2BBC
:100920003C939FBF0895CF93DF931092A80310923A
:10093000A70388EE93E0A0E0B0E08093A903909332
:10094000AA03A093AB03B093AC0324E031E030934F
:10095000A6032093A50325EC30E03093B203209347
:10096000B10324EC30E03093B4032093B30320ECC4
:1009700030E03093B6032093B50321EC30E03093A0
:10098000B8032093B70322EC30E03093BA032093EE
:10099000B90326EC30E03093BC032093BB031092E4
:1009A000BE031092BF031092C0031092C1031092B5
:1009B0004504109244048093460490934704A09306
:1009C0004804B093490486E191E0909343048093F6
:1009D0004204109259041092580410925B04109231
:1009E0005A0410925D0410925C0410925F041092FD
:1009F0005E04609160046E7F6D7F60936004669515
:100A0000617081E0682789E00E944604E7EBF0E02E
:100A10002491E3EAF0E08491882399F090E0880F34
:100A2000991FFC01EA57FF4FA591B491FC01E057D3
:100A3000FF4F859194918FB7F894EC91E22BEC9352
:100A40008FBFE7EBF0E0E491E0935204E3EAF0E0DB
:100A5000E491F0E0EE0FFF1FE057FF4F8591949176
:100A60009093540480935304E6EBF0E02491E2EA7F
:100A7000F0E084918823C1F090E0880F991FFC0179
:100A8000EA57FF4FC591D491FC01E057FF4FA59164
:100A9000B4919FB7F8948881E22FE0958E238883E4
:100AA0008C91E823EC939FBF8091600481FD04C08A
:100AB00061E088E00E94460488E080934E04E6EB03
:100AC000F0E0E491E0934F04E2EAF0E0E491F0E03A
:100AD000EE0FFF1FE458FF4F8591949190935104BE
:100AE00080935004DF91CF910895CF93DF93CDB7DA
:100AF000DEB7C65CD1400FB6F894DEBF0FBECDBFE7
:100B0000789484B5826084BD84B5816084BD85B5E8
:100B1000826085BD85B5816085BD80916E008160F4
:100B200080936E001092810080918100826080939A
:100B3000810080918100816080938100809180009C
:100B40008160809380008091B10084608093B100C7
:100B50008091B00081608093B00080917A008460C1
:100B600080937A0080917A00826080937A008091ED
:100B70007A00816080937A0080917A008068809307
:100B80007A001092C100E091B503F091B60382E0C3
:100B90008083E091B103F091B2031082E091B3033E
:100BA000F091B40380E180831092BD03E091B9031A
:100BB000F091BA0386E08083E091B703F091B80327
:100BC000808180618083E091B703F091B8038081D8
:100BD00088608083E091B703F091B80380818068DA
:100BE0008083E091B703F091B80380818F7D80838B
:100BF00086E092E00E9456028DEF91E00E9444024E
:100C000088E092E00E94560283E492E00E9444024F
:100C10008EE492E00E94560286E092E00E94560224
:100C20008AE592E00E94560210925D0410925C04E4
:100C300010925B0410925A041092590410925804B6
:100C40008DE991E090935F0480935E0490914E044F
:100C5000963108F058C02DEB30E0309359042093C2
:100C600058042BE931E030935B0420935A042CE2C2
:100C700031E030935D0420935C044091680098302B
:100C800058F031E09E3008F430E021E0822F01C0BE
:100C9000880F3A95EAF701C084E0842B80936800BE
:100CA000983038F09E3040F0963148F020E030E047
:100CB00008C02DE630E005C02BE630E002C02CE68F
:100CC00030E03093560420935504983030F481E09E
:100CD00001C0880F9A95EAF70EC0292F30E09E30A8
:100CE00018F42850310902C02E50310981E001C0AA
:100CF000880F2A95EAF78093570480915E049091BB
:100D00005F040197F1F780915C0490915D04892B59
:100D100049F1E091BA02F091BB0284E0E234F807B5
:100D200009F1309739F0A389B4899C918589809520
:100D300089238C93809160048E7F8093600410924D
:100D4000B9021092B80282E494E09093BB028093BF
:100D5000BA02E0915504F0915604908180915704B5
:100D6000892B80838E010F511F4F6E01E9E8CE1A47
:100D7000EEEFDE0A5601F4E1AF0EB11CF80111925C
:100D8000EC15FD05E1F782E494E00E9407021816D5
:100D90001906CCF782E494E00E941F02F82E84E248
:100DA000F812F1CFF801F08288248394912C82E428
:100DB00094E00E9407021816190664F482E494E095
:100DC0000E941F02F82EF801E80DF91D8083FFEF45
:100DD0008F1A9F0A86E08816910431F4F801858104
:100DE000833411F019826DC1FAE0FF1211C0740151
:100DF00081E0E81AF108B801CE0102960E94C1080C
:100E0000DE01A156BE4FCD010A96FD014D0104C081
:100E1000EDE0FE12CCCFEBCF1192E817F907E1F726
:100E2000F80180E090E021912C3221F00196863982
:100E30009105C9F70196F801E80FF91F81918C32ED
:100E400011F08D93FBCF0E946D01B401CE01885645
:100E50009F4F0E94C108D801FD01E01BF10B8D914D
:100E60008C32D1F73196E00FF11FCF01801B910B2F
:100E700021912C32D1F7E2EEF0E0EC0FFD1FE80FEC
:100E8000F91F90800E946D01CE55DF4F9882C25AA3
:100E9000D040D601F6011192AE16BF06E1F723E06D
:100EA00030E080E090E0F801E80FF91FCF01801BEF
:100EB000910B41914C32D1F701962150310999F7AC
:100EC000F801E80FF91F81918C3211F08D93FBCF5F
:100ED0000E946D01B601CE018D559F4F0E94C10841
:100EE00024E030E080E090E0F801E80FF91FCF0146
:100EF000801B910B41914C32D1F701962150310961
:100F000099F7F801E80FF91F9080FCE29F1201C0E9
:100F1000912C0E946D01CE54DF4F9882C25BD0406D
:100F2000DE01A557BE4FCD014496FD014D01119242
:100F30008E179F07E1F725E030E080E090E0F801B0
:100F4000E80FF91FCF01801B910B41914C32D1F773
:100F500001962150310999F7F801E80FF91F8191A5
:100F60008C3211F08D93FBCF0E946D01B401CE0144
:100F70008D549F4F0E94C10826E030E080E090E051
:100F8000F801E80FF91FCF01801B910B41914C3202
:100F9000D1F701962150310999F7F801E80FF91FAF
:100FA00090808CE2981201C0912C0E946D01CE536A
:100FB000DF4F9882C25CD040DE01A755BE4FCD0105
:100FC0000A96FD014D0111928E179F07E1F727E068
:100FD00030E080E090E0F801E80FF91FCF01801BBE
:100FE000910B41914C32D1F701962150310999F77B
:100FF000F801E80FF91F81918C3211F08D93FBCF2E
:101000000E946D01B401CE018D539F4F0E94C10813
:10101000DE01AD54BE4FCD010A96FD014D01119286
:101020008E179F07E1F728E030E080E090E0F801BC
:10103000E80FF91FCF01801B910B41914C32D1F782
:1010400001962150310999F7F801E80FF91F8191B4
:101050008C3211F08D93FBCF0E946D01B401CE0153
:1010600083539F4F0E94C108DE01A354BE4FCD01A0
:101070000A96FD014D011192E817F907E1F729E001
:1010800030E080E090E0F801E80FF91FCF01801B0D
:10109000910B41914C32D1F701962150310999F7CA
:1010A000F801E80FF91F81918C3211F08D93FBCF7D
:1010B0000E946D01B401CE0189529F4F0E94C10868
:1010C000E98280EEFE013196ACEBB2E001900D9228
:1010D0008A95E1F78091BC0281110E9466020E940C
:1010E00094014CCE86E191E09093430480934204B6
:1010F0008091BA029091BB028254944071F4E091C5
:101100005504F0915604908180915704809589236D
:1011100080831092BB021092BA02089597FB072EAB
:1011200016F4009407D077FD09D00E94A20807FCAE
:1011300005D03EF4909581959F4F089570956195E7
:101140007F4F0895AA1BBB1B51E107C0AA1FBB1FFD
:10115000A617B70710F0A61BB70B881F991F5A9543
:10116000A9F780959095BC01CD010895EE0FFF1F62
:101170000590F491E02D099481E090E0F8940C94AE
:10118000B20BFB01DC0101900D920020E1F7089504
:10119000AEE0B0E0EEECF8E00C94890B0D891E890E
:1011A00086E08C831A8309838FEF9FE79E838D836C
:1011B000AE01475E5F4F6F89788DCE0101960E9428
:1011C000EA08EF81F885E00FF11F10822E96E4E027
:1011D0000C94A50BABE0B0E0E0EFF8E00C947B0BD7
:1011E0006C017B018A01FC0117821682838181FFD9
:1011F000CCC1CE0101963C01F6019381F70193FD2C
:10120000859193FF81917F01882309F4BAC18532CA
:1012100039F493FD859193FF81917F01853229F403
:10122000B60190E00E94E10AE7CF912C212C312CED
:10123000FFE1F315D8F08B3279F038F4803279F091
:101240008332A1F4232D20611DC08D3261F08033E3
:1012500069F4232D216016C0832D8260382EE32D82
:10126000E4603E2E2AC0F32DF8601DC037FC2DC06F
:1012700020ED280F2A3040F08E32B9F436FC81C1BF
:10128000232D2064322E19C036FE06C08AE0989EB7
:10129000200D1124922E11C0EAE02E9E200D112463
:1012A000222EF32DF0623F2E08C08C3621F4832DC0
:1012B0008068382E02C0883641F4F70193FD85918D
:1012C00093FF81917F018111B3CF982F9F7D95541A
:1012D000933028F40C5F1F4F9FE399830DC0833632
:1012E00031F0833771F0833509F059C021C0F8011E
:1012F000808189830E5F1F4F88248394912C530132
:1013000013C02801F2E04F0E511CF801A080B180FB
:1013100036FE03C0692D70E002C06FEF7FEFC5019C
:101320000E94D60A4C018201F32DFF773F2E16C092
:10133000280122E0420E511CF801A080B18036FE47
:1013400003C0692D70E002C06FEF7FEFC5010E94FE
:10135000CB0A4C01F32DF0683F2E820133FC1BC0F9
:10136000822D90E088169906B0F4B60180E290E0F4
:101370000E94E10A2A94F4CFF50137FC859137FEEB
:1013800081915F01B60190E00E94E10A21102A9448
:1013900021E0821A91088114910471F7E8C0843623
:1013A00011F0893641F5F80137FE07C0608171817F
:1013B000828193810C5F1F4F08C060817181072E6D
:1013C000000C880B990B0E5F1F4FF32DFF763F2EFD
:1013D00097FF09C090958095709561957F4F8F4FCD
:1013E0009F4FF0683F2E2AE030E0A3010E941D0BC2
:1013F000882E861845C0853731F4232D2F7EB22ED6
:101400002AE030E025C0932D997FB92E8F36C1F0A8
:1014100018F4883579F0B5C0803719F0883721F095
:10142000B0C0E92FE061BE2EB4FE0DC0FB2DF4600C
:10143000BF2E09C034FE0AC0292F2660B22E06C076
:1014400028E030E005C020E130E002C020E132E0D9
:10145000F801B7FE07C060817181828193810C5FC2
:101460001F4F06C06081718180E090E00E5F1F4FCA
:10147000A3010E941D0B882E8618FB2DFF773F2E9F
:1014800036FE0DC0232D2E7FA22E891458F434FE73
:101490000BC032FC09C0832D8E7EA82E05C0B82C4F
:1014A000A32C03C0B82C01C0B92CA4FE0FC0FE01B0
:1014B000E80DF11D8081803321F49A2D997EA92EAB
:1014C00009C0A2FE06C0B394B39404C08A2D8678E6
:1014D00009F0B394A3FC11C0A0FE06C0B21488F4B6
:1014E000280C922C9B180EC0B21460F4B60180E256
:1014F00090E00E94E10AB394F7CFB21418F42B18CD
:1015000002C0982C212CA4FE10C0B60180E390E00C
:101510000E94E10AA2FE17C0A1FC03C088E790E088
:1015200002C088E590E0B6010CC08A2D867859F09B
:10153000A1FE02C08BE201C080E2A7FC8DE2B601F1
:1015400090E00E94E10A891438F4B60180E390E04B
:101550000E94E10A9A94F7CF8A94F301E80DF11DF5
:101560008081B60190E00E94E10A8110F5CF22202F
:1015700009F442CEB60180E290E00E94E10A2A948A
:10158000F6CFF6018681978102C08FEF9FEF2B96F1
:10159000E2E10C94970BFC01059061507040011042
:1015A000D8F7809590958E0F9F1F0895FC0161508C
:1015B000704001900110D8F7809590958E0F9F1F75
:1015C00008950F931F93CF93DF93FB01238121FD98
:1015D00003C08FEF9FEF2CC022FF16C046815781BA
:1015E000248135814217530744F4A081B1819D01C4
:1015F0002F5F3F4F318320838C93268137812F5F6C
:101600003F4F3783268314C08B01EC01FB0100841C
:10161000F185E02D0995892BE1F6D80116968D917B
:101620009C911797019617969C938E931697CE01CF
:10163000DF91CF911F910F910895FA01AA272830C9
:1016400051F1203181F1E8946F936E7F6E5F7F4F8F
:101650008F4F9F4FAF4FB1E03ED0B4E03CD0670F0B
:10166000781F891F9A1FA11D680F791F8A1F911D5E
:10167000A11D6A0F711D811D911DA11D20D009F4AE
:1016800068943F912AE0269F11243019305D3193F0
:10169000DEF6CF010895462F4770405D4193B3E0D9
:1016A0000FD0C9F7F6CF462F4F70405D4A3318F080
:1016B000495D31FD4052419302D0A9F7EACFB4E031
:1016C000A6959795879577956795BA95C9F70097E9
:1016D0006105710508959B01AC010A2E069457958A
:1016E000479537952795BA95C9F7620F731F841FE1
:1016F000951FA01D08952F923F924F925F926F9277
:101700007F928F929F92AF92BF92CF92DF92EF9291
:10171000FF920F931F93CF93DF93CDB7DEB7CA1B12
:10172000DB0B0FB6F894DEBF0FBECDBF09942A883D
:10173000398848885F846E847D848C849B84AA84E5
:10174000B984C884DF80EE80FD800C811B81AA8172
:10175000B981CE0FD11D0FB6F894DEBF0FBECDBF3D
:10176000ED01089510E0C2E6D0E004C0FE010E9441
:0E177000B6082196C336D107C9F7F894FFCF0B
:10177E000000000020018D00B7007201E800C600D5
:10178E00DA0000000000B7018D004102B601070229
:10179E001F029E010D0A000A2573002573200A20E0
:1017AE004750532054696D65202848484D4D53537A
:1017BE00293A202573002573200A204750532056BE
:1017CE00616C69643A202563002573200A20475016
:1017DE0053204C617469747564653A202573002535
:1017EE0073200A20475053204E2F533A2025630072
:1017FE002573200A20475053204C6F6E676974750D
:10180E0064653A202573002573200A204750532023
:10181E00452F573A202563002573200A2047505341
:10182E0020537065656420286B6E6F7473293A209F
:10183E002573002573200A2047505320436F75727D
:10184E0073652028646567726565293A20257300E3
:10185E002573200A20475053204461746520284484
:10186E00444D4D5959293A202573200A00536B6572
:10187E007463683A202020002F686F6D652F6861B1
:10188E006E64696B6F2F41726475696E6F2D45784A
:10189E00706572696D656E742F4750535F53747225
:1018AE007563742F4750535F5374727563742E694A
:1018BE006E6F0055706C6F616465643A20004A610A
:1018CE006E2032322032303139004750532053745B
:1018DE00727563742054657374202D205374617275
:0818EE007465642021200A004A
:107E0000112484B714BE81FFF0D085E080938100F7
:107E100082E08093C00088E18093C10086E0809377
:107E2000C20080E18093C4008EE0C9D0259A86E02C
:107E300020E33CEF91E0309385002093840096BBD3
:107E4000B09BFECF1D9AA8958150A9F7CC24DD24C4
:107E500088248394B5E0AB2EA1E19A2EF3E0BF2EE7
:107E6000A2D0813461F49FD0082FAFD0023811F036
:107E7000013811F484E001C083E08DD089C08234E0
:107E800011F484E103C0853419F485E0A6D080C0E4
:107E9000853579F488D0E82EFF2485D0082F10E0AE
:107EA000102F00270E291F29000F111F8ED06801E7
:107EB0006FC0863521F484E090D080E0DECF843638
:107EC00009F040C070D06FD0082F6DD080E0C81688
:107ED00080E7D80618F4F601B7BEE895C0E0D1E017
:107EE00062D089930C17E1F7F0E0CF16F0E7DF06D8
:107EF00018F0F601B7BEE89568D007B600FCFDCFD4
:107F0000A601A0E0B1E02C9130E011968C91119780
:107F100090E0982F8827822B932B1296FA010C0160
:107F200087BEE89511244E5F5F4FF1E0A038BF0790
:107F300051F7F601A7BEE89507B600FCFDCF97BE46
:107F4000E89526C08437B1F42ED02DD0F82E2BD052
:107F50003CD0F601EF2C8F010F5F1F4F84911BD097
:107F6000EA94F801C1F70894C11CD11CFA94CF0C13
:107F7000D11C0EC0853739F428D08EE10CD085E9AC
:107F80000AD08FE07ACF813511F488E018D01DD067
:107F900080E101D065CF982F8091C00085FFFCCF94
:107FA0009093C60008958091C00087FFFCCF809118
:107FB000C00084FD01C0A8958091C6000895E0E648
:107FC000F0E098E1908380830895EDDF803219F02E
:107FD00088E0F5DFFFCF84E1DECF1F93182FE3DFCA
:107FE0001150E9F7F2DF1F91089580E0E8DFEE27F6
:047FF000FF270994CA
:027FFE00040479
:0400000300007E007B
:00000001FF
