:100000000C9463000C948B000C948B000C940303F1
:100010000C9403030C9403030C948B000C948B003E
:100020000C948B000C948B000C948B000C948B0024
:100030000C948B000C948B000C948B000C948B0014
:100040000C9461020C948B000C94D1020C94AB02C2
:100050000C948B000C948B000C948B000C948B00F4
:100060000C948B000C948B0000000008000201002F
:100070000003040700000000000000000000000072
:1000800023002600290000000000240027002A0089
:1000900000000000250028002B00040404040404D0
:1000A0000404020202020202030303030303010227
:1000B00004081020408001020408102001020408F6
:1000C0001020CA03610611241FBECFEFD8E0DEBFA7
:1000D000CDBF11E0A0E0B1E0EAE7FDE002C005908D
:1000E0000D92A43CB107D9F722E0A4ECB1E001C025
:1000F0001D92AD3CB207E1F710E0C2E6D0E004C0CB
:100100002197FE010E94A506C136D107C9F70E94BA
:10011000AC040C94B0060C940000CF92DF92EF92E6
:10012000FF920F931F93CF93DF936C017A018B01A2
:10013000C0E0D0E0CE15DF0581F0D8016D918D01D2
:10014000D601ED91FC910190F081E02DC601099559
:10015000892B11F02196EECF7E01C701DF91CF915F
:100160001F910F91FF90EF90DF90CF900895FC01C9
:10017000538D448D252F30E0842F90E0821B930B0C
:10018000541710F0CF96089501970895FC01918DB2
:10019000828D981761F0828DDF01A80FB11D5D96E9
:1001A0008C91928D9F5F9F73928F90E008958FEF57
:1001B0009FEF0895FC01918D828D981731F0828D0B
:1001C000E80FF11D858D90E008958FEF9FEF089562
:1001D000FC01918D228D892F90E0805C9F4F821BC6
:1001E00091098F739927089581E192E00E94E800B8
:1001F00021E0892B09F420E0822F0895FC01848DF1
:10020000DF01A80FB11DA35ABF4F2C91848D90E040
:1002100001968F739927848FA689B7892C93A0891B
:10022000B1898C91837080648C93938D848D9813A5
:1002300006C00288F389E02D80818F7D8083089538
:10024000EF92FF920F931F93CF93DF93EC0181E026
:10025000888F9B8D8C8D981305C0E889F9898081E2
:1002600085FD26C0F62E0B8D10E00F5F1F4F0F731C
:100270001127E02E8C8DE8120CC00FB607FCFACFC8
:10028000E889F989808185FFF5CFCE010E94FE00C3
:10029000F1CF8B8DFE01E80FF11DE35AFF4FF08285
:1002A0009FB7F8940B8FEA89FB89808180620AC02E
:1002B0009FB7F894EE89FF896083E889F989808186
:1002C0008370806480839FBF81E090E0DF91CF9155
:1002D0001F910F91FF90EF900895CF93DF93EC0162
:1002E000888D8823C9F0EA89FB89808185FD05C056
:1002F000A889B9898C9186FD0FC00FB607FCF5CF90
:10030000808185FFF2CFA889B9898C9185FFEDCFD7
:10031000CE010E94FE00E7CFDF91CF91089580E0EB
:1003200090E0892B29F00E94F40081110C940000C8
:10033000089520910602309107022817390771F4B9
:100340009091040280910502981741F0E091040217
:10035000F0E0EC53FE4F808190E008958FEF9FEF27
:10036000089508951F93CF93DF93DC015C968D91E0
:100370009C915D97009739F421E030E013963C930F
:100380002E9312973BC05196ED91FC915297509647
:100390002C915097322F30951FB75E964C915E97F7
:1003A000742F727041FD6095F8944081772311F0AD
:1003B000422B01C043234083EC012197F1F748E031
:1003C000508160FF02C0522B01C053235083EC01C7
:1003D0002197F1F76695415099F78081772319F0BD
:1003E0008323808302C0282B20831FBF5C968D91BE
:1003F0009C915D970197F1F781E090E0DF91CF91BB
:100400001F9108952091060230910702281739079D
:1004100071F4809105022091040290E0805C9F4F6E
:10042000821B910960E470E00E947D06089580E0DF
:1004300090E00895209106023091070228173907AD
:10044000B9F49091040280910502981789F0E09127
:100450000402F0E0EC53FE4F80812091040230E072
:100460002F5F3F4F2F7333272093040290E00895AE
:100470008FEF9FEF0895089580E090E00895009732
:1004800069F0FC0101900020E9F73197AF01481BAA
:10049000590BBC0181E192E00C948D0080E090E06A
:1004A0000895CF93DF930E943F02EC0184E291E034
:1004B0000E943F028C0F9D1FDF91CF9108950E94F3
:1004C000AB061F920F920FB60F9211242F933F93FA
:1004D0008F939F93AF93BF9380910D0290910E02E3
:1004E000A0910F02B091100230910C0223E0230F73
:1004F0002D3720F40196A11DB11D05C026E8230F5C
:100500000296A11DB11D20930C0280930D029093C1
:100510000E02A0930F02B0931002809108029091F6
:100520000902A0910A02B0910B020196A11DB11D12
:100530008093080290930902A0930A02B0930B02E1
:10054000BF91AF919F918F913F912F910F900FBECF
:100550000F901F9018951F920F920FB60F921124B3
:100560002F933F934F935F936F937F938F939F93BB
:10057000AF93BF93EF93FF9381E192E00E94FE005F
:10058000FF91EF91BF91AF919F918F917F916F916B
:100590005F914F913F912F910F900FBE0F901F9041
:1005A00018951F920F920FB60F9211242F938F93CD
:1005B0009F93EF93FF93E0912102F09122028081BB
:1005C000E0912702F091280282FD12C09081809173
:1005D0002A028F5F8F7320912B02821751F0E091D6
:1005E0002A02F0E0EF5EFD4F958F80932A0201C052
:1005F0008081FF91EF919F918F912F910F900FBE6E
:100600000F901F9018951F920F920FB60F92112402
:100610002F933F934F935F936F937F938F939F930A
:10062000AF93BF93EF93FF93E0910602F09107021F
:10063000309709F451C0968DA685B785858591FFC1
:1006400004C09C91892329F447C09C91892309F017
:1006500043C0A389B4899C918589809589238C9313
:10066000868997890197F1F7608D718DA685B78589
:10067000558538E020E0CB010197F1F7822F90E01B
:1006800095958795282F4C91452309F02068315086
:1006900091F7868D81FD20958091050290E001966D
:1006A0008F73992730910402381749F0A091050201
:1006B000B0E0AC53BE4F2C938093050203C0868DEF
:1006C0008160868F828D938D0197F1F7A389B4891C
:1006D0009C918589892B8C93FF91EF91BF91AF916C
:1006E0009F918F917F916F915F914F913F912F914A
:1006F0000F900FBE0F901F90189590E0FC01E859E5
:10070000FF4F2491FC01E255FF4F3491FC01E65666
:10071000FF4FE491EE2309F43CC0222339F123304A
:1007200091F038F42130A9F0223001F584B58F7DA5
:1007300012C0273091F02830A1F02430B9F4809114
:1007400080008F7D03C0809180008F778093800030
:100750000DC084B58F7784BD09C08091B0008F77BC
:1007600003C08091B0008F7D8093B000F0E0EE0F69
:10077000FF1FE057FF4FA591B4919FB7F894611107
:1007800004C08C913095382302C0EC913E2B3C93F1
:100790009FBF0895CF93DF9310921402109213021B
:1007A00088EE93E0A0E0B0E08093150290931602EB
:1007B000A0931702B093180224E031E030931202A4
:1007C0002093110225EC30E030931E0220931D028D
:1007D00024EC30E03093200220931F0220EC30E024
:1007E000309322022093210221EC30E03093240246
:1007F0002093230222EC30E030932602209325023E
:1008000026EC30E0309328022093270210922A022F
:1008100010922B0210922C0210922D021092B10213
:100820001092B0028093B2029093B302A093B402EC
:10083000B093B50286E191E09093AF028093AE024F
:100840001092C5021092C4021092C7021092C60202
:100850001092C9021092C8021092CB021092CA02E2
:100860006091CC026E7F6D7F6093CC026695617063
:1008700081E0682789E00E947D03E7EBF0E02491A6
:10088000E3EAF0E08491882399F090E0880F991FC3
:10089000FC01EA57FF4FA591B491FC01E057FF4FCF
:1008A000859194918FB7F894EC91E22BEC938FBFE4
:1008B000E7EBF0E0E491E093BE02E3EAF0E0E491DC
:1008C000F0E0EE0FFF1FE057FF4F8591949190935A
:1008D000C0028093BF02E6EBF0E02491E2EAF0E090
:1008E00084918823C1F090E0880F991FFC01EA579A
:1008F000FF4FC591D491FC01E057FF4FA591B491F2
:100900009FB7F8948881E22FE0958E2388838C919D
:10091000E823EC939FBF8091CC0281FD04C061E08D
:1009200088E00E947D0388E08093BA02E6EBF0E065
:10093000E491E093BB02E2EAF0E0E491F0E0EE0F34
:10094000FF1FE458FF4F859194919093BD028093CF
:10095000BC02DF91CF910895CF93DF93CDB7DEB77F
:10096000CA5AD1090FB6F894DEBF0FBECDBF789436
:1009700084B5826084BD84B5816084BD85B58260A4
:1009800085BD85B5816085BD80916E008160809355
:100990006E001092810080918100826080938100BE
:1009A00080918100816080938100809180008160CE
:1009B000809380008091B10084608093B100809129
:1009C000B00081608093B00080917A008460809351
:1009D0007A0080917A00826080937A0080917A0018
:1009E000816080937A0080917A00806880937A0099
:1009F0001092C100E0912102F091220282E08083F6
:100A0000E0911D02F0911E021082E0911F02F09110
:100A1000200280E1808310922902E0912502F0916A
:100A2000260286E08083E0912302F09124028081F7
:100A300080618083E0912302F091240280818860AC
:100A40008083E0912302F09124028081806880837A
:100A5000E0912302F091240280818F7D808380E3E6
:100A600091E00E94510287E291E00E943F0282E3FE
:100A700091E00E94510285E691E00E943F0280E7EA
:100A800091E00E94510280E391E00E9451028CE7C4
:100A900091E00E9451021092C9021092C802109275
:100AA000C7021092C6021092C5021092C4028DE9CC
:100AB00091E09093CB028093CA029091BA02963152
:100AC00008F058C02DEB30E03093C5022093C402EB
:100AD0002BE931E03093C7022093C6022CE231E0CB
:100AE0003093C9022093C80240916800983058F0B2
:100AF00031E09E3008F430E021E0822F01C0880F01
:100B00003A95EAF701C084E0842B8093680098301E
:100B100038F09E3040F0963148F020E030E008C0D8
:100B20002DE630E005C02BE630E002C02CE630E0D8
:100B30003093C2022093C102983030F481E001C0AA
:100B4000880F9A95EAF70EC0292F30E09E3018F4EE
:100B50002850310902C02E50310981E001C0880FB0
:100B60002A95EAF78093C3028091CA029091CB0242
:100B70000197F1F78091C8029091C902892B49F140
:100B8000E0910602F091070282E0EE3AF80709F1DF
:100B9000309739F0A389B4899C9185898095892300
:100BA0008C938091CC028E7F8093CC0210920502B0
:100BB000109204028EEA92E090930702809306025C
:100BC000E091C102F091C20290818091C302892B11
:100BD00080838E010F5F1F4F7E0187E9E80EF11CB5
:100BE000F8011192EE16FF06E1F78EEA92E00E94FC
:100BF000020218161906CCF78EEA92E00E941A0239
:100C0000D82E84E2D812F1CFD982AA24A394B12C91
:100C10008EEA92E00E9402021816190664F48EEA27
:100C200092E00E941A02D82EF801EA0DFB1D808383
:100C30008FEFA81AB80A86E0A816B10419F48E81BD
:100C40008334E1F58AE0D81619F08DE0D812E0CFB0
:100C5000C8010E9451028AE991E00E943F02C70147
:100C60000E94510286EA91E00E943F02D801FD01F4
:100C7000E01BF10B8D918C32D1F73196E00FF11F13
:100C8000CF01801B910B21912C32D1F7E2E0F0E0F3
:100C9000EC0FFD1FE80FF91F608181E192E00E94D7
:100CA000200184E291E00E943F0260E281E192E053
:100CB0000E94200184E291E00E943F020E948F0185
:100CC0008FCF86E191E09093AF028093AE02809146
:100CD0000602909107028E5A924071F4E091C1028F
:100CE000F091C20290818091C30280958923808314
:100CF0001092070210920602089597FB072E16F431
:100D0000009407D077FD09D00E94910607FC05D01A
:100D10003EF4909581959F4F0895709561957F4F12
:100D20000895AA1BBB1B51E107C0AA1FBB1FA61732
:100D3000B70710F0A61BB70B881F991F5A95A9F784
:100D400080959095BC01CD010895EE0FFF1F059091
:100D5000F491E02D099481E090E0F8940C94B006B1
:100D600010E0C2E6D0E004C0FE010E94A506219674
:0A0D7000C336D107C9F7F894FFCF8E
:100D7A000000000020018D00B7006D01E800C600E8
:100D8A00DA0000000000B2018D003C02B10102024B
:100D9A001A0299010D0A00536B657463683A2020A0
:100DAA0020002F746D702F61726475696E6F5F6DAC
:100DBA006F6469666965645F736B657463685F37DE
:100DCA0036333430352F4750535F5374727563741A
:100DDA002E696E6F0055706C6F616465643A20000D
:100DEA004A616E2032322032303139004750532066
:100DFA005374727563742054657374202D20537470
:100E0A0061727465642021200A00204750532054DF
:100E1A00494D453A200020475053206669782028DA
:100E2A00413D747275652C20563D66616C73652967
:040E3A003A2000005A
:107E0000112484B714BE81FFF0D085E080938100F7
:107E100082E08093C00088E18093C10086E0809377
:107E2000C20080E18093C4008EE0C9D0259A86E02C
:107E300020E33CEF91E0309385002093840096BBD3
:107E4000B09BFECF1D9AA8958150A9F7CC24DD24C4
:107E500088248394B5E0AB2EA1E19A2EF3E0BF2EE7
:107E6000A2D0813461F49FD0082FAFD0023811F036
:107E7000013811F484E001C083E08DD089C08234E0
:107E800011F484E103C0853419F485E0A6D080C0E4
:107E9000853579F488D0E82EFF2485D0082F10E0AE
:107EA000102F00270E291F29000F111F8ED06801E7
:107EB0006FC0863521F484E090D080E0DECF843638
:107EC00009F040C070D06FD0082F6DD080E0C81688
:107ED00080E7D80618F4F601B7BEE895C0E0D1E017
:107EE00062D089930C17E1F7F0E0CF16F0E7DF06D8
:107EF00018F0F601B7BEE89568D007B600FCFDCFD4
:107F0000A601A0E0B1E02C9130E011968C91119780
:107F100090E0982F8827822B932B1296FA010C0160
:107F200087BEE89511244E5F5F4FF1E0A038BF0790
:107F300051F7F601A7BEE89507B600FCFDCF97BE46
:107F4000E89526C08437B1F42ED02DD0F82E2BD052
:107F50003CD0F601EF2C8F010F5F1F4F84911BD097
:107F6000EA94F801C1F70894C11CD11CFA94CF0C13
:107F7000D11C0EC0853739F428D08EE10CD085E9AC
:107F80000AD08FE07ACF813511F488E018D01DD067
:107F900080E101D065CF982F8091C00085FFFCCF94
:107FA0009093C60008958091C00087FFFCCF809118
:107FB000C00084FD01C0A8958091C6000895E0E648
:107FC000F0E098E1908380830895EDDF803219F02E
:107FD00088E0F5DFFFCF84E1DECF1F93182FE3DFCA
:107FE0001150E9F7F2DF1F91089580E0E8DFEE27F6
:047FF000FF270994CA
:027FFE00040479
:0400000300007E007B
:00000001FF
