:100000000C9463000C948B000C948B000C940303F1
:100010000C9403030C9403030C948B000C948B003E
:100020000C948B000C948B000C948B000C948B0024
:100030000C948B000C948B000C948B000C948B0014
:100040000C9461020C948B000C94D1020C94AB02C2
:100050000C948B000C948B000C948B000C948B00F4
:100060000C948B000C948B0000000008000201002F
:100070000003040700000000000000000000000072
:1000800023002600290000000000240027002A0089
:1000900000000000250028002B00040404040404D0
:1000A0000404020202020202030303030303010227
:1000B00004081020408001020408102001020408F6
:1000C0001020CA03060811241FBECFEFD8E0DEBF00
:1000D000CDBF12E0A0E0B1E0E6EAF6E102C0059093
:1000E0000D92AE32B107D9F723E0AEE2B2E001C023
:1000F0001D92A733B207E1F710E0C2E6D0E004C0DA
:100100002197FE010E944A08C136D107C9F70E9413
:10011000AC040C94460B0C940000CF92DF92EF924B
:10012000FF920F931F93CF93DF936C017A018B01A2
:10013000C0E0D0E0CE15DF0581F0D8016D918D01D2
:10014000D601ED91FC910190F081E02DC601099559
:10015000892B11F02196EECF7E01C701DF91CF915F
:100160001F910F91FF90EF90DF90CF900895FC01C9
:10017000538D448D252F30E0842F90E0821B930B0C
:10018000541710F0CF96089501970895FC01918DB2
:10019000828D981761F0828DDF01A80FB11D5D96E9
:1001A0008C91928D9F5F9F73928F90E008958FEF57
:1001B0009FEF0895FC01918D828D981731F0828D0B
:1001C000E80FF11D858D90E008958FEF9FEF089562
:1001D000FC01918D228D892F90E0805C9F4F821BC6
:1001E00091098F73992708958BE792E00E94E800A8
:1001F00021E0892B09F420E0822F0895FC01848DF1
:10020000DF01A80FB11DA35ABF4F2C91848D90E040
:1002100001968F739927848FA689B7892C93A0891B
:10022000B1898C91837080648C93938D848D9813A5
:1002300006C00288F389E02D80818F7D8083089538
:10024000EF92FF920F931F93CF93DF93EC0181E026
:10025000888F9B8D8C8D981305C0E889F9898081E2
:1002600085FD26C0F62E0B8D10E00F5F1F4F0F731C
:100270001127E02E8C8DE8120CC00FB607FCFACFC8
:10028000E889F989808185FFF5CFCE010E94FE00C3
:10029000F1CF8B8DFE01E80FF11DE35AFF4FF08285
:1002A0009FB7F8940B8FEA89FB89808180620AC02E
:1002B0009FB7F894EE89FF896083E889F989808186
:1002C0008370806480839FBF81E090E0DF91CF9155
:1002D0001F910F91FF90EF900895CF93DF93EC0162
:1002E000888D8823C9F0EA89FB89808185FD05C056
:1002F000A889B9898C9186FD0FC00FB607FCF5CF90
:10030000808185FFF2CFA889B9898C9185FFEDCFD7
:10031000CE010E94FE00E7CFDF91CF91089580E0EB
:1003200090E0892B29F00E94F40081110C940000C8
:10033000089520917002309171022817390771F4E5
:1003400090916E0280916F02981741F0E0916E02D9
:10035000F0E0E25DFD4F808190E008958FEF9FEF28
:10036000089508951F93CF93DF93DC015C968D91E0
:100370009C915D97009739F421E030E013963C930F
:100380002E9312973BC05196ED91FC915297509647
:100390002C915097322F30951FB75E964C915E97F7
:1003A000742F727041FD6095F8944081772311F0AD
:1003B000422B01C043234083EC012197F1F748E031
:1003C000508160FF02C0522B01C053235083EC01C7
:1003D0002197F1F76695415099F78081772319F0BD
:1003E0008323808302C0282B20831FBF5C968D91BE
:1003F0009C915D970197F1F781E090E0DF91CF91BB
:100400001F910895209170023091710228173907C9
:1004100071F480916F0220916E0290E0805C9F4F9A
:10042000821B910960E470E00E942208089580E038
:1004300090E00895209170023091710228173907D9
:10044000B9F490916E0280916F02981789F0E09153
:100450006E02F0E0E25DFD4F808120916E0230E09F
:100460002F5F3F4F2F73332720936E0290E0089544
:100470008FEF9FEF0895089580E090E00895009732
:1004800069F0FC0101900020E9F73197AF01481BAA
:10049000590BBC018BE792E00C948D0080E090E05A
:1004A0000895CF93DF930E943F02EC0184E291E034
:1004B0000E943F028C0F9D1FDF91CF9108950E94F3
:1004C00050081F920F920FB60F9211242F933F9353
:1004D0008F939F93AF93BF9380917702909178020F
:1004E000A0917902B0917A023091760223E0230F35
:1004F0002D3720F40196A11DB11D05C026E8230F5C
:100500000296A11DB11D20937602809377029093ED
:100510007802A0937902B0937A028091720290914E
:100520007302A0917402B09175020196A11DB11DD4
:100530008093720290937302A0937402B093750239
:10054000BF91AF919F918F913F912F910F900FBECF
:100550000F901F9018951F920F920FB60F921124B3
:100560002F933F934F935F936F937F938F939F93BB
:10057000AF93BF93EF93FF938BE792E00E94FE004F
:10058000FF91EF91BF91AF919F918F917F916F916B
:100590005F914F913F912F910F900FBE0F901F9041
:1005A00018951F920F920FB60F9211242F938F93CD
:1005B0009F93EF93FF93E0918B02F0918C028081E7
:1005C000E0919102F091920282FD12C0908180919F
:1005D00094028F5F8F7320919502821751F0E09102
:1005E0009402F0E0E558FD4F958F8093940201C08E
:1005F0008081FF91EF919F918F912F910F900FBE6E
:100600000F901F9018951F920F920FB60F92112402
:100610002F933F934F935F936F937F938F939F930A
:10062000AF93BF93EF93FF93E0917002F09171024B
:10063000309709F451C0968DA685B785858591FFC1
:1006400004C09C91892329F447C09C91892309F017
:1006500043C0A389B4899C918589809589238C9313
:10066000868997890197F1F7608D718DA685B78589
:10067000558538E020E0CB010197F1F7822F90E01B
:1006800095958795282F4C91452309F02068315086
:1006900091F7868D81FD209580916F0290E0019603
:1006A0008F73992730916E02381749F0A0916F022D
:1006B000B0E0A25DBD4F2C9380936F0203C0868D86
:1006C0008160868F828D938D0197F1F7A389B4891C
:1006D0009C918589892B8C93FF91EF91BF91AF916C
:1006E0009F918F917F916F915F914F913F912F914A
:1006F0000F900FBE0F901F90189590E0FC01E859E5
:10070000FF4F2491FC01E255FF4F3491FC01E65666
:10071000FF4FE491EE2309F43CC0222339F123304A
:1007200091F038F42130A9F0223001F584B58F7DA5
:1007300012C0273091F02830A1F02430B9F4809114
:1007400080008F7D03C0809180008F778093800030
:100750000DC084B58F7784BD09C08091B0008F77BC
:1007600003C08091B0008F7D8093B000F0E0EE0F69
:10077000FF1FE057FF4FA591B4919FB7F894611107
:1007800004C08C913095382302C0EC913E2B3C93F1
:100790009FBF0895CF93DF9310927E0210927D0247
:1007A00088EE93E0A0E0B0E080937F029093800217
:1007B000A0938102B093820224E031E030937C0266
:1007C00020937B0225EC30E030938802209387024F
:1007D00024EC30E030938A022093890220EC30E050
:1007E00030938C0220938B0221EC30E030938E0208
:1007F00020938D0222EC30E03093900220938F0200
:1008000026EC30E0309392022093910210929402F1
:1008100010929502109296021092970210921B036A
:1008200010921A0380931C0390931D03A0931E0340
:10083000B0931F0386E191E090931903809318030E
:1008400010922F0310922E03109231031092300356
:100850001092330310923203109235031092340336
:10086000609136036E7F6D7F60933603669561708D
:1008700081E0682789E00E947D03E7EBF0E02491A6
:10088000E3EAF0E08491882399F090E0880F991FC3
:10089000FC01EA57FF4FA591B491FC01E057FF4FCF
:1008A000859194918FB7F894EC91E22BEC938FBFE4
:1008B000E7EBF0E0E491E0932803E3EAF0E0E49171
:1008C000F0E0EE0FFF1FE057FF4F8591949190935A
:1008D0002A0380932903E6EBF0E02491E2EAF0E0BA
:1008E00084918823C1F090E0880F991FFC01EA579A
:1008F000FF4FC591D491FC01E057FF4FA591B491F2
:100900009FB7F8948881E22FE0958E2388838C919D
:10091000E823EC939FBF8091360381FD04C061E022
:1009200088E00E947D0388E080932403E6EBF0E0FA
:10093000E491E0932503E2EAF0E0E491F0E0EE0FC9
:10094000FF1FE458FF4F8591949190932703809364
:100950002603DF91CF910895CF93DF93CDB7DEB714
:10096000C054D1400FB6F894DEBF0FBECDBF78940F
:1009700084B5826084BD84B5816084BD85B58260A4
:1009800085BD85B5816085BD80916E008160809355
:100990006E001092810080918100826080938100BE
:1009A00080918100816080938100809180008160CE
:1009B000809380008091B10084608093B100809129
:1009C000B00081608093B00080917A008460809351
:1009D0007A0080917A00826080937A0080917A0018
:1009E000816080937A0080917A00806880937A0099
:1009F0001092C100E0918B02F0918C0282E0808322
:100A0000E0918702F09188021082E0918902F091D2
:100A10008A0280E1808310929302E0918F02F0912C
:100A2000900286E08083E0918D02F0918E028081B9
:100A300080618083E0918D02F0918E0280818860D8
:100A40008083E0918D02F0918E02808180688083A6
:100A5000E0918D02F0918E0280818F7D808380E312
:100A600091E00E94510287E291E00E943F0282E3FE
:100A700091E00E9451028DE691E00E943F0288E7DA
:100A800091E00E94510280E391E00E94510284E8CB
:100A900091E00E945102109233031092320310929F
:100AA00031031092300310922F0310922E038DE920
:100AB00091E0909335038093340390912403963111
:100AC00008F058C02DEB30E030932F0320932E0315
:100AD0002BE931E030933103209330032CE231E0F5
:100AE000309333032093320340916800983058F0DC
:100AF00031E09E3008F430E021E0822F01C0880F01
:100B00003A95EAF701C084E0842B8093680098301E
:100B100038F09E3040F0963148F020E030E008C0D8
:100B20002DE630E005C02BE630E002C02CE630E0D8
:100B300030932C0320932B03983030F481E001C0D4
:100B4000880F9A95EAF70EC0292F30E09E3018F4EE
:100B50002850310902C02E50310981E001C0880FB0
:100B60002A95EAF780932D03809134039091350301
:100B70000197F1F78091320390913303892B49F16A
:100B8000E0917002F091710223E0E831F20709F17F
:100B9000309739F0A389B4899C9185898095892300
:100BA0008C93809136038E7F8093360310926F0270
:100BB00010926E0288E193E090937102809370022C
:100BC000E0912B03F0912C03908180912D03892BD0
:100BD00080838E010F5F1F4F3E0187E9680E711CF5
:100BE0007E019BEFE90EF11C9DEA292E91E0392E42
:100BF0006E0123EDC21A2EEFD20A46018AE0880E5A
:100C0000911CF8011192E615F705E1F788E193E0F0
:100C10000E94020218161906CCF788E193E00E94A0
:100C20001A02582E94E25912F1CF5982AA24A394A1
:100C3000B12C88E193E00E9402021816190664F4B0
:100C400088E193E00E941A02582EF801EA0DFB1D7C
:100C500080832FEFA21AB20A86E0A816B10421F40D
:100C60008E81833409F0CFC19AE0591619F02DE036
:100C70005212DFCFB801C3010E945508C3010E9480
:100C80005102DE01A35DBE4FCD010A96FD015D015B
:100C90001192E817F907E1F7F80180E090E021915F
:100CA0002C3221F0019686399105C9F70196F80199
:100CB000E80FF91F81918C3211F08D93FBCFBF9219
:100CC000AF9282EA91E09F938F93FF92EF920E94FE
:100CD0005C08C7010E9451020F900F900F900F9077
:100CE0000F900F90D801FD01E01BF10B8D918C321C
:100CF000D1F73196E00FF11FCF01801B910B2191AD
:100D00002C32D1F7E2E0F0E0EC0FFD1FE80FF91F05
:100D10008081282F082E000C330B3F938F933F9236
:100D20002F92FF92EF920E945C08C7010E9451022D
:100D3000D501C50144960F900F900F900F900F9022
:100D40000F90F50111928E179F07E1F723E030E035
:100D500080E090E0F801E80FF91FCF01801B910BB4
:100D600041914C32D1F701962150310999F7F801A0
:100D7000E80FF91F81918C3211F08D93FBCFBF9258
:100D8000AF928CEC91E09F938F93FF92EF920E9431
:100D90005C08C7010E9451020F900F900F900F90B6
:100DA0000F900F9024E030E080E090E0F801E80F31
:100DB000F91FCF01801B910B41914C32D1F7019665
:100DC0002150310999F7F801E80FF91F80818C3221
:100DD00009F480E0282F082E000C330B3F938F93EB
:100DE0008AED91E09F938F93FF92EF920E945C08AF
:100DF000C7010E945102D501C50144960F900F9082
:100E00000F900F900F900F90F50111928E179F0782
:100E1000E1F725E030E080E090E0F801E80FF91F0D
:100E2000CF01801B910B41914C32D1F7019621509B
:100E3000310999F7F801E80FF91F81918C3211F00F
:100E40008D93FBCFDF92CF9283EE91E09F938F93B0
:100E5000FF92EF920E945C08C7010E9451020F901E
:100E60000F900F900F900F900F9026E030E080E0F1
:100E700090E0F801E80FF91FCF01801B910B419121
:100E80004C32D1F701962150310999F7F801E80F5A
:100E9000F91F80818C3209F480E0282F082E000C85
:100EA000330B3F938F9382EF91E09F938F93FF9249
:100EB000EF920E945C08C7010E945102D6010F9078
:100EC0000F900F900F900F900F90F60111928E16C9
:100ED0009F06E1F727E030E080E090E0F801E80FBE
:100EE000F91FCF01801B910B41914C32D1F7019634
:100EF0002150310999F7F801E80FF91F81918C32DF
:100F000011F08D93FBCFDF92CF928BEF91E09F9307
:100F10008F93FF92EF920E945C08C7010E945102DA
:100F2000D6010F900F900F900F900F900F90F60139
:100F30001192E815F905E1F728E030E080E090E053
:100F4000F801E80FF91FCF01801B910B41914C3242
:100F5000D1F701962150310999F7F801E80FF91FEF
:100F600081918C3211F08D93FBCFDF92CF928EE086
:100F700092E09F938F93FF92EF920E945C08C701CB
:100F80000E945102D6010F900F900F900F900F907A
:100F90000F90F6011192E815F905E1F729E030E02C
:100FA00080E090E0F801E80FF91FCF01801B910B62
:100FB00041914C32D1F701962150310999F7F8014E
:100FC000E80FF91F81918C3211F08D93FBCFDF92E6
:100FD000CF9283E292E09F938F93FF92EF920E94D1
:100FE0005C08C7010E94510260E28BE792E00E9418
:100FF000200184E291E00E943F020F900F900F9039
:101000000F900F900F900E948F01FBCD86E191E031
:10101000909319038093180380917002909171024C
:101020008851934071F4E0912B03F0912C0390814F
:1010300080912D03809589238083109271021092F4
:101040007002089597FB072E16F4009407D077FDE1
:1010500009D00E94360807FC05D03EF49095819592
:101060009F4F0895709561957F4F0895AA1BBB1BF4
:1010700051E107C0AA1FBB1FA617B70710F0A61B98
:10108000B70B881F991F5A95A9F780959095BC01B9
:10109000CD010895EE0FFF1F0590F491E02D099406
:1010A00081E090E0F8940C94460BFB01DC01019088
:1010B0000D920020E1F70895AEE0B0E0E2E6F8E03E
:1010C0000C941D0B0D891E8986E08C831A8309837D
:1010D0008FEF9FE79E838D83AE01475E5F4F6F89E1
:1010E000788DCE0101960E947E08EF81F885E00F91
:1010F000F11F10822E96E4E00C94390BABE0B0E0C7
:10110000E4E8F8E00C940F0B6C017B018A01FC0110
:1011100017821682838181FFCCC1CE0101963C01EA
:10112000F6019381F70193FD859193FF81917F01F2
:10113000882309F4BAC1853239F493FD859193FF70
:1011400081917F01853229F4B60190E00E94750AF1
:10115000E7CF912C212C312CFFE1F315D8F08B3205
:1011600079F038F4803279F08332A1F4232D2061B4
:101170001DC08D3261F0803369F4232D216016C0CB
:10118000832D8260382EE32DE4603E2E2AC0F32D9D
:10119000F8601DC037FC2DC020ED280F2A3040F02C
:1011A0008E32B9F436FC81C1232D2064322E19C051
:1011B00036FE06C08AE0989E200D1124922E11C0A2
:1011C000EAE02E9E200D1124222EF32DF0623F2EF8
:1011D00008C08C3621F4832D8068382E02C08836F2
:1011E00041F4F70193FD859193FF81917F01811176
:1011F000B3CF982F9F7D9554933028F40C5F1F4FE9
:101200009FE399830DC0833631F0833771F08335C6
:1012100009F059C021C0F801808189830E5F1F4FFA
:1012200088248394912C530113C02801F2E04F0EBF
:10123000511CF801A080B18036FE03C0692D70E01A
:1012400002C06FEF7FEFC5010E946A0A4C01820164
:10125000F32DFF773F2E16C0280122E0420E511CCD
:10126000F801A080B18036FE03C0692D70E002C095
:101270006FEF7FEFC5010E945F0A4C01F32DF0680C
:101280003F2E820133FC1BC0822D90E08816990608
:10129000B0F4B60180E290E00E94750A2A94F4CF7F
:1012A000F50137FC859137FE81915F01B60190E031
:1012B0000E94750A21102A9421E0821A9108811453
:1012C000910471F7E8C0843611F0893641F5F801D0
:1012D00037FE07C060817181828193810C5F1F4F4F
:1012E00008C060817181072E000C880B990B0E5F7E
:1012F0001F4FF32DFF763F2E97FF09C090958095E5
:10130000709561957F4F8F4F9F4FF0683F2E2AE079
:1013100030E0A3010E94B10A882E861845C08537A7
:1013200031F4232D2F7EB22E2AE030E025C0932DFC
:10133000997FB92E8F36C1F018F4883579F0B5C091
:10134000803719F0883721F0B0C0E92FE061BE2E58
:10135000B4FE0DC0FB2DF460BF2E09C034FE0AC0E0
:10136000292F2660B22E06C028E030E005C020E11B
:1013700030E002C020E132E0F801B7FE07C0608132
:101380007181828193810C5F1F4F06C060817181E2
:1013900080E090E00E5F1F4FA3010E94B10A882EEB
:1013A0008618FB2DFF773F2E36FE0DC0232D2E7F96
:1013B000A22E891458F434FE0BC032FC09C0832DD0
:1013C0008E7EA82E05C0B82CA32C03C0B82C01C05B
:1013D000B92CA4FE0FC0FE01E80DF11D8081803301
:1013E00021F49A2D997EA92E09C0A2FE06C0B394BD
:1013F000B39404C08A2D867809F0B394A3FC11C07D
:10140000A0FE06C0B21488F4280C922C9B180EC0C3
:10141000B21460F4B60180E290E00E94750AB394C1
:10142000F7CFB21418F42B1802C0982C212CA4FE6C
:1014300010C0B60180E390E00E94750AA2FE17C0BA
:10144000A1FC03C088E790E002C088E590E0B60107
:101450000CC08A2D867859F0A1FE02C08BE201C033
:1014600080E2A7FC8DE2B60190E00E94750A891423
:1014700038F4B60180E390E00E94750A9A94F7CFA1
:101480008A94F301E80DF11D8081B60190E00E947D
:10149000750A8110F5CF222009F442CEB60180E210
:1014A00090E00E94750A2A94F6CFF6018681978112
:1014B00002C08FEF9FEF2B96E2E10C942B0BFC0107
:1014C0000590615070400110D8F7809590958E0F6F
:1014D0009F1F0895FC016150704001900110D8F7E2
:1014E000809590958E0F9F1F08950F931F93CF9314
:1014F000DF93FB01238121FD03C08FEF9FEF2CC001
:1015000022FF16C046815781248135814217530737
:1015100044F4A081B1819D012F5F3F4F318320832F
:101520008C93268137812F5F3F4F3783268314C0EA
:101530008B01EC01FB010084F185E02D0995892BDD
:10154000E1F6D80116968D919C9117970196179602
:101550009C938E931697CE01DF91CF911F910F919F
:101560000895FA01AA27283051F1203181F1E89439
:101570006F936E7F6E5F7F4F8F4F9F4FAF4FB1E086
:101580003ED0B4E03CD0670F781F891F9A1FA11D81
:10159000680F791F8A1F911DA11D6A0F711D811D82
:1015A000911DA11D20D009F468943F912AE0269F47
:1015B00011243019305D3193DEF6CF010895462FA6
:1015C0004770405D4193B3E00FD0C9F7F6CF462F87
:1015D0004F70405D4A3318F0495D31FD40524193F0
:1015E00002D0A9F7EACFB4E0A695979587957795AD
:1015F0006795BA95C9F700976105710508959B0134
:10160000AC010A2E06945795479537952795BA95BC
:10161000C9F7620F731F841F951FA01D08952F9295
:101620003F924F925F926F927F928F929F92AF9272
:10163000BF92CF92DF92EF92FF920F931F93CF93BF
:10164000DF93CDB7DEB7CA1BDB0B0FB6F894DEBF56
:101650000FBECDBF09942A88398848885F846E847C
:101660007D848C849B84AA84B984C884DF80EE80C6
:10167000FD800C811B81AA81B981CE0FD11D0FB6CF
:10168000F894DEBF0FBECDBFED01089510E0C2E6B5
:10169000D0E004C0FE010E944A082196C336D1075B
:0616A000C9F7F894FFCF2A
:1016A6000000000020018D00B7006D01E800C600B3
:1016B600DA0000000000B2018D003C02B101020216
:1016C6001A0299010D0A00536B657463683A20206B
:1016D60020002F686F6D652F68616E64696B6F2FD0
:1016E60041726475696E6F2D4578706572696D65B6
:1016F6006E742F4750535F5374727563742F47503F
:10170600535F5374727563742E696E6F0055706CF7
:101716006F616465643A20004A616E20323220327D
:101726003031390047505320537472756374205416
:10173600657374202D2053746172746564202120B2
:101746000A002077616B74753A2025730020475094
:1017560053204669782028413D547275652C2056E1
:101766003D46616C7365293A20256300204C6174FF
:1017760069747564653A20257300204E2F533A200C
:10178600256300204C6F6E6769747564653A202581
:10179600730020452F573A20256300205370656556
:1017A6006420286B6E6F7473293A202573002043DA
:1017B6006F757273652028646567726565293A20BE
:0E17C60025730020446174653A2025730000ED
:00000001FF
