:100000000C9463000C948B000C948B000C941403E0
:100010000C9414030C9414030C948B000C948B001C
:100020000C948B000C948B000C948B000C948B0024
:100030000C948B000C948B000C948B000C948B0014
:100040000C9472020C948B000C94E2020C94BC028F
:100050000C948B000C948B000C948B000C948B00F4
:100060000C948B000C948B0000000008000201002F
:100070000003040700000000000000000000000072
:1000800023002600290000000000240027002A0089
:1000900000000000250028002B00040404040404D0
:1000A0000404020202020202030303030303010227
:1000B00004081020408001020408102001020408F6
:1000C0001020DB038B0611241FBECFEFD8E0DEBF6C
:1000D000CDBF11E0A0E0B1E0EEECFDE002C0059084
:1000E0000D92AE3DB107D9F722E0AEEDB1E001C00F
:1000F0001D92A73EB207E1F710E0C2E6D0E004C0CF
:100100002197FE010E94CF06C136D107C9F70E9490
:10011000BD040C94DA060C940000CF92DF92EF92AB
:10012000FF920F931F93CF93DF936C017A018B01A2
:10013000C0E0D0E0CE15DF0581F0D8016D918D01D2
:10014000D601ED91FC910190F081E02DC601099559
:10015000892B11F02196EECF7E01C701DF91CF915F
:100160001F910F91FF90EF90DF90CF900895FC01C9
:10017000538D448D252F30E0842F90E0821B930B0C
:10018000541710F0CF96089501970895FC01918DB2
:10019000828D981761F0828DDF01A80FB11D5D96E9
:1001A0008C91928D9F5F9F73928F90E008958FEF57
:1001B0009FEF0895FC01918D828D981731F0828D0B
:1001C000E80FF11D858D90E008958FEF9FEF089562
:1001D000FC01918D228D892F90E0805C9F4F821BC6
:1001E00091098F73992708958BE292E00E94E800AD
:1001F00021E0892B09F420E0822F0895FC01848DF1
:10020000DF01A80FB11DA35ABF4F2C91848D90E040
:1002100001968F739927848FA689B7892C93A0891B
:10022000B1898C91837080648C93938D848D9813A5
:1002300006C00288F389E02D80818F7D8083089538
:10024000EF92FF920F931F93CF93DF93EC0181E026
:10025000888F9B8D8C8D981305C0E889F9898081E2
:1002600085FD26C0F62E0B8D10E00F5F1F4F0F731C
:100270001127E02E8C8DE8120CC00FB607FCFACFC8
:10028000E889F989808185FFF5CFCE010E94FE00C3
:10029000F1CF8B8DFE01E80FF11DE35AFF4FF08285
:1002A0009FB7F8940B8FEA89FB89808180620AC02E
:1002B0009FB7F894EE89FF896083E889F989808186
:1002C0008370806480839FBF81E090E0DF91CF9155
:1002D0001F910F91FF90EF900895CF93DF93EC0162
:1002E000888D8823C9F0EA89FB89808185FD05C056
:1002F000A889B9898C9186FD0FC00FB607FCF5CF90
:10030000808185FFF2CFA889B9898C9185FFEDCFD7
:10031000CE010E94FE00E7CFDF91CF91089580E0EB
:1003200090E0892B29F00E94F40081110C940000C8
:10033000089520912002309121022817390771F485
:1003400090911E0280911F02981741F0E0911E02C9
:10035000F0E0E252FE4F808190E008958FEF9FEF32
:10036000089508951F93CF93DF93DC015C968D91E0
:100370009C915D97009739F421E030E013963C930F
:100380002E9312973BC05196ED91FC915297509647
:100390002C915097322F30951FB75E964C915E97F7
:1003A000742F727041FD6095F8944081772311F0AD
:1003B000422B01C043234083EC012197F1F748E031
:1003C000508160FF02C0522B01C053235083EC01C7
:1003D0002197F1F76695415099F78081772319F0BD
:1003E0008323808302C0282B20831FBF5C968D91BE
:1003F0009C915D970197F1F781E090E0DF91CF91BB
:100400001F91089520912002309121022817390769
:1004100071F480911F0220911E0290E0805C9F4F3A
:10042000821B910960E470E00E94A706089580E0B5
:1004300090E0089520912002309121022817390779
:10044000B9F490911E0280911F02981789F0E091F3
:100450001E02F0E0E252FE4F808120911E0230E049
:100460002F5F3F4F2F73332720931E0290E0089594
:100470008FEF9FEF0895089580E090E00895009732
:1004800069F0FC0101900020E9F73197AF01481BAA
:10049000590BBC018BE292E00C948D0080E090E05F
:1004A0000895CF93DF93682F8BE292E00E942001A2
:1004B000EC0184E291E00E943F028C0F9D1FDF91CE
:1004C000CF910895CF93DF930E943F02EC0184E225
:1004D00091E00E943F028C0F9D1FDF91CF91089504
:1004E0000E94D5061F920F920FB60F9211242F93E0
:1004F0003F938F939F93AF93BF93809127029091E7
:100500002802A0912902B0912A023091260223E00C
:10051000230F2D3720F40196A11DB11D05C026E83B
:10052000230F0296A11DB11D20932602809327025E
:1005300090932802A0932902B0932A02809122026C
:1005400090912302A0912402B09125020196A11D51
:10055000B11D8093220290932302A0932402B093B2
:100560002502BF91AF919F918F913F912F910F9055
:100570000FBE0F901F9018951F920F920FB60F92FB
:1005800011242F933F934F935F936F937F938F9398
:100590009F93AF93BF93EF93FF938BE292E00E9400
:1005A000FE00FF91EF91BF91AF919F918F917F914D
:1005B0006F915F914F913F912F910F900FBE0F90D0
:1005C0001F9018951F920F920FB60F9211242F9320
:1005D0008F939F93EF93FF93E0913B02F0913C0246
:1005E0008081E0914102F091420282FD12C090812F
:1005F000809144028F5F8F7320914502821751F0E2
:10060000E0914402F0E0E55DFD4F958F8093440258
:1006100001C08081FF91EF919F918F912F910F9059
:100620000FBE0F901F9018951F920F920FB60F924A
:1006300011242F933F934F935F936F937F938F93E7
:100640009F93AF93BF93EF93FF93E0912002F091BC
:100650002102309709F451C0968DA685B78585850E
:1006600091FF04C09C91892329F447C09C91892360
:1006700009F043C0A389B4899C9185898095892319
:100680008C93868997890197F1F7608D718DA68586
:10069000B785558538E020E0CB010197F1F7822F2F
:1006A00090E095958795282F4C91452309F0206877
:1006B000315091F7868D81FD209580911F0290E049
:1006C00001968F73992730911E02381749F0A09137
:1006D0001F02B0E0A252BE4F2C9380931F0203C0B2
:1006E000868D8160868F828D938D0197F1F7A38926
:1006F000B4899C918589892B8C93FF91EF91BF914F
:10070000AF919F918F917F916F915F914F913F91A9
:100710002F910F900FBE0F901F90189590E0FC0145
:10072000E859FF4F2491FC01E255FF4F3491FC0141
:10073000E656FF4FE491EE2309F43CC0222339F141
:10074000233091F038F42130A9F0223001F584B53E
:100750008F7D12C0273091F02830A1F02430B9F4F9
:10076000809180008F7D03C0809180008F7780937F
:1007700080000DC084B58F7784BD09C08091B00022
:100780008F7703C08091B0008F7D8093B000F0E040
:10079000EE0FFF1FE057FF4FA591B4919FB7F8945C
:1007A000611104C08C913095382302C0EC913E2B2E
:1007B0003C939FBF0895CF93DF9310922E02109227
:1007C0002D0288EE93E0A0E0B0E080932F0290939A
:1007D0003002A0933102B093320224E031E0309332
:1007E0002C0220932B0225EC30E03093380220932A
:1007F000370224EC30E030933A022093390220ECA7
:1008000030E030933C0220933B0221EC30E0309307
:100810003E0220933D0222EC30E0309340022093D0
:100820003F0226EC30E030934202209341021092C6
:100830004402109245021092460210924702109212
:10084000CB021092CA028093CC029093CD02A09367
:10085000CE02B093CF0286E191E09093C9028093DB
:10086000C8021092DF021092DE021092E102109292
:10087000E0021092E3021092E2021092E50210925E
:10088000E4026091E6026E7F6D7F6093E6026695FA
:10089000617081E0682789E00E948E03E7EBF0E059
:1008A0002491E3EAF0E08491882399F090E0880FA6
:1008B000991FFC01EA57FF4FA591B491FC01E05745
:1008C000FF4F859194918FB7F894EC91E22BEC93C4
:1008D0008FBFE7EBF0E0E491E093D802E3EAF0E0C9
:1008E000E491F0E0EE0FFF1FE057FF4F85919491E8
:1008F0009093DA028093D902E6EBF0E02491E2EAE9
:10090000F0E084918823C1F090E0880F991FFC01EA
:10091000EA57FF4FC591D491FC01E057FF4FA591D5
:10092000B4919FB7F8948881E22FE0958E23888355
:100930008C91E823EC939FBF8091E60281FD04C077
:1009400061E088E00E948E0388E08093D402E6EBA9
:10095000F0E0E491E093D502E2EAF0E0E491F0E027
:10096000EE0FFF1FE458FF4F859194919093D702AB
:100970008093D602DF91CF910895CF93DF93CDB7C7
:10098000DEB7CE5BD1090FB6F894DEBF0FBECDBF88
:10099000789484B5826084BD84B5816084BD85B55A
:1009A000826085BD85B5816085BD80916E00816066
:1009B00080936E001092810080918100826080930C
:1009C000810080918100816080938100809180000E
:1009D0008160809380008091B10084608093B10039
:1009E0008091B00081608093B00080917A00846033
:1009F00080937A0080917A00826080937A0080915F
:100A00007A00816080937A0080917A008068809378
:100A10007A001092C100E0913B02F0913C0282E02A
:100A20008083E0913702F09138021082E091390220
:100A3000F0913A0280E1808310924302E0913F02FC
:100A4000F091400286E08083E0913D02F0913E0209
:100A5000808180618083E0913D02F0913E0280813F
:100A600088608083E0913D02F0913E028081806841
:100A70008083E0913D02F0913E0280818F7D8083F2
:100A800080E391E00E94620287E291E00E943F02CF
:100A900082E391E00E9462028DE691E00E943F02B3
:100AA00088E791E00E94620280E391E00E94620286
:100AB00084E891E00E9462021092E3021092E20246
:100AC0001092E1021092E0021092DF021092DE0218
:100AD0008DE991E09093E5028093E4029091D40235
:100AE000963108F058C02DEB30E03093DF022093B0
:100AF000DE022BE931E03093E1022093E0022CE2A8
:100B000031E03093E3022093E20240916800983094
:100B100058F031E09E3008F430E021E0822F01C02F
:100B2000880F3A95EAF701C084E0842B809368002F
:100B3000983038F09E3040F0963148F020E030E0B8
:100B400008C02DE630E005C02BE630E002C02CE600
:100B500030E03093DC022093DB02983030F481E007
:100B600001C0880F9A95EAF70EC0292F30E09E3019
:100B700018F42850310902C02E50310981E001C01B
:100B8000880F2A95EAF78093DD028091E402909124
:100B9000E5020197F1F78091E2029091E302892B3F
:100BA00049F1E0912002F091210282E0E83CF8074F
:100BB00009F1309739F0A389B4899C918589809592
:100BC00089238C938091E6028E7F8093E6021092B7
:100BD0001F0210921E0288EC92E0909321028093F3
:100BE0002002E091DB02F091DC0290818091DD0235
:100BF000892B80838E010F5F1F4F7E0187E9E80EEE
:100C0000F11CF8011192EE16FF06E1F788EC92E074
:100C10000E94020218161906CCF788EC92E00E9496
:100C20001A02D82E84E2D812F1CFD982AA24A39432
:100C3000B12C88EC92E00E9402021816190664F4A6
:100C400088EC92E00E941A02D82EF801EA0DFB1DF2
:100C500080838FEFA81AB80A86E0A816B10421F4A1
:100C60008E81833409F054C08AE0D81619F08DE0E3
:100C7000D812DFCFC8010E94620282EA91E00E948E
:100C80003F02C7010E9462028EEA91E00E943F0289
:100C9000D801FD01E01BF10B8D918C32D1F731961B
:100CA000E00FF11FCF01801B910B21912C32D1F766
:100CB000E2E0F0E0EC0FFD1FE80FF91F80810E94D9
:100CC00051028BEC91E00E943F02CE0185559F4F6F
:100CD0000E94620287ED91E00E943F0224E030E032
:100CE00080E090E0F801E80FF91FCF01801B910B25
:100CF00041914C32D1F701962150310999F7F80111
:100D0000E80FF91F80810E94510280E20E94510287
:100D10000E948F0176CF86E191E09093C902809383
:100D2000C8028091200290912102885C924071F467
:100D3000E091DB02F091DC0290818091DD028095F0
:100D4000892380831092210210922002089597FB3C
:100D5000072E16F4009407D077FD09D00E94BB0639
:100D600007FC05D03EF4909581959F4F08957095AE
:100D700061957F4F0895AA1BBB1B51E107C0AA1FB5
:100D8000BB1FA617B70710F0A61BB70B881F991F2C
:100D90005A95A9F780959095BC01CD010895EE0F65
:100DA000FF1F0590F491E02D099481E090E0F89404
:100DB0000C94DA0610E0C2E6D0E004C0FE010E9406
:0E0DC000CF062196C336D107C9F7F894FFCFAE
:100DCE000000000020018D00B7006D01E800C60094
:100DDE00DA0000000000B2018D003C02B1010202F7
:100DEE001A0299010D0A00536B657463683A20204C
:100DFE0020002F686F6D652F68616E64696B6F2FB1
:100E0E0041726475696E6F2D4578706572696D6596
:100E1E006E742F4750535F5374727563742F47501F
:100E2E00535F5374727563742E696E6F0055706CD8
:100E3E006F616465643A20004A616E20323220325E
:100E4E0030313900475053205374727563742054F7
:100E5E00657374202D205374617274656420212093
:100E6E000A00204750532054494D453A2000204750
:100E7E005053206669782028413D747275652C2088
:100E8E00563D66616C7365293A2000204C61746989
:0E0E9E00747564653A2000204E2F533A2000F0
:00000001FF
