:100000000C9463000C948B000C948B000C945203A2
:100010000C9452030C9452030C948B000C948B00A0
:100020000C948B000C948B000C948B000C948B0024
:100030000C948B000C948B000C948B000C948B0014
:100040000C94B0020C948B000C9420030C94FA02D4
:100050000C948B000C948B000C948B000C948B00F4
:100060000C948B000C948B000000000024002700EF
:100070002A0000000008000201000003040700003D
:1000800000000000000000000000230026002900FE
:1000900000000000250028002B00040404040404D0
:1000A0000404020202020202030303030303010227
:1000B00004081020408001020408102001020408F6
:1000C00010201904F90611241FBECFEFD8E0DEBFBF
:1000D000CDBF11E0A0E0B1E0EAEAFEE002C0059089
:1000E0000D92A439B107D9F725E0A4E9B1E001C028
:1000F0001D92AC35B207E1F710E0C2E6D0E004C0D3
:100100002197FE010E943D07C136D107C9F70E9421
:10011000C4040C9448070C940000CF93DF9390E044
:10012000FC01E255FF4F2491FC01E656FF4F8491FC
:10013000882361F190E0880F991FFC01E859FF4F77
:10014000C591D491FC01E057FF4FA591B491611185
:1001500009C09FB7F8948881209582238883EC9109
:100160002E230BC0623061F49FB7F8948881322F40
:10017000309583238883EC912E2B2C939FBF06C050
:100180008FB7F894E8812E2B28838FBFDF91CF9112
:100190000895CF92DF92EF92FF920F931F93CF9328
:1001A000DF936C017A018B01C0E0D0E0CE15DF0552
:1001B00081F0D8016D918D01D601ED91FC910190F6
:1001C000F081E02DC6010995892B11F02196EECF23
:1001D0007E01C701DF91CF911F910F91FF90EF90AA
:1001E000DF90CF900895FC01538D448D252F30E092
:1001F000842F90E0821B930B541710F0CF96089534
:1002000001970895FC01918D828D981761F0828D80
:10021000DF01A80FB11D5D968C91928D9F5F9F733A
:10022000928F90E008958FEF9FEF0895FC01918DDC
:10023000828D981731F0828DE80FF11D858D90E049
:1002400008958FEF9FEF0895FC01918D228D892FE6
:1002500090E0805C9F4F821B91098F7399270895CE
:1002600080EA94E00E94240121E0892B09F420E037
:10027000822F0895FC01848DDF01A80FB11DA35AC0
:10028000BF4F2C91848D90E001968F739927848FB6
:10029000A689B7892C93A089B1898C9183708064D9
:1002A0008C93938D848D981306C00288F389E02D7A
:1002B00080818F7D80830895EF92FF920F931F932B
:1002C000CF93DF93EC0181E0888F9B8D8C8D981309
:1002D00005C0E889F989808185FD26C0F62E0B8D41
:1002E00010E00F5F1F4F0F731127E02E8C8DE81267
:1002F0000CC00FB607FCFACFE889F989808185FF29
:10030000F5CFCE010E943A01F1CF8B8DFE01E80FAF
:10031000F11DE35AFF4FF0829FB7F8940B8FEA89E3
:10032000FB89808180620AC09FB7F894EE89FF89BB
:100330006083E889F98980818370806480839FBFAE
:1003400081E090E0DF91CF911F910F91FF90EF90AE
:100350000895CF93DF93EC01888D8823C9F0EA8953
:10036000FB89808185FD05C0A889B9898C9186FDAE
:100370000FC00FB607FCF5CF808185FFF2CFA889AB
:10038000B9898C9185FFEDCFCE010E943A01E7CF6C
:10039000DF91CF91089580E090E0892B29F00E94B1
:1003A000300181110C94000008952091D601309104
:1003B000D7012817390771F49091D4018091D501A4
:1003C000981741F0E091D401F0E0EC56FE4F8081A7
:1003D00090E008958FEF9FEF089508951F93CF93B6
:1003E000DF93DC015C968D919C915D97009739F4C9
:1003F00021E030E013963C932E9312973BC0519628
:10040000ED91FC91529750962C915097322F309548
:100410001FB75E964C915E97742F727041FD609588
:10042000F8944081772311F0422B01C0432340838D
:10043000EC012197F1F748E0508160FF02C0522B98
:1004400001C053235083EC012197F1F76695415089
:1004500099F78081772319F08323808302C0282BAA
:1004600020831FBF5C968D919C915D970197F1F75A
:1004700081E090E0DF91CF911F9108952091D60106
:100480003091D7012817390771F48091D501209157
:10049000D40190E0805C9F4F821B910960E470E082
:1004A0000E941507089580E090E008952091D601FC
:1004B0003091D70128173907B9F49091D401809170
:1004C000D501981789F0E091D401F0E0EC56FE4F89
:1004D00080812091D40130E02F5F3F4F2F7333276D
:1004E0002093D40190E008958FEF9FEF0895089531
:1004F00080E090E0089542E050E064E271E080EA3C
:1005000094E00C94C900CF93DF9360E280EA94E01A
:100510000E945C01EC010E947B028C0F9D1FDF9109
:10052000CF910895CF93DF93009779F0FC0101906C
:100530000020E9F73197AF01481B590BBC0180EA55
:1005400094E00E94C900EC0102C0C0E0D0E00E942B
:100550007B028C0F9D1FDF91CF9108950E9443076E
:100560001F920F920FB60F9211242F933F938F93E8
:100570009F93AF93BF9380919C0490919D04A09111
:100580009E04B0919F0430919B0423E0230F2D37EC
:1005900020F40196A11DB11D05C026E8230F029687
:1005A000A11DB11D20939B0480939C0490939D04F6
:1005B000A0939E04B0939F04809197049091980417
:1005C000A0919904B0919A040196A11DB11D809348
:1005D000970490939804A0939904B0939A04BF91C0
:1005E000AF919F918F913F912F910F900FBE0F90E0
:1005F0001F9018951F920F920FB60F9211242F93F0
:100600003F934F935F936F937F938F939F93AF939A
:10061000BF93EF93FF9380EA94E00E943A01FF9129
:10062000EF91BF91AF919F918F917F916F915F916A
:100630004F913F912F910F900FBE0F901F901895E3
:100640001F920F920FB60F9211242F938F939F93A7
:10065000EF93FF93E091B004F091B1048081E091B9
:10066000B604F091B70482FD12C090818091B90464
:100670008F5F8F732091BA04821751F0E091B90413
:10068000F0E0E056FB4F958F8093B90401C0808164
:10069000FF91EF919F918F912F910F900FBE0F902F
:1006A0001F9018951F920F920FB60F9211242F933F
:1006B0003F934F935F936F937F938F939F93AF93EA
:1006C000BF93EF93FF93E091D601F091D70130975C
:1006D00009F451C0968DA685B785858591FF04C024
:1006E0009C91892329F447C09C91892309F043C038
:1006F000A389B4899C918589809589238C93868967
:1007000097890197F1F7608D718DA685B78555851D
:1007100038E020E0CB010197F1F7822F90E095952A
:100720008795282F4C91452309F02068315091F787
:10073000868D81FD20958091D50190E001968F7383
:1007400099273091D401381749F0A091D501B0E034
:10075000AC56BE4F2C938093D50103C0868D81602B
:10076000868F828D938D0197F1F7A389B4899C912F
:100770008589892B8C93FF91EF91BF91AF919F91C8
:100780008F917F916F915F914F913F912F910F903A
:100790000FBE0F901F90189590E0FC01EE58FF4F90
:1007A0002491FC01E255FF4F3491FC01E656FF4FC6
:1007B000E491EE2309F43CC0222339F1233091F077
:1007C00038F42130A9F0223001F584B58F7D12C0B4
:1007D000273091F02830A1F02430B9F480918000C6
:1007E0008F7D03C0809180008F77809380000DC043
:1007F00084B58F7784BD09C08091B0008F7703C026
:100800008091B0008F7D8093B000F0E0EE0FFF1F6D
:10081000E057FF4FA591B4919FB7F894611104C0C0
:100820008C913095382302C0EC913E2B3C939FBFB6
:1008300008951092A3041092A20488EE93E0A0E021
:10084000B0E08093A4049093A504A093A604B09371
:10085000A70424E031E03093A1042093A00425EC08
:1008600030E03093AD042093AC0424EC30E03093BE
:10087000AF042093AE0420EC30E03093B104209319
:10088000B00421EC30E03093B3042093B20422ECA6
:1008900030E03093B5042093B40426EC30E030937C
:1008A000B7042093B6041092B9041092BA041092BF
:1008B000BB041092BC041092400510923F05809337
:1008C000410590934205A0934305B093440586E10A
:1008D00091E090933E0580933D051092540510924F
:1008E0005305109256051092550510925805109216
:1008F000570510925A051092590560915B056E7F5D
:100900006D7F60935B056695617081E0682789E083
:100910000E94CC0361E089E00E948D00E7EBF0E0EB
:10092000E491E0934D05E3EAF0E0E491F0E0EE0FAE
:10093000FF1FE057FF4F8591949190934F0580934F
:100940004E0560E088E00E948D0080915B0581FD8E
:1009500004C061E088E00E94CC0388E080934905F0
:10096000E6EBF0E0E491E0934A05E2EAF0E0E4919E
:10097000F0E0EE0FFF1FEA57FF4F8591949190939F
:100980004C0580934B050895789484B5826084BDAE
:1009900084B5816084BD85B5826085BD85B5816083
:1009A00085BD80916E00816080936E001092810001
:1009B00080918100826080938100809181008160BC
:1009C000809381008091800081608093800080917D
:1009D000B10084608093B1008091B0008160809309
:1009E000B00080917A00846080937A0080917A00D0
:1009F000826080937A0080917A00816080937A008F
:100A000080917A00806880937A001092C10060E043
:100A100080E00E948D0061E081E00E948D0060E036
:100A200088E00E948D0061E089E00E948D00E091E5
:100A3000B004F091B10482E08083E091AC04F091C5
:100A4000AD041082E091AE04F091AF0480E18083A8
:100A50001092B804E091B404F091B50486E080836C
:100A6000E091B204F091B304808180618083E091D1
:100A7000B204F091B304808188608083E091B20475
:100A8000F091B304808180688083E091B204F0919A
:100A9000B30480818F7D8083109258051092570592
:100AA0001092560510925505109254051092530558
:100AB0008DE991E090935A058093590590914905ED
:100AC000963108F058C02DEB30E030935405209358
:100AD00053052BE931E030935605209355052CE260
:100AE00031E03093580520935705409168009830C5
:100AF00058F031E09E3008F430E021E0822F01C050
:100B0000880F3A95EAF701C084E0842B809368004F
:100B1000983038F09E3040F0963148F020E030E0D8
:100B200008C02DE630E005C02BE630E002C02CE620
:100B300030E03093510520935005983030F481E037
:100B400001C0880F9A95EAF70EC0292F30E09E3039
:100B500018F42850310902C02E50310981E001C03B
:100B6000880F2A95EAF78093520580915905909154
:100B70005A050197F1F78091570590915805892BF7
:100B800049F1E091D601F091D70185E0ED33F80706
:100B900009F1309739F0A389B4899C9185898095B2
:100BA00089238C9380915B058E7F80935B051092E7
:100BB000D5011092D4018DE395E09093D7018093F5
:100BC000D601E0915005F091510590818091520538
:100BD000892B808310929604109295048DE395E002
:100BE0000E943E021816190694F08091690384321F
:100BF00009F063C033C08DE395E00E943E021816F1
:100C000019062CF48DE395E00E945602182F143239
:100C100091F780E080939404809368038DE395E0DE
:100C20000E943E021816190694F4C0919504D091C2
:100C300096042196D0939604C09395048DE395E095
:100C40000E94560280939404C859DC4F8883809197
:100C500094048A3051F28D3009F7C7CF80916A032E
:100C6000873459F580916B03803539F580916C0399
:100C7000823519F580916D038D34F9F480916E03FE
:100C80008334D9F487E291E00E9492022091950486
:100C900030919604E9E6F3E0A4E0B3E0CF01885692
:100CA0009340821793071CF481918D93F7CF84E0D2
:100CB00093E00E9492020E94830280916903843231
:100CC00079F580916A03873459F580916B038035FB
:100CD00039F580916C03873419F580916D038C345C
:100CE000F9F480916E038C34D9F482E491E00E948F
:100CF00092022091950430919604E9E6F3E0A0EA8F
:100D0000B2E0CF0188569340821793071CF481917B
:100D10008D93F7CF80EA92E00E9492020E948302B4
:100D200080916903843279F580916A03873459F59B
:100D300080916B03803539F580916C03873419F508
:100D400080916D038734F9F480916E038134D9F476
:100D50008DE591E00E9492022091950430919604D5
:100D6000E9E6F3E0ACE3B2E0CF01885693408217A6
:100D700093071CF481918D93F7CF8CE392E00E944E
:100D800092020E94830280916903843279F58091F6
:100D90006A03873459F580916B03803539F580916A
:100DA0006C03863519F580916D038435F9F48091D3
:100DB0006E038734D9F488E791E00E949202209173
:100DC000950430919604E9E6F3E0A8EDB1E0CF0197
:100DD00088569340821793071CF481918D93F7CF27
:100DE00088ED91E00E9492020E9483020E94CB0152
:100DF000F1CE86E191E090933E0580933D05809190
:100E0000D6019091D7018D53954071F4E091500532
:100E1000F0915105908180915205809589238083BE
:100E20001092D7011092D601089597FB072E16F461
:100E3000009407D077FD09D00E94290707FC05D050
:100E40003EF4909581959F4F0895709561957F4FE1
:100E50000895AA1BBB1B51E107C0AA1FBB1FA61701
:100E6000B70710F0A61BB70B881F991F5A95A9F753
:100E700080959095BC01CD010895EE0FFF1F059060
:100E8000F491E02D099481E090E0F8940C944807E7
:100E900010E0C2E6D0E004C0FE010E943D072196AA
:0A0EA000C336D107C9F7F894FFCF5D
:100EAA00000000005C01C900F300A901240102014D
:100EBA00160100000000EE01C9007802ED013E02B1
:100ECA005602D5010D0A00244750524D432073653E
:100EDA006E74656E63652064657465637465642009
:100EEA002100244750474C4C2073656E74656E632D
:100EFA006520646574656374656420210024475025
:100F0A004747412073656E74656E63652064657436
:100F1A006563746564202100244750565447207342
:100F2A00656E74656E636520646574656374656473
:040F3A002021000072
:107E0000112484B714BE81FFF0D085E080938100F7
:107E100082E08093C00088E18093C10086E0809377
:107E2000C20080E18093C4008EE0C9D0259A86E02C
:107E300020E33CEF91E0309385002093840096BBD3
:107E4000B09BFECF1D9AA8958150A9F7CC24DD24C4
:107E500088248394B5E0AB2EA1E19A2EF3E0BF2EE7
:107E6000A2D0813461F49FD0082FAFD0023811F036
:107E7000013811F484E001C083E08DD089C08234E0
:107E800011F484E103C0853419F485E0A6D080C0E4
:107E9000853579F488D0E82EFF2485D0082F10E0AE
:107EA000102F00270E291F29000F111F8ED06801E7
:107EB0006FC0863521F484E090D080E0DECF843638
:107EC00009F040C070D06FD0082F6DD080E0C81688
:107ED00080E7D80618F4F601B7BEE895C0E0D1E017
:107EE00062D089930C17E1F7F0E0CF16F0E7DF06D8
:107EF00018F0F601B7BEE89568D007B600FCFDCFD4
:107F0000A601A0E0B1E02C9130E011968C91119780
:107F100090E0982F8827822B932B1296FA010C0160
:107F200087BEE89511244E5F5F4FF1E0A038BF0790
:107F300051F7F601A7BEE89507B600FCFDCF97BE46
:107F4000E89526C08437B1F42ED02DD0F82E2BD052
:107F50003CD0F601EF2C8F010F5F1F4F84911BD097
:107F6000EA94F801C1F70894C11CD11CFA94CF0C13
:107F7000D11C0EC0853739F428D08EE10CD085E9AC
:107F80000AD08FE07ACF813511F488E018D01DD067
:107F900080E101D065CF982F8091C00085FFFCCF94
:107FA0009093C60008958091C00087FFFCCF809118
:107FB000C00084FD01C0A8958091C6000895E0E648
:107FC000F0E098E1908380830895EDDF803219F02E
:107FD00088E0F5DFFFCF84E1DECF1F93182FE3DFCA
:107FE0001150E9F7F2DF1F91089580E0E8DFEE27F6
:047FF000FF270994CA
:027FFE00040479
:0400000300007E007B
:00000001FF
