:100000000C945C000C9479000C9479000C947900A9
:100010000C9479000C9479000C9479000C9479007C
:100020000C9479000C9479000C9479000C9479006C
:100030000C9479000C9479000C9479000C9479005C
:100040000C9482010C9479000C9479000C94790042
:100050000C9479000C9479000C9479000C9479003C
:100060000C9479000C947900000000002400270013
:100070002A0000000000250028002B0004040404CE
:100080000404040402020202020203030303030342
:10009000010204081020408001020408102001021F
:1000A00004081020000000080002010000030407FB
:1000B000000000000000000011241FBECFEFD8E0B8
:1000C000DEBFCDBF11E0A0E0B1E0E4E7F5E002C0A3
:1000D00005900D92A832B107D9F721E0A8E2B1E06E
:1000E00001C01D92A333B207E1F70E94CC010C942A
:1000F000B8020C940000E6EAF0E09491E2E9F0E046
:100100002491EEE7F0E0E491EE2309F43CC099235A
:1001100039F1933091F038F49130A9F0923001F533
:1001200094B59F7D12C0973091F09830A1F0943033
:10013000B9F4909180009F7D03C0909180009F77DB
:10014000909380000DC094B59F7794BD09C09091A5
:10015000B0009F7703C09091B0009F7D9093B00056
:10016000F0E0EE0FFF1FEE58FF4FA591B4919FB73F
:10017000F894811104C08C912095282302C0EC9141
:100180002E2B2C939FBF089590E0FC01E057FF4F6A
:100190002491FC01E458FF4F8491882399F090E06A
:1001A000880F991FFC01E859FF4FA591B491FC01FC
:1001B000EE58FF4F859194918FB7F894EC91E22B14
:1001C000EC938FBF08953FB7F89480912F019091E1
:1001D0003001A0913101B091320126B5A89B05C034
:1001E0002F3F19F00196A11DB11D3FBFBA2FA92FB6
:1001F000982F8827820F911DA11DB11DBC01CD0133
:1002000042E0660F771F881F991F4A95D1F708951E
:10021000CF93DF9380912901882331F081E00E9400
:100220007B00CBE7D6E011C081E00E947B00CBE3EE
:10023000D3E0CE010197F1F780E00E947B00CE0170
:100240000197F1F781E00E947B00CE010197F1F761
:1002500080E00E947B002197F1F7DF91CF91089514
:10026000DF92EF92FF920F931F93CF93DF93D82FDC
:1002700000E010E0E82EF12CDD24D394C701002E1D
:1002800002C0959587950A94E2F781709927DE3729
:1002900019F41092280113C04091000150910101FE
:1002A0009A01369527954827592740FF04C048E012
:1002B000242744E834273093010120930001C091A2
:1002C0002901892B51F08C2F0E940801809128016F
:1002D0008F5F80932801853041F48C2F8D2580938A
:1002E00029010E940801109228010F5F1F4F08305A
:1002F000110521F6DF91CF911F910F91FF90EF90A3
:10030000DF9008951F920F920FB60F9211242F9332
:100310003F938F939F93AF93BF9380912B019091C5
:100320002C01A0912D01B0912E0130912A0123E0E2
:10033000230F2D3720F40196A11DB11D05C026E81D
:10034000230F0296A11DB11D20932A0180932B013A
:1003500090932C01A0932D01B0932E0180912F0139
:1003600090913001A0913101B09132010196A11D0F
:10037000B11D80932F0190933001A0933101B09370
:100380003201BF91AF919F918F913F912F910F902B
:100390000FBE0F901F901895789484B5826084BD2D
:1003A00084B5816084BD85B5826085BD85B5816079
:1003B00085BD80916E00816080936E0010928100F7
:1003C00080918100826080938100809181008160B2
:1003D0008093810080918000816080938000809173
:1003E000B10084608093B1008091B00081608093FF
:1003F000B00080917A00846080937A0080917A00C6
:10040000826080937A0080917A00816080937A0084
:1004100080917A00806880937A001092C1008DE00C
:100420000E94C40082E00E94C40067E2862E61E060
:10043000962ECEE1D1E03324339400E010E0AA24DC
:10044000AA94BA2C0E94E3002B013C0150EDC52E6A
:1004500057E0D52EE12CF12C0E94E300DC01CB010A
:1004600084199509A609B709883E9340A105B105ED
:1004700098F321E0C21AD108E108F10888EE480E8D
:1004800083E0581E611C711CC114D104E104F10405
:1004900019F744E6E42EF12C8EE70E943001F1E0DA
:1004A000EF1AF108C9F7B0920101A092000130E201
:1004B000E32E31E0F32EF70181917F01880F0E9436
:1004C00030018E149F04B9F727E1E22E21E0F22ECD
:1004D000F70181917F01880F0E943001CE15DF0561
:1004E000B9F790E1E92E91E0F92EF70181917F01B2
:1004F000880F0E943001F6E1EF16F1E0FF06A9F740
:1005000085E00E94300183E00E94300180EF0E946C
:10051000300182E0E82E81E0F82E20E1E21621E0B1
:10052000F20631F0F70181917F010E943001F5CF91
:1005300080910001F090010180950E9430018F2D83
:1005400080950E9430018EE70E9430018EE70E9464
:1005500030018EE70E94300180912901832580932C
:1005600029010115110509F46DCF0E9400006ACF21
:04057000F894FFCF2D
:10057400FFFF2048656C6C6F20576F726C6421001C
:100584005749444532200059443153444C2D3100DD
:080594004150525320202000C9
:00000001FF
