:100000000C945C000C9479000C9479000C947900A9
:100010000C9479000C9479000C9479000C9479007C
:100020000C9479000C9479000C9479000C9479006C
:100030000C9479000C9479000C9479000C9479005C
:100040000C9484010C9479000C9479000C94790040
:100050000C9479000C9479000C9479000C9479003C
:100060000C9479000C947900000000002400270013
:100070002A0000000000250028002B0004040404CE
:100080000404040402020202020203030303030342
:10009000010204081020408001020408102001021F
:1000A00004081020000000080002010000030407FB
:1000B000000000000000000011241FBECFEFD8E0B8
:1000C000DEBFCDBF15E0A0E0B1E0E6EBF7E002C097
:1000D00005900D92A630B107D9F725E0A6E0B5E06E
:1000E00001C01D92A131B207E1F70E94CE010C942C
:1000F000D9030C940000E6EAF0E09491E2E9F0E024
:100100002491EEE7F0E0E491EE2309F43CC099235A
:1001100039F1933091F038F49130A9F0923001F533
:1001200094B59F7D12C0973091F09830A1F0943033
:10013000B9F4909180009F7D03C0909180009F77DB
:10014000909380000DC094B59F7794BD09C09091A5
:10015000B0009F7703C09091B0009F7D9093B00056
:10016000F0E0EE0FFF1FEE58FF4FA591B4919FB73F
:10017000F894811104C08C912095282302C0EC9141
:100180002E2B2C939FBF089590E0FC01E057FF4F6A
:100190002491FC01E458FF4F8491882399F090E06A
:1001A000880F991FFC01E859FF4FA591B491FC01FC
:1001B000EE58FF4F859194918FB7F894EC91E22B14
:1001C000EC938FBF08953FB7F89480910D059091FF
:1001D0000E05A0910F05B091100526B5A89B05C08E
:1001E0002F3F19F00196A11DB11D3FBFBA2FA92FB6
:1001F000982F8827820F911DA11DB11DBC01CD0133
:1002000042E0660F771F881F991F4A95D1F708951E
:10021000CF93DF9380910605882331F081E00E941F
:100220007B00CBE4D6E011C081E00E947B00C3E2FA
:10023000D3E0CE010197F1F780E00E947B00CE0170
:100240000197F1F781E00E947B00CE010197F1F761
:1002500080E00E947B002197F1F7DF91CF91089514
:10026000DF92EF92FF920F931F93CF93DF93D82FDC
:1002700000E010E0E82EF12CDD24D394C701002E1D
:1002800002C0959587950A94E2F781709927DE3729
:1002900011F0DF3F19F41092070513C040910001DF
:1002A000509101019A01369527954827592740FF1B
:1002B00004C048E0242744E8342730930101209308
:1002C0000001C0910605892B51F08C2F0E94080176
:1002D000809107058F5F80930705853041F48C2F4F
:1002E0008D25809306050E940801109207050F5F77
:1002F0001F4F0830110511F6DF91CF911F910F911B
:10030000FF90EF90DF9008951F920F920FB60F921B
:1003100011242F933F938F939F93AF93BF9380911B
:10032000090590910A05A0910B05B0910C0530913B
:10033000080523E0230F2D3720F40196A11DB11DE0
:1003400005C026E8230F0296A11DB11D20930805C4
:100350008093090590930A05A0930B05B0930C05B3
:1003600080910D0590910E05A0910F05B09110059B
:100370000196A11DB11D80930D0590930E05A093CC
:100380000F05B0931005BF91AF919F918F913F9151
:100390002F910F900FBE0F901F901895789484B5F1
:1003A000826084BD84B5816084BD85B5826085BD71
:1003B00085B5816085BD80916E00816080936E00FF
:1003C00010928100809181008260809381008091F1
:1003D00081008160809381008091800081608093A2
:1003E00080008091B10084608093B1008091B00062
:1003F00081608093B00080917A00846080937A005D
:1004000080917A00826080937A0080917A00816086
:1004100080937A0080917A00806880937A001092AD
:10042000C1008DE00E94C40082E00E94C4009BEFE6
:10043000C92ED12CE12CF12C22242A94322C0E949A
:10044000E3002B013C0180E8882E8DE0982EA12C42
:10045000B12C0E94E300DC01CB0184199509A609A7
:10046000B709883E9340A105B10598F321E0821AAF
:100470009108A108B10888EE480E83E0581E611C5F
:10048000711C81149104A104B10419F70E941F0387
:100490002FE732E040E050E00E9476034B015C0120
:1004A000FFEF8F1A9F0AAF0ABF0A0E941F03A7011E
:1004B00096010E947603DC01CB010596A11DB11DBA
:1004C000EC0102E310E08EE70E94300101501109B7
:1004D000D1F78EE70E9430018EE70E9430018EE74F
:1004E0000E94300130920101209200010EEF14E0D1
:1004F000F80181918F01880F0E94300185E095E01D
:1005000080179107A9F706EF14E0F80181918F0198
:10051000880F0E9430018DEF94E080179107A9F7B2
:100520000EEE14E0F80181918F01880F0E943001D6
:10053000F4E0043F1F07B1F785E60E94300183E035
:100540000E94300180EF0E9430018CE20E94300155
:1005500000E010E00C171D075CF4F801E80DF91D30
:10056000EA5FFE4F80810E9430010F5F1F4FF2CF84
:1005700080910001C091010180950E9430018C2F73
:1005800080950E9430018EE70E9430018EE70E9424
:1005900030018EE70E94300180E090E0892B09F461
:1005A0004ECF0E9400004BCF8F929F92AF92BF928E
:1005B000CF92DF92EF92FF92CF93DF93EC016881AD
:1005C00079818A819B81611571058105910521F4ED
:1005D00064E279ED8BE597E02DE133EF41E050E007
:1005E0000E94760349015A019B01AC01A7EAB1E4DC
:1005F0000E9495036B017C01ACEEB4EFA501940160
:100600000E94A303DC01CB018C0D9D1DAE1DBF1DFF
:10061000B7FF03C00197A109B04888839983AA83D3
:10062000BB83BC01CD019F77DF91CF91FF90EF900D
:10063000DF90CF90BF90AF909F908F9008958F9252
:100640009F92AF92BF92CF92DF92EF92FF92609112
:1006500002017091030180910401909105016115DF
:1006600071058105910521F464E279ED8BE597E050
:100670002DE133EF41E050E00E94760349015A0139
:100680009B01AC01A7EAB1E40E9495036B017C01D8
:10069000ACEEB4EFA50194010E94A303DC01CB01F1
:1006A0008C0D9D1DAE1DBF1DB7FF03C00197A10995
:1006B000B0488093020190930301A0930401B0938A
:1006C0000501BC01CD019F77FF90EF90DF90CF90A7
:1006D000BF90AF909F908F900895609302017093A8
:1006E000030180930401909305010895052E97FB63
:1006F0001EF400940E948D0357FD07D00E94A803AA
:1007000007FC03D04EF40C948D0350954095309522
:1007100021953F4F4F4F5F4F08959095809570956D
:1007200061957F4F8F4F9F4F08950E94CA03A59FE9
:10073000900DB49F900DA49F800D911D11240895DC
:10074000B7FF0C9495030E949503821B930B0895A9
:10075000A1E21A2EAA1BBB1BFD010DC0AA1FBB1FC5
:10076000EE1FFF1FA217B307E407F50720F0A21B37
:10077000B30BE40BF50B661F771F881F991F1A94A4
:1007800069F760957095809590959B01AC01BD01CE
:10079000CF010895A29FB001B39FC001A39F700D28
:1007A000811D1124911DB29F700D811D1124911D79
:0607B0000895F894FFCF4C
:1007B600FFFF0100000062304E577441584C4B6AEF
:1007C60030536E38575273616B7A5153384A4E32F2
:1007D600357A414166336D6435494C6159747936D1
:1007E6006A765A48727131515531435766433674A9
:1007F6004B4F4D59376346436F706C6139736E309A
:10080600626E32367A6364397152484657666C7145
:100816004D636D4D7778395A446D7A7872733463C7
:10082600666A694D6F78345230704E434230666D59
:10083600323667445663644D435A63564F6E6F763D
:100846004C4457556C46484C306D32554C6A3353C0
:10085600564A6F6E45347377496C656D76326D69AD
:1008660056464A33686A4554683534637562704A39
:100876006865666848744F476C7777746436345099
:10088600696778736A7A42336F584936744A5233C5
:1008960073436438347368655169733244726E42C7
:1008A6005A5064347059645A7676366E78303168A8
:1008B6004465514E69555947696C414862376364CE
:1008C600716C45494D77684856617149676E343396
:1008D6004A4F77517A534D474F5776416246645394
:1008E600784C796F556438725965795657487857F8
:1008F6003374794A5337776A576A73723155563368
:1009060052436B50424C3458684D70636556337A87
:10091600307A75367939725147577842775641623F
:10092600426C694F6F3633306C6B646D77526B7502
:100936004D4230494E4E635334436A454C597A739F
:1009460056516E456E58354F4D4372794464624632
:100956004547774370444569465045546C50344585
:1009660065717359493641434952734D394138626D
:100976007566316565637277424B676B543354799C
:10098600306D486C4F6A6334696242694A434A4231
:100996003576547A76456251646667734C4775625C
:1009A60066504C31593856623550417A774347562E
:1009B6006F74577855505550616D476742657A5840
:1009C6005A344A624F416255665847454D317070F8
:1009D600755274616D387A6B34655045787331633E
:1009E60063443471756D4E7430707666455779433D
:1009F60069497256754C414B3154476F4F473972AE
:100A0600453055307743614C494C6C6D4C69547593
:100A1600315574504D53546D31735A7A454164754E
:100A26006E454E4D6D4D72484834624F35573364AE
:100A36004C33364E6A6F7137664356794647694975
:100A460075725942636D616D5952574846617333E9
:100A5600663644434E3749704F694B6F30504D31BF
:100A66004549663765655665674542346C515A3562
:100A7600455653584A344870476F646B346839306A
:100A8600336275344B49666D3256696C4A555574F6
:100A96006A6979396C4D715458476C69616644735B
:100AA60073357A4247704C3853377968317A324E0B
:100AB6006467443854725247585234454A3967532A
:100AC600694A54434269476F536531757A6F657158
:100AD600504E5631704D4D376C6437624B625472CE
:100AE600694F6C424E7954436D376C7837634D3895
:100AF6004A3549734F3469656743536A47304F7ABD
:100B0600776951456865643768765332623738517C
:100B16007577397744795651696A70787257426B9E
:100B260065464F716B365636353649534C6F6D698F
:100B36006C304672414600000000000000000000D4
:100B4600000000000000000000000000000000009F
:100B5600000000000000000000000000000000008F
:100B6600000000000000000000000000000000007F
:100B7600000000000000000000000000000000006F
:100B8600000000000000000000000000000000005F
:100B960000000000000000000000000000005749AF
:100BA60044453220320059443153444C20004150D0
:060BB60052532020200034
:107E0000112484B714BE81FFF0D085E080938100F7
:107E100082E08093C00088E18093C10086E0809377
:107E2000C20080E18093C4008EE0C9D0259A86E02C
:107E300020E33CEF91E0309385002093840096BBD3
:107E4000B09BFECF1D9AA8958150A9F7CC24DD24C4
:107E500088248394B5E0AB2EA1E19A2EF3E0BF2EE7
:107E6000A2D0813461F49FD0082FAFD0023811F036
:107E7000013811F484E001C083E08DD089C08234E0
:107E800011F484E103C0853419F485E0A6D080C0E4
:107E9000853579F488D0E82EFF2485D0082F10E0AE
:107EA000102F00270E291F29000F111F8ED06801E7
:107EB0006FC0863521F484E090D080E0DECF843638
:107EC00009F040C070D06FD0082F6DD080E0C81688
:107ED00080E7D80618F4F601B7BEE895C0E0D1E017
:107EE00062D089930C17E1F7F0E0CF16F0E7DF06D8
:107EF00018F0F601B7BEE89568D007B600FCFDCFD4
:107F0000A601A0E0B1E02C9130E011968C91119780
:107F100090E0982F8827822B932B1296FA010C0160
:107F200087BEE89511244E5F5F4FF1E0A038BF0790
:107F300051F7F601A7BEE89507B600FCFDCF97BE46
:107F4000E89526C08437B1F42ED02DD0F82E2BD052
:107F50003CD0F601EF2C8F010F5F1F4F84911BD097
:107F6000EA94F801C1F70894C11CD11CFA94CF0C13
:107F7000D11C0EC0853739F428D08EE10CD085E9AC
:107F80000AD08FE07ACF813511F488E018D01DD067
:107F900080E101D065CF982F8091C00085FFFCCF94
:107FA0009093C60008958091C00087FFFCCF809118
:107FB000C00084FD01C0A8958091C6000895E0E648
:107FC000F0E098E1908380830895EDDF803219F02E
:107FD00088E0F5DFFFCF84E1DECF1F93182FE3DFCA
:107FE0001150E9F7F2DF1F91089580E0E8DFEE27F6
:047FF000FF270994CA
:027FFE00040479
:0400000300007E007B
:00000001FF
